{
  "abi": [
    {
      "inputs": [
        {
          "internalType": "address",
          "name": "factoryV1",
          "type": "address"
        },
        {
          "internalType": "address",
          "name": "legacyFactoryV2",
          "type": "address"
        },
        {
          "internalType": "address",
          "name": "factoryV2",
          "type": "address"
        },
        {
          "internalType": "address",
          "name": "legacyRouterV2",
          "type": "address"
        },
        {
          "internalType": "address",
          "name": "routerV2",
          "type": "address"
        }
      ],
      "stateMutability": "nonpayable",
      "type": "constructor"
    },
    {
      "inputs": [],
      "name": "JoeLibrary__AddressZero",
      "type": "error"
    },
    {
      "inputs": [],
      "name": "JoeLibrary__IdenticalAddresses",
      "type": "error"
    },
    {
      "inputs": [],
      "name": "JoeLibrary__InsufficientAmount",
      "type": "error"
    },
    {
      "inputs": [],
      "name": "JoeLibrary__InsufficientLiquidity",
      "type": "error"
    },
    {
      "inputs": [],
      "name": "LBQuoter_InvalidLength",
      "type": "error"
    },
    {
      "inputs": [
        {
          "internalType": "uint256",
          "name": "x",
          "type": "uint256"
        },
        {
          "internalType": "int256",
          "name": "y",
          "type": "int256"
        }
      ],
      "name": "Uint128x128Math__PowUnderflow",
      "type": "error"
    },
    {
      "inputs": [],
      "name": "Uint256x256Math__MulDivOverflow",
      "type": "error"
    },
    {
      "inputs": [],
      "name": "Uint256x256Math__MulShiftOverflow",
      "type": "error"
    },
    {
      "inputs": [
        {
          "internalType": "address[]",
          "name": "route",
          "type": "address[]"
        },
        {
          "internalType": "uint128",
          "name": "amountIn",
          "type": "uint128"
        }
      ],
      "name": "findBestPathFromAmountIn",
      "outputs": [
        {
          "components": [
            {
              "internalType": "address[]",
              "name": "route",
              "type": "address[]"
            },
            {
              "internalType": "address[]",
              "name": "pairs",
              "type": "address[]"
            },
            {
              "internalType": "uint256[]",
              "name": "binSteps",
              "type": "uint256[]"
            },
            {
              "internalType": "enum ILBRouter.Version[]",
              "name": "versions",
              "type": "uint8[]"
            },
            {
              "internalType": "uint128[]",
              "name": "amounts",
              "type": "uint128[]"
            },
            {
              "internalType": "uint128[]",
              "name": "virtualAmountsWithoutSlippage",
              "type": "uint128[]"
            },
            {
              "internalType": "uint128[]",
              "name": "fees",
              "type": "uint128[]"
            }
          ],
          "internalType": "struct LBQuoter.Quote",
          "name": "quote",
          "type": "tuple"
        }
      ],
      "stateMutability": "view",
      "type": "function"
    },
    {
      "inputs": [
        {
          "internalType": "address[]",
          "name": "route",
          "type": "address[]"
        },
        {
          "internalType": "uint128",
          "name": "amountOut",
          "type": "uint128"
        }
      ],
      "name": "findBestPathFromAmountOut",
      "outputs": [
        {
          "components": [
            {
              "internalType": "address[]",
              "name": "route",
              "type": "address[]"
            },
            {
              "internalType": "address[]",
              "name": "pairs",
              "type": "address[]"
            },
            {
              "internalType": "uint256[]",
              "name": "binSteps",
              "type": "uint256[]"
            },
            {
              "internalType": "enum ILBRouter.Version[]",
              "name": "versions",
              "type": "uint8[]"
            },
            {
              "internalType": "uint128[]",
              "name": "amounts",
              "type": "uint128[]"
            },
            {
              "internalType": "uint128[]",
              "name": "virtualAmountsWithoutSlippage",
              "type": "uint128[]"
            },
            {
              "internalType": "uint128[]",
              "name": "fees",
              "type": "uint128[]"
            }
          ],
          "internalType": "struct LBQuoter.Quote",
          "name": "quote",
          "type": "tuple"
        }
      ],
      "stateMutability": "view",
      "type": "function"
    },
    {
      "inputs": [],
      "name": "getFactoryV1",
      "outputs": [
        {
          "internalType": "address",
          "name": "factoryV1",
          "type": "address"
        }
      ],
      "stateMutability": "view",
      "type": "function"
    },
    {
      "inputs": [],
      "name": "getFactoryV2",
      "outputs": [
        {
          "internalType": "address",
          "name": "factoryV2",
          "type": "address"
        }
      ],
      "stateMutability": "view",
      "type": "function"
    },
    {
      "inputs": [],
      "name": "getLegacyFactoryV2",
      "outputs": [
        {
          "internalType": "address",
          "name": "legacyFactoryV2",
          "type": "address"
        }
      ],
      "stateMutability": "view",
      "type": "function"
    },
    {
      "inputs": [],
      "name": "getLegacyRouterV2",
      "outputs": [
        {
          "internalType": "address",
          "name": "legacyRouterV2",
          "type": "address"
        }
      ],
      "stateMutability": "view",
      "type": "function"
    },
    {
      "inputs": [],
      "name": "getRouterV2",
      "outputs": [
        {
          "internalType": "address",
          "name": "routerV2",
          "type": "address"
        }
      ],
      "stateMutability": "view",
      "type": "function"
    }
  ],
  "bytecode": {
    "object": "0x6101206040523480156200001257600080fd5b50604051620039733803806200397383398101604081905262000035916200007d565b6001600160a01b0394851660805292841660a05290831660c052908216610100521660e052620000ed565b80516001600160a01b03811681146200007857600080fd5b919050565b600080600080600060a086880312156200009657600080fd5b620000a18662000060565b9450620000b16020870162000060565b9350620000c16040870162000060565b9250620000d16060870162000060565b9150620000e16080870162000060565b90509295509295909350565b60805160a05160c05160e051610100516137fd62000176600039600081816101090152818161105e01526123f401526000818160e301528181610a340152611d5501526000818161016801528181610e3101526121d9015260008181610142015281816108070152611b3a015260008181608401528181610462015261175901526137fd6000f3fe608060405234801561001057600080fd5b506004361061007d5760003560e01c806333141d3e1161005b57806333141d3e14610107578063592142261461012d5780638fe4b3ad14610140578063ca56fc721461016657600080fd5b806307da8f57146100825780630f902a40146100c157806323229d6d146100e1575b600080fd5b7f00000000000000000000000000000000000000000000000000000000000000005b6040516001600160a01b0390911681526020015b60405180910390f35b6100d46100cf366004612fec565b61018c565b6040516100b8919061318e565b7f00000000000000000000000000000000000000000000000000000000000000006100a4565b7f00000000000000000000000000000000000000000000000000000000000000006100a4565b6100d461013b366004612fec565b611488565b7f00000000000000000000000000000000000000000000000000000000000000006100a4565b7f00000000000000000000000000000000000000000000000000000000000000006100a4565b6101cc6040518060e00160405280606081526020016060815260200160608152602001606081526020016060815260200160608152602001606081525090565b60028310156101ee57604051632973c80b60e01b815260040160405180910390fd5b83838080602002602001604051908101604052809392919081815260200183836020028082843760009201829052509385525061023091506001905085613271565b90508067ffffffffffffffff81111561024b5761024b613288565b604051908082528060200260200182016040528015610274578160200160208202803683370190505b5060208301528067ffffffffffffffff81111561029357610293613288565b6040519080825280602002602001820160405280156102bc578160200160208202803683370190505b5060408301528067ffffffffffffffff8111156102db576102db613288565b604051908082528060200260200182016040528015610304578160200160208202803683370190505b5060608301528067ffffffffffffffff81111561032357610323613288565b60405190808252806020026020018201604052801561034c578160200160208202803683370190505b5060c08301528367ffffffffffffffff81111561036b5761036b613288565b604051908082528060200260200182016040528015610394578160200160208202803683370190505b5060808301528367ffffffffffffffff8111156103b3576103b3613288565b6040519080825280602002602001820160405280156103dc578160200160208202803683370190505b508260a001819052508282608001516000815181106103fd576103fd61329e565b60200260200101906001600160801b031690816001600160801b031681525050828260a001516000815181106104355761043561329e565b60200260200101906001600160801b031690816001600160801b03168152505060005b8181101561147f577f00000000000000000000000000000000000000000000000000000000000000006001600160a01b031663e6a439058787848181106104a1576104a161329e565b90506020020160208101906104b691906132c9565b88886104c38660016132ed565b8181106104d2576104d261329e565b90506020020160208101906104e791906132c9565b6040516001600160e01b031960e085901b1681526001600160a01b03928316600482015291166024820152604401602060405180830381865afa158015610532573d6000803e3d6000fd5b505050506040513d601f19601f820116820180604052508101906105569190613305565b8360200151828151811061056c5761056c61329e565b6001600160a01b039092166020928302919091018201528301518051600091908390811061059c5761059c61329e565b60200260200101516001600160a01b0316141580156105e157506000836080015182815181106105ce576105ce61329e565b60200260200101516001600160801b0316115b1561080357600080610667856020015184815181106106025761060261329e565b602002602001015189898681811061061c5761061c61329e565b905060200201602081019061063191906132c9565b8a8a61063e8860016132ed565b81811061064d5761064d61329e565b905060200201602081019061066291906132c9565b61289e565b9150915060008211801561067b5750600081115b15610800576106b1856080015184815181106106995761069961329e565b60200260200101516001600160801b0316838361296c565b60808601516106c18560016132ed565b815181106106d1576106d161329e565b60200260200101906001600160801b031690816001600160801b03168152505061073a8560a00151848151811061070a5761070a61329e565b60200260200101516103e561071f9190613322565b6001600160801b0316610734846103e8613351565b83612a03565b60a086015161074a8560016132ed565b8151811061075a5761075a61329e565b60200260200101906001600160801b031690816001600160801b031681525050660aa87bee5380008560c0015184815181106107985761079861329e565b60200260200101906001600160801b031690816001600160801b0316815250506000856060015184815181106107d0576107d061329e565b602002602001019060028111156107e9576107e96130e6565b908160028111156107fc576107fc6130e6565b9052505b50505b60007f00000000000000000000000000000000000000000000000000000000000000006001600160a01b0316636622e0d78888858181106108465761084661329e565b905060200201602081019061085b91906132c9565b89896108688760016132ed565b8181106108775761087761329e565b905060200201602081019061088c91906132c9565b6040516001600160e01b031960e085901b1681526001600160a01b03928316600482015291166024820152604401600060405180830381865afa1580156108d7573d6000803e3d6000fd5b505050506040513d6000823e601f3d908101601f191682016040526108ff9190810190613415565b90506000815111801561093857506000846080015183815181106109255761092561329e565b60200260200101516001600160801b0316115b15610e2d5760005b8151811015610e2b5781818151811061095b5761095b61329e565b602002602001015160600151610e19576000888861097a8660016132ed565b8181106109895761098961329e565b905060200201602081019061099e91906132c9565b6001600160a01b03168383815181106109b9576109b961329e565b6020026020010151602001516001600160a01b031663b7d19fc46040518163ffffffff1660e01b8152600401602060405180830381865afa158015610a02573d6000803e3d6000fd5b505050506040513d601f19601f82011682018060405250810190610a269190613305565b6001600160a01b03161490507f00000000000000000000000000000000000000000000000000000000000000006001600160a01b0316632004b724848481518110610a7357610a7361329e565b60200260200101516020015188608001518781518110610a9557610a9561329e565b60209081029190910101516040516001600160e01b031960e085901b1681526001600160a01b0390921660048301526001600160801b0316602482015283151560448201526064016040805180830381865afa925050508015610b15575060408051601f3d908101601f19168201909252610b12918101906134f8565b60015b610b1e57610e17565b6080880151610b2e8760016132ed565b81518110610b3e57610b3e61329e565b60200260200101516001600160801b0316821115610e145760808801518290610b688860016132ed565b81518110610b7857610b7861329e565b60200260200101906001600160801b031690816001600160801b031681525050848481518110610baa57610baa61329e565b60200260200101516020015188602001518781518110610bcc57610bcc61329e565b60200260200101906001600160a01b031690816001600160a01b031681525050848481518110610bfe57610bfe61329e565b60200260200101516000015161ffff1688604001518781518110610c2457610c2461329e565b602002602001018181525050600188606001518781518110610c4857610c4861329e565b60200260200101906002811115610c6157610c616130e6565b90816002811115610c7457610c746130e6565b815250506000858581518110610c8c57610c8c61329e565b6020026020010151602001516001600160a01b0316631b05b83e6040518163ffffffff1660e01b8152600401606060405180830381865afa158015610cd5573d6000803e3d6000fd5b505050506040513d601f19601f82011682018060405250810190610cf9919061351c565b92505050610d57828a60a001518981518110610d1757610d1761329e565b60200260200101516001600160801b0316610d329190613271565b828b604001518a81518110610d4957610d4961329e565b602002602001015187612a69565b60a08a0151610d678960016132ed565b81518110610d7757610d7761329e565b60200260200101906001600160801b031690816001600160801b03168152505088608001518781518110610dad57610dad61329e565b60200260200101516001600160801b031682670de0b6b3a7640000610dd29190613351565b610ddc9190613560565b8960c001518881518110610df257610df261329e565b60200260200101906001600160801b031690816001600160801b031681525050505b50505b505b80610e2381613574565b915050610940565b505b60007f00000000000000000000000000000000000000000000000000000000000000006001600160a01b0316636622e0d7898986818110610e7057610e7061329e565b9050602002016020810190610e8591906132c9565b8a8a610e928860016132ed565b818110610ea157610ea161329e565b9050602002016020810190610eb691906132c9565b6040516001600160e01b031960e085901b1681526001600160a01b03928316600482015291166024820152604401600060405180830381865afa158015610f01573d6000803e3d6000fd5b505050506040513d6000823e601f3d908101601f19168201604052610f29919081019061358f565b905060008151118015610f625750600085608001518481518110610f4f57610f4f61329e565b60200260200101516001600160801b0316115b1561146a5760005b815181101561146857818181518110610f8557610f8561329e565b6020026020010151606001516114565760008989610fa48760016132ed565b818110610fb357610fb361329e565b9050602002016020810190610fc891906132c9565b6001600160a01b0316838381518110610fe357610fe361329e565b6020026020010151602001516001600160a01b031663da10610c6040518163ffffffff1660e01b8152600401602060405180830381865afa15801561102c573d6000803e3d6000fd5b505050506040513d601f19601f820116820180604052508101906110509190613305565b6001600160a01b03161490507f00000000000000000000000000000000000000000000000000000000000000006001600160a01b031663a0d376cf84848151811061109d5761109d61329e565b602002602001015160200151896080015188815181106110bf576110bf61329e565b60209081029190910101516040516001600160e01b031960e085901b1681526001600160a01b0390921660048301526001600160801b031660248201528315156044820152606401606060405180830381865afa925050508015611140575060408051601f3d908101601f1916820190925261113d9181019061366d565b60015b61114957611454565b6001600160801b038316158015611198575060808a015161116b8960016132ed565b8151811061117b5761117b61329e565b60200260200101516001600160801b0316826001600160801b0316115b156114505760808a015182906111af8a60016132ed565b815181106111bf576111bf61329e565b60200260200101906001600160801b031690816001600160801b0316815250508585815181106111f1576111f161329e565b6020026020010151602001518a6020015189815181106112135761121361329e565b60200260200101906001600160a01b031690816001600160a01b0316815250508585815181106112455761124561329e565b60200260200101516000015161ffff168a60400151898151811061126b5761126b61329e565b60200260200101818152505060028a60600151898151811061128f5761128f61329e565b602002602001019060028111156112a8576112a86130e6565b908160028111156112bb576112bb6130e6565b8152505060008686815181106112d3576112d361329e565b6020026020010151602001516001600160a01b031663dbe65edc6040518163ffffffff1660e01b8152600401602060405180830381865afa15801561131c573d6000803e3d6000fd5b505050506040513d601f19601f8201168201806040525081019061134091906136af565b905061139c828c60a001518b8151811061135c5761135c61329e565b602002602001015161136e91906136d4565b6001600160801b0316828d604001518c8151811061138e5761138e61329e565b602002602001015188612a69565b60a08c01516113ac8b60016132ed565b815181106113bc576113bc61329e565b60200260200101906001600160801b031690816001600160801b0316815250508a6080015189815181106113f2576113f261329e565b602002602001015182670de0b6b3a764000061140e9190613322565b61141891906136fc565b8b60c001518a8151811061142e5761142e61329e565b60200260200101906001600160801b031690816001600160801b031681525050505b5050505b505b8061146081613574565b915050610f6a565b505b5050808061147790613574565b915050610458565b50509392505050565b6114c86040518060e00160405280606081526020016060815260200160608152602001606081526020016060815260200160608152602001606081525090565b60028310156114ea57604051632973c80b60e01b815260040160405180910390fd5b83838080602002602001604051908101604052809392919081815260200183836020028082843760009201829052509385525061152c91506001905085613271565b90508067ffffffffffffffff81111561154757611547613288565b604051908082528060200260200182016040528015611570578160200160208202803683370190505b5060208301528067ffffffffffffffff81111561158f5761158f613288565b6040519080825280602002602001820160405280156115b8578160200160208202803683370190505b5060408301528067ffffffffffffffff8111156115d7576115d7613288565b604051908082528060200260200182016040528015611600578160200160208202803683370190505b5060608301528067ffffffffffffffff81111561161f5761161f613288565b604051908082528060200260200182016040528015611648578160200160208202803683370190505b5060c08301528367ffffffffffffffff81111561166757611667613288565b604051908082528060200260200182016040528015611690578160200160208202803683370190505b5060808301528367ffffffffffffffff8111156116af576116af613288565b6040519080825280602002602001820160405280156116d8578160200160208202803683370190505b508260a0018190525082826080015182815181106116f8576116f861329e565b60200260200101906001600160801b031690816001600160801b031681525050828260a00151828151811061172f5761172f61329e565b6001600160801b0390921660209283029190910190910152805b801561147f576001600160a01b037f00000000000000000000000000000000000000000000000000000000000000001663e6a43905878761178b600186613271565b81811061179a5761179a61329e565b90506020020160208101906117af91906132c9565b8888858181106117c1576117c161329e565b90506020020160208101906117d691906132c9565b6040516001600160e01b031960e085901b1681526001600160a01b03928316600482015291166024820152604401602060405180830381865afa158015611821573d6000803e3d6000fd5b505050506040513d601f19601f820116820180604052508101906118459190613305565b6020840151611855600184613271565b815181106118655761186561329e565b6001600160a01b0390921660209283029190910182015283015160009061188d600184613271565b8151811061189d5761189d61329e565b60200260200101516001600160a01b0316141580156118e257506000836080015182815181106118cf576118cf61329e565b60200260200101516001600160801b0316115b15611b2e5760008061195c85602001516001856118ff9190613271565b8151811061190f5761190f61329e565b602002602001015189896001876119269190613271565b8181106119355761193561329e565b905060200201602081019061194a91906132c9565b8a8a8781811061064d5761064d61329e565b915091506000821180156119955750846080015183815181106119815761198161329e565b60200260200101516001600160801b031681115b15611b2b576119cb856080015184815181106119b3576119b361329e565b60200260200101516001600160801b03168383612aaf565b60808601516119db600186613271565b815181106119eb576119eb61329e565b60200260200101906001600160801b031690816001600160801b031681525050611a548560a001518481518110611a2457611a2461329e565b60200260200101516103e8611a399190613322565b6001600160801b0316611a4e836103e5613351565b84612a03565b611a5f9060016132ed565b60a0860151611a6f600186613271565b81518110611a7f57611a7f61329e565b6001600160801b039092166020928302919091019091015260c0850151660aa87bee53800090611ab0600186613271565b81518110611ac057611ac061329e565b6001600160801b03909216602092830291909101909101526060850151600090611aeb600186613271565b81518110611afb57611afb61329e565b60200260200101906002811115611b1457611b146130e6565b90816002811115611b2757611b276130e6565b9052505b50505b60006001600160a01b037f000000000000000000000000000000000000000000000000000000000000000016636622e0d78888611b6c600187613271565b818110611b7b57611b7b61329e565b9050602002016020810190611b9091906132c9565b898986818110611ba257611ba261329e565b9050602002016020810190611bb791906132c9565b6040516001600160e01b031960e085901b1681526001600160a01b03928316600482015291166024820152604401600060405180830381865afa158015611c02573d6000803e3d6000fd5b505050506040513d6000823e601f3d908101601f19168201604052611c2a9190810190613415565b905060008151118015611c635750600084608001518381518110611c5057611c5061329e565b60200260200101516001600160801b0316115b156121cd5760005b81518110156121cb57818181518110611c8657611c8661329e565b6020026020010151606001516121b9576000888885818110611caa57611caa61329e565b9050602002016020810190611cbf91906132c9565b6001600160a01b0316838381518110611cda57611cda61329e565b6020026020010151602001516001600160a01b031663b7d19fc46040518163ffffffff1660e01b8152600401602060405180830381865afa158015611d23573d6000803e3d6000fd5b505050506040513d601f19601f82011682018060405250810190611d479190613305565b6001600160a01b03161490507f00000000000000000000000000000000000000000000000000000000000000006001600160a01b0316635bdd4b7c848481518110611d9457611d9461329e565b60200260200101516020015188608001518781518110611db657611db661329e565b60209081029190910101516040516001600160e01b031960e085901b1681526001600160a01b0390921660048301526001600160801b0316602482015283151560448201526064016040805180830381865afa925050508015611e36575060408051601f3d908101601f19168201909252611e33918101906134f8565b60015b611e3f576121b7565b8115801590611eb757506080880151611e59600188613271565b81518110611e6957611e6961329e565b60200260200101516001600160801b0316821080611eb757506080880151611e92600188613271565b81518110611ea257611ea261329e565b60200260200101516001600160801b03166000145b156121b45760808801518290611ece600189613271565b81518110611ede57611ede61329e565b60200260200101906001600160801b031690816001600160801b031681525050848481518110611f1057611f1061329e565b6020026020010151602001518860200151600188611f2e9190613271565b81518110611f3e57611f3e61329e565b60200260200101906001600160a01b031690816001600160a01b031681525050848481518110611f7057611f7061329e565b60200260200101516000015161ffff168860400151600188611f929190613271565b81518110611fa257611fa261329e565b60209081029190910101526060880151600190611fbf8289613271565b81518110611fcf57611fcf61329e565b60200260200101906002811115611fe857611fe86130e6565b90816002811115611ffb57611ffb6130e6565b8152505060008585815181106120135761201361329e565b6020026020010151602001516001600160a01b0316631b05b83e6040518163ffffffff1660e01b8152600401606060405180830381865afa15801561205c573d6000803e3d6000fd5b505050506040513d601f19601f82011682018060405250810190612080919061351c565b92505050816120e18a60a00151898151811061209e5761209e61329e565b60200260200101516001600160801b0316838c6040015160018c6120c29190613271565b815181106120d2576120d261329e565b60200260200101518815612a69565b6120eb9190613722565b60a08a01516120fb60018a613271565b8151811061210b5761210b61329e565b6001600160801b03909216602092830291909101909101526080890151612133600189613271565b815181106121435761214361329e565b60200260200101516001600160801b031682670de0b6b3a76400006121689190613351565b6121729190613560565b60c08a015161218260018a613271565b815181106121925761219261329e565b60200260200101906001600160801b031690816001600160801b031681525050505b50505b505b806121c381613574565b915050611c6b565b505b60606001600160a01b037f000000000000000000000000000000000000000000000000000000000000000016636622e0d7898961220b600188613271565b81811061221a5761221a61329e565b905060200201602081019061222f91906132c9565b8a8a878181106122415761224161329e565b905060200201602081019061225691906132c9565b6040516001600160e01b031960e085901b1681526001600160a01b03928316600482015291166024820152604401600060405180830381865afa1580156122a1573d6000803e3d6000fd5b505050506040513d6000823e601f3d908101601f191682016040526122c9919081019061358f565b90506000815111801561230257506000856080015184815181106122ef576122ef61329e565b60200260200101516001600160801b0316115b156128895760005b8151811015612887578181815181106123255761232561329e565b6020026020010151606001516128755760008989868181106123495761234961329e565b905060200201602081019061235e91906132c9565b6001600160a01b03168383815181106123795761237961329e565b6020026020010151602001516001600160a01b031663da10610c6040518163ffffffff1660e01b8152600401602060405180830381865afa1580156123c2573d6000803e3d6000fd5b505050506040513d601f19601f820116820180604052508101906123e69190613305565b6001600160a01b03161490507f00000000000000000000000000000000000000000000000000000000000000006001600160a01b031663964f987c8484815181106124335761243361329e565b602002602001015160200151896080015188815181106124555761245561329e565b60209081029190910101516040516001600160e01b031960e085901b1681526001600160a01b0390921660048301526001600160801b031660248201528315156044820152606401606060405180830381865afa9250505080156124d6575060408051601f3d908101601f191682019092526124d39181019061366d565b60015b6124df57612873565b6001600160801b0382161580156124fe57506001600160801b03831615155b801561257c575060808a015161251560018a613271565b815181106125255761252561329e565b60200260200101516001600160801b0316836001600160801b0316108061257c575060808a015161255760018a613271565b815181106125675761256761329e565b60200260200101516001600160801b03166000145b1561286f5760808a0151839061259360018b613271565b815181106125a3576125a361329e565b60200260200101906001600160801b031690816001600160801b0316815250508585815181106125d5576125d561329e565b6020026020010151602001518a6020015160018a6125f39190613271565b815181106126035761260361329e565b60200260200101906001600160a01b031690816001600160a01b0316815250508585815181106126355761263561329e565b60200260200101516000015161ffff168a6040015160018a6126579190613271565b815181106126675761266761329e565b602090810291909101015260608a015160029061268560018b613271565b815181106126955761269561329e565b602002602001019060028111156126ae576126ae6130e6565b908160028111156126c1576126c16130e6565b8152505060008686815181106126d9576126d961329e565b6020026020010151602001516001600160a01b031663dbe65edc6040518163ffffffff1660e01b8152600401602060405180830381865afa158015612722573d6000803e3d6000fd5b505050506040513d601f19601f8201168201806040525081019061274691906136af565b9050816127a58c60a001518b815181106127625761276261329e565b60200260200101516001600160801b0316838e6040015160018e6127869190613271565b815181106127965761279661329e565b60200260200101518915612a69565b6127af9190613722565b60a08c01516127bf60018c613271565b815181106127cf576127cf61329e565b6001600160801b039092166020928302919091019091015260808b01516127f760018b613271565b815181106128075761280761329e565b602002602001015182670de0b6b3a76400006128239190613322565b61282d91906136fc565b60c08c015161283d60018c613271565b8151811061284d5761284d61329e565b60200260200101906001600160801b031690816001600160801b031681525050505b5050505b505b8061287f81613574565b91505061230a565b505b505080806128969061374d565b915050611749565b60008060006128ad8585612b4b565b509050600080876001600160a01b0316630902f1ac6040518163ffffffff1660e01b8152600401606060405180830381865afa1580156128f1573d6000803e3d6000fd5b505050506040513d601f19601f820116820180604052508101906129159190613782565b506dffffffffffffffffffffffffffff1691506dffffffffffffffffffffffffffff169150826001600160a01b0316876001600160a01b03161461295a57808261295d565b81815b90999098509650505050505050565b60008361298c5760405163b229ed3360e01b815260040160405180910390fd5b821580612997575081155b156129b5576040516398c59a2960e01b815260040160405180910390fd5b60006129c3856103e5613351565b905060006129d18483613351565b90506000826129e2876103e8613351565b6129ec91906132ed565b90506129f88183613560565b979650505050505050565b600083612a235760405163b229ed3360e01b815260040160405180910390fd5b821580612a2e575081155b15612a4c576040516398c59a2960e01b815260040160405180910390fd5b82612a578386613351565b612a619190613560565b949350505050565b60008115612a8f57612a88856080612a818787612bd7565b9190612c12565b9050612a61565b612aa66080612a9e8686612bd7565b879190612c7f565b95945050505050565b600083612acf5760405163b229ed3360e01b815260040160405180910390fd5b821580612ada575081155b15612af8576040516398c59a2960e01b815260040160405180910390fd5b6000612b048585613351565b612b10906103e8613351565b90506000612b1e8685613271565b612b2a906103e5613351565b9050612b368183613560565b612b419060016132ed565b9695505050505050565b600080826001600160a01b0316846001600160a01b03161415612b8157604051630df4665760e21b815260040160405180910390fd5b826001600160a01b0316846001600160a01b031610612ba1578284612ba4565b83835b90925090506001600160a01b038216612bd0576040516304cda58760e51b815260040160405180910390fd5b9250929050565b600061271071ffff00000000000000000000000000000000608084901b1604600160801b0162ffffff8416627fffff1901612aa68282612ca9565b6000806000612c218686612f0c565b9150915081600014612c37578360ff1682901c92505b801561147f57600160ff85161b8110612c6357604051638e471a8960e01b815260040160405180910390fd5b8360ff166101000361ffff1681901b8301925050509392505050565b600060ff831684811b9061ffff6101008290031686901c90612b419087906001901b868585612f2b565b6000808083612cc15750600160801b9150612f069050565b50826000811215612cd3579015906000035b62100000811015612ec357600160801b9250846001600160801b03811115612cfd57911591600019045b6001821615612d0e5792830260801c925b800260801c6002821615612d245792830260801c925b800260801c6004821615612d3a5792830260801c925b800260801c6008821615612d505792830260801c925b800260801c6010821615612d665792830260801c925b800260801c6020821615612d7c5792830260801c925b800260801c6040821615612d925792830260801c925b8002608090811c90821615612da95792830260801c925b800260801c610100821615612dc05792830260801c925b800260801c610200821615612dd75792830260801c925b800260801c610400821615612dee5792830260801c925b800260801c610800821615612e055792830260801c925b800260801c611000821615612e1c5792830260801c925b800260801c612000821615612e335792830260801c925b800260801c614000821615612e4a5792830260801c925b800260801c618000821615612e615792830260801c925b800260801c62010000821615612e795792830260801c925b800260801c62020000821615612e915792830260801c925b800260801c62040000821615612ea95792830260801c925b800260801c62080000821615612ec15792830260801c925b505b82612eef57604051631dba598d60e11b8152600481018690526024810185905260440160405180910390fd5b81612efa5782612aa6565b612aa683600019613560565b92915050565b6000806000198385098385029250828110838203039150509250929050565b600081612f4957838381612f4157612f4161354a565b049050612aa6565b838210612f69576040516313eae71560e01b815260040160405180910390fd5b600084868809600186198101871660008190038190049091018683119095039490940294038390049390931760029290940460038102831880820284030280820284030280820284030280820284030280820284030290810290920390910292909202949350505050565b6001600160801b0381168114612fe957600080fd5b50565b60008060006040848603121561300157600080fd5b833567ffffffffffffffff8082111561301957600080fd5b818601915086601f83011261302d57600080fd5b81358181111561303c57600080fd5b8760208260051b850101111561305157600080fd5b6020928301955093505084013561306781612fd4565b809150509250925092565b600081518084526020808501945080840160005b838110156130ab5781516001600160a01b031687529582019590820190600101613086565b509495945050505050565b600081518084526020808501945080840160005b838110156130ab578151875295820195908201906001016130ca565b634e487b7160e01b600052602160045260246000fd5b60008151808452602080850194508084016000805b848110156131495782516003811061313757634e487b7160e01b83526021600452602483fd5b88529683019691830191600101613111565b50959695505050505050565b600081518084526020808501945080840160005b838110156130ab5781516001600160801b031687529582019590820190600101613169565b602081526000825160e060208401526131ab610100840182613072565b90506020840151601f19808584030160408601526131c98383613072565b925060408601519150808584030160608601526131e683836130b6565b9250606086015191508085840301608086015261320383836130fc565b925060808601519150808584030160a08601526132208383613155565b925060a08601519150808584030160c086015261323d8383613155565b925060c08601519150808584030160e086015250612aa68282613155565b634e487b7160e01b600052601160045260246000fd5b6000828210156132835761328361325b565b500390565b634e487b7160e01b600052604160045260246000fd5b634e487b7160e01b600052603260045260246000fd5b6001600160a01b0381168114612fe957600080fd5b6000602082840312156132db57600080fd5b81356132e6816132b4565b9392505050565b600082198211156133005761330061325b565b500190565b60006020828403121561331757600080fd5b81516132e6816132b4565b60006001600160801b03808316818516818304811182151516156133485761334861325b565b02949350505050565b600081600019048311821515161561336b5761336b61325b565b500290565b6040516080810167ffffffffffffffff8111828210171561339357613393613288565b60405290565b604051601f8201601f1916810167ffffffffffffffff811182821017156133c2576133c2613288565b604052919050565b600067ffffffffffffffff8211156133e4576133e4613288565b5060051b60200190565b805161ffff8116811461340057600080fd5b919050565b8051801515811461340057600080fd5b6000602080838503121561342857600080fd5b825167ffffffffffffffff81111561343f57600080fd5b8301601f8101851361345057600080fd5b805161346361345e826133ca565b613399565b81815260079190911b8201830190838101908783111561348257600080fd5b928401925b828410156129f857608084890312156134a05760008081fd5b6134a8613370565b6134b1856133ee565b8152858501516134c0816132b4565b8187015260406134d1868201613405565b9082015260606134e2868201613405565b9082015282526080939093019290840190613487565b6000806040838503121561350b57600080fd5b505080516020909101519092909150565b60008060006060848603121561353157600080fd5b8351925060208401519150604084015190509250925092565b634e487b7160e01b600052601260045260246000fd5b60008261356f5761356f61354a565b500490565b60006000198214156135885761358861325b565b5060010190565b600060208083850312156135a257600080fd5b825167ffffffffffffffff8111156135b957600080fd5b8301601f810185136135ca57600080fd5b80516135d861345e826133ca565b81815260079190911b820183019083810190878311156135f757600080fd5b928401925b828410156129f857608084890312156136155760008081fd5b61361d613370565b613626856133ee565b815285850151613635816132b4565b818701526040613646868201613405565b908201526060613657868201613405565b90820152825260809390930192908401906135fc565b60008060006060848603121561368257600080fd5b835161368d81612fd4565b602085015190935061369e81612fd4565b604085015190925061306781612fd4565b6000602082840312156136c157600080fd5b815162ffffff811681146132e657600080fd5b60006001600160801b03838116908316818110156136f4576136f461325b565b039392505050565b60006001600160801b03808416806137165761371661354a565b92169190910492915050565b60006001600160801b038083168185168083038211156137445761374461325b565b01949350505050565b60008161375c5761375c61325b565b506000190190565b80516dffffffffffffffffffffffffffff8116811461340057600080fd5b60008060006060848603121561379757600080fd5b6137a084613764565b92506137ae60208501613764565b9150604084015163ffffffff8116811461306757600080fdfea2646970667358221220dec83329ca1864c031be822ff147f86cd9341d88d1c0558ed170690d28460f2464736f6c634300080a0033",
    "linkReferences": {}
  },
  "methodIdentifiers": {
    "findBestPathFromAmountIn(address[],uint128)": "0f902a40",
    "findBestPathFromAmountOut(address[],uint128)": "59214226",
    "getFactoryV1()": "07da8f57",
    "getFactoryV2()": "ca56fc72",
    "getLegacyFactoryV2()": "8fe4b3ad",
    "getLegacyRouterV2()": "23229d6d",
    "getRouterV2()": "33141d3e"
  },
  "id": 29
}