{
  "abi": [
    {
      "inputs": [
        {
          "internalType": "address",
          "name": "_feeRecipient",
          "type": "address"
        }
      ],
      "stateMutability": "nonpayable",
      "type": "constructor"
    },
    {
      "inputs": [
        {
          "internalType": "uint16",
          "name": "baseFactor",
          "type": "uint16"
        },
        {
          "internalType": "uint256",
          "name": "max",
          "type": "uint256"
        }
      ],
      "name": "LBFactory__BaseFactorOverflows",
      "type": "error"
    },
    {
      "inputs": [
        {
          "internalType": "uint256",
          "name": "baseFees",
          "type": "uint256"
        },
        {
          "internalType": "uint256",
          "name": "minBaseFees",
          "type": "uint256"
        }
      ],
      "name": "LBFactory__BaseFeesBelowMin",
      "type": "error"
    },
    {
      "inputs": [
        {
          "internalType": "uint256",
          "name": "binStep",
          "type": "uint256"
        }
      ],
      "name": "LBFactory__BinStepHasNoPreset",
      "type": "error"
    },
    {
      "inputs": [
        {
          "internalType": "uint256",
          "name": "lowerBound",
          "type": "uint256"
        },
        {
          "internalType": "uint16",
          "name": "binStep",
          "type": "uint16"
        },
        {
          "internalType": "uint256",
          "name": "higherBound",
          "type": "uint256"
        }
      ],
      "name": "LBFactory__BinStepRequirementsBreached",
      "type": "error"
    },
    {
      "inputs": [
        {
          "internalType": "uint16",
          "name": "filterPeriod",
          "type": "uint16"
        },
        {
          "internalType": "uint16",
          "name": "decayPeriod",
          "type": "uint16"
        }
      ],
      "name": "LBFactory__DecreasingPeriods",
      "type": "error"
    },
    {
      "inputs": [],
      "name": "LBFactory__FactoryHelperAlreadyInitialized",
      "type": "error"
    },
    {
      "inputs": [],
      "name": "LBFactory__FactoryLockIsAlreadyInTheSameState",
      "type": "error"
    },
    {
      "inputs": [
        {
          "internalType": "uint256",
          "name": "fees",
          "type": "uint256"
        },
        {
          "internalType": "uint256",
          "name": "maxFees",
          "type": "uint256"
        }
      ],
      "name": "LBFactory__FeesAboveMax",
      "type": "error"
    },
    {
      "inputs": [
        {
          "internalType": "address",
          "name": "user",
          "type": "address"
        }
      ],
      "name": "LBFactory__FunctionIsLockedForUsers",
      "type": "error"
    },
    {
      "inputs": [
        {
          "internalType": "contract IERC20",
          "name": "token",
          "type": "address"
        }
      ],
      "name": "LBFactory__IdenticalAddresses",
      "type": "error"
    },
    {
      "inputs": [
        {
          "internalType": "contract IERC20",
          "name": "tokenX",
          "type": "address"
        },
        {
          "internalType": "contract IERC20",
          "name": "tokenY",
          "type": "address"
        },
        {
          "internalType": "uint256",
          "name": "_binStep",
          "type": "uint256"
        }
      ],
      "name": "LBFactory__LBPairAlreadyExists",
      "type": "error"
    },
    {
      "inputs": [],
      "name": "LBFactory__LBPairBlacklistIsAlreadyInTheSameState",
      "type": "error"
    },
    {
      "inputs": [
        {
          "internalType": "uint16",
          "name": "protocolShare",
          "type": "uint16"
        },
        {
          "internalType": "uint256",
          "name": "max",
          "type": "uint256"
        }
      ],
      "name": "LBFactory__ProtocolShareOverflows",
      "type": "error"
    },
    {
      "inputs": [
        {
          "internalType": "uint16",
          "name": "reductionFactor",
          "type": "uint16"
        },
        {
          "internalType": "uint256",
          "name": "max",
          "type": "uint256"
        }
      ],
      "name": "LBFactory__ReductionFactorOverflows",
      "type": "error"
    },
    {
      "inputs": [
        {
          "internalType": "uint16",
          "name": "variableFeeControl",
          "type": "uint16"
        },
        {
          "internalType": "uint256",
          "name": "max",
          "type": "uint256"
        }
      ],
      "name": "LBFactory__VariableFeeControlOverflows",
      "type": "error"
    },
    {
      "inputs": [],
      "name": "LBFactory__ZeroAddress",
      "type": "error"
    },
    {
      "inputs": [],
      "name": "PendingOwnable__NoPendingOwner",
      "type": "error"
    },
    {
      "inputs": [],
      "name": "PendingOwnable__NotOwner",
      "type": "error"
    },
    {
      "inputs": [],
      "name": "PendingOwnable__NotPendingOwner",
      "type": "error"
    },
    {
      "inputs": [],
      "name": "PendingOwnable__PendingOwnerAlreadySet",
      "type": "error"
    },
    {
      "anonymous": false,
      "inputs": [
        {
          "indexed": false,
          "internalType": "bool",
          "name": "unlocked",
          "type": "bool"
        }
      ],
      "name": "FactoryLocked",
      "type": "event"
    },
    {
      "anonymous": false,
      "inputs": [
        {
          "indexed": false,
          "internalType": "address",
          "name": "sender",
          "type": "address"
        },
        {
          "indexed": true,
          "internalType": "contract ILBPair",
          "name": "LBPair",
          "type": "address"
        },
        {
          "indexed": false,
          "internalType": "uint256",
          "name": "binStep",
          "type": "uint256"
        },
        {
          "indexed": false,
          "internalType": "uint256",
          "name": "baseFactor",
          "type": "uint256"
        },
        {
          "indexed": false,
          "internalType": "uint256",
          "name": "filterPeriod",
          "type": "uint256"
        },
        {
          "indexed": false,
          "internalType": "uint256",
          "name": "decayPeriod",
          "type": "uint256"
        },
        {
          "indexed": false,
          "internalType": "uint256",
          "name": "reductionFactor",
          "type": "uint256"
        },
        {
          "indexed": false,
          "internalType": "uint256",
          "name": "variableFeeControl",
          "type": "uint256"
        },
        {
          "indexed": false,
          "internalType": "uint256",
          "name": "protocolShare",
          "type": "uint256"
        },
        {
          "indexed": false,
          "internalType": "uint256",
          "name": "maxAccumulator",
          "type": "uint256"
        }
      ],
      "name": "FeeParametersSet",
      "type": "event"
    },
    {
      "anonymous": false,
      "inputs": [
        {
          "indexed": false,
          "internalType": "address",
          "name": "oldRecipient",
          "type": "address"
        },
        {
          "indexed": false,
          "internalType": "address",
          "name": "newRecipient",
          "type": "address"
        }
      ],
      "name": "FeeRecipientChanged",
      "type": "event"
    },
    {
      "anonymous": false,
      "inputs": [
        {
          "indexed": false,
          "internalType": "contract ILBPair",
          "name": "LBPair",
          "type": "address"
        },
        {
          "indexed": false,
          "internalType": "bool",
          "name": "blacklist",
          "type": "bool"
        }
      ],
      "name": "LBPairBlacklistedStateChanged",
      "type": "event"
    },
    {
      "anonymous": false,
      "inputs": [
        {
          "indexed": true,
          "internalType": "contract IERC20",
          "name": "tokenX",
          "type": "address"
        },
        {
          "indexed": true,
          "internalType": "contract IERC20",
          "name": "tokenY",
          "type": "address"
        },
        {
          "indexed": false,
          "internalType": "contract ILBPair",
          "name": "LBPair",
          "type": "address"
        },
        {
          "indexed": false,
          "internalType": "uint256",
          "name": "pid",
          "type": "uint256"
        }
      ],
      "name": "LBPairCreated",
      "type": "event"
    },
    {
      "anonymous": false,
      "inputs": [
        {
          "indexed": true,
          "internalType": "address",
          "name": "previousOwner",
          "type": "address"
        },
        {
          "indexed": true,
          "internalType": "address",
          "name": "newOwner",
          "type": "address"
        }
      ],
      "name": "OwnershipTransferred",
      "type": "event"
    },
    {
      "anonymous": false,
      "inputs": [
        {
          "indexed": true,
          "internalType": "address",
          "name": "pendingOwner",
          "type": "address"
        }
      ],
      "name": "PendingOwnerSet",
      "type": "event"
    },
    {
      "anonymous": false,
      "inputs": [
        {
          "indexed": false,
          "internalType": "uint256",
          "name": "binStep",
          "type": "uint256"
        }
      ],
      "name": "PresetRemoved",
      "type": "event"
    },
    {
      "anonymous": false,
      "inputs": [
        {
          "indexed": true,
          "internalType": "uint256",
          "name": "binStep",
          "type": "uint256"
        },
        {
          "indexed": false,
          "internalType": "uint256",
          "name": "baseFactor",
          "type": "uint256"
        },
        {
          "indexed": false,
          "internalType": "uint256",
          "name": "filterPeriod",
          "type": "uint256"
        },
        {
          "indexed": false,
          "internalType": "uint256",
          "name": "decayPeriod",
          "type": "uint256"
        },
        {
          "indexed": false,
          "internalType": "uint256",
          "name": "reductionFactor",
          "type": "uint256"
        },
        {
          "indexed": false,
          "internalType": "uint256",
          "name": "variableFeeControl",
          "type": "uint256"
        },
        {
          "indexed": false,
          "internalType": "uint256",
          "name": "protocolShare",
          "type": "uint256"
        },
        {
          "indexed": false,
          "internalType": "uint256",
          "name": "maxAccumulator",
          "type": "uint256"
        },
        {
          "indexed": false,
          "internalType": "uint256",
          "name": "sampleLifetime",
          "type": "uint256"
        }
      ],
      "name": "PresetSet",
      "type": "event"
    },
    {
      "inputs": [],
      "name": "MAX_BIN_STEP",
      "outputs": [
        {
          "internalType": "uint256",
          "name": "",
          "type": "uint256"
        }
      ],
      "stateMutability": "view",
      "type": "function"
    },
    {
      "inputs": [],
      "name": "MAX_FEE",
      "outputs": [
        {
          "internalType": "uint256",
          "name": "",
          "type": "uint256"
        }
      ],
      "stateMutability": "view",
      "type": "function"
    },
    {
      "inputs": [],
      "name": "MAX_PROTOCOL_SHARE",
      "outputs": [
        {
          "internalType": "uint256",
          "name": "",
          "type": "uint256"
        }
      ],
      "stateMutability": "view",
      "type": "function"
    },
    {
      "inputs": [],
      "name": "MIN_BIN_STEP",
      "outputs": [
        {
          "internalType": "uint256",
          "name": "",
          "type": "uint256"
        }
      ],
      "stateMutability": "view",
      "type": "function"
    },
    {
      "inputs": [],
      "name": "MIN_FEE",
      "outputs": [
        {
          "internalType": "uint256",
          "name": "",
          "type": "uint256"
        }
      ],
      "stateMutability": "view",
      "type": "function"
    },
    {
      "inputs": [
        {
          "internalType": "uint256",
          "name": "",
          "type": "uint256"
        }
      ],
      "name": "allLBPairs",
      "outputs": [
        {
          "internalType": "contract ILBPair",
          "name": "",
          "type": "address"
        }
      ],
      "stateMutability": "view",
      "type": "function"
    },
    {
      "inputs": [],
      "name": "allPairsLength",
      "outputs": [
        {
          "internalType": "uint256",
          "name": "",
          "type": "uint256"
        }
      ],
      "stateMutability": "view",
      "type": "function"
    },
    {
      "inputs": [],
      "name": "becomeOwner",
      "outputs": [],
      "stateMutability": "nonpayable",
      "type": "function"
    },
    {
      "inputs": [
        {
          "internalType": "contract IERC20",
          "name": "_tokenX",
          "type": "address"
        },
        {
          "internalType": "contract IERC20",
          "name": "_tokenY",
          "type": "address"
        },
        {
          "internalType": "uint24",
          "name": "_activeId",
          "type": "uint24"
        },
        {
          "internalType": "uint16",
          "name": "_binStep",
          "type": "uint16"
        }
      ],
      "name": "createLBPair",
      "outputs": [
        {
          "internalType": "contract ILBPair",
          "name": "_LBPair",
          "type": "address"
        }
      ],
      "stateMutability": "nonpayable",
      "type": "function"
    },
    {
      "inputs": [],
      "name": "factoryHelper",
      "outputs": [
        {
          "internalType": "contract ILBFactoryHelper",
          "name": "",
          "type": "address"
        }
      ],
      "stateMutability": "view",
      "type": "function"
    },
    {
      "inputs": [],
      "name": "feeRecipient",
      "outputs": [
        {
          "internalType": "address",
          "name": "",
          "type": "address"
        }
      ],
      "stateMutability": "view",
      "type": "function"
    },
    {
      "inputs": [
        {
          "internalType": "contract IERC20",
          "name": "_tokenX",
          "type": "address"
        },
        {
          "internalType": "contract IERC20",
          "name": "_tokenY",
          "type": "address"
        }
      ],
      "name": "getAvailableLBPairsBinStep",
      "outputs": [
        {
          "components": [
            {
              "internalType": "uint256",
              "name": "binStep",
              "type": "uint256"
            },
            {
              "internalType": "contract ILBPair",
              "name": "LBPair",
              "type": "address"
            },
            {
              "internalType": "bool",
              "name": "createdByOwner",
              "type": "bool"
            },
            {
              "internalType": "bool",
              "name": "isBlacklisted",
              "type": "bool"
            }
          ],
          "internalType": "struct ILBFactory.LBPairAvailable[]",
          "name": "LBPairsAvailable",
          "type": "tuple[]"
        }
      ],
      "stateMutability": "view",
      "type": "function"
    },
    {
      "inputs": [],
      "name": "getAvailablePresetsBinStep",
      "outputs": [
        {
          "internalType": "uint256[]",
          "name": "presetsBinStep",
          "type": "uint256[]"
        }
      ],
      "stateMutability": "view",
      "type": "function"
    },
    {
      "inputs": [
        {
          "internalType": "contract IERC20",
          "name": "_tokenA",
          "type": "address"
        },
        {
          "internalType": "contract IERC20",
          "name": "_tokenB",
          "type": "address"
        },
        {
          "internalType": "uint256",
          "name": "_binStep",
          "type": "uint256"
        }
      ],
      "name": "getLBPairInfo",
      "outputs": [
        {
          "components": [
            {
              "internalType": "contract ILBPair",
              "name": "LBPair",
              "type": "address"
            },
            {
              "internalType": "bool",
              "name": "createdByOwner",
              "type": "bool"
            },
            {
              "internalType": "bool",
              "name": "isBlacklisted",
              "type": "bool"
            }
          ],
          "internalType": "struct ILBFactory.LBPairInfo",
          "name": "",
          "type": "tuple"
        }
      ],
      "stateMutability": "view",
      "type": "function"
    },
    {
      "inputs": [
        {
          "internalType": "uint16",
          "name": "_binStep",
          "type": "uint16"
        }
      ],
      "name": "getPreset",
      "outputs": [
        {
          "internalType": "uint256",
          "name": "baseFactor",
          "type": "uint256"
        },
        {
          "internalType": "uint256",
          "name": "filterPeriod",
          "type": "uint256"
        },
        {
          "internalType": "uint256",
          "name": "decayPeriod",
          "type": "uint256"
        },
        {
          "internalType": "uint256",
          "name": "reductionFactor",
          "type": "uint256"
        },
        {
          "internalType": "uint256",
          "name": "variableFeeControl",
          "type": "uint256"
        },
        {
          "internalType": "uint256",
          "name": "protocolShare",
          "type": "uint256"
        },
        {
          "internalType": "uint256",
          "name": "maxAccumulator",
          "type": "uint256"
        },
        {
          "internalType": "uint256",
          "name": "sampleLifetime",
          "type": "uint256"
        }
      ],
      "stateMutability": "view",
      "type": "function"
    },
    {
      "inputs": [],
      "name": "owner",
      "outputs": [
        {
          "internalType": "address",
          "name": "",
          "type": "address"
        }
      ],
      "stateMutability": "view",
      "type": "function"
    },
    {
      "inputs": [],
      "name": "pendingOwner",
      "outputs": [
        {
          "internalType": "address",
          "name": "",
          "type": "address"
        }
      ],
      "stateMutability": "view",
      "type": "function"
    },
    {
      "inputs": [
        {
          "internalType": "uint16",
          "name": "_binStep",
          "type": "uint16"
        }
      ],
      "name": "removePreset",
      "outputs": [],
      "stateMutability": "nonpayable",
      "type": "function"
    },
    {
      "inputs": [],
      "name": "renounceOwnership",
      "outputs": [],
      "stateMutability": "nonpayable",
      "type": "function"
    },
    {
      "inputs": [],
      "name": "revokePendingOwner",
      "outputs": [],
      "stateMutability": "nonpayable",
      "type": "function"
    },
    {
      "inputs": [],
      "name": "setFactoryHelper",
      "outputs": [],
      "stateMutability": "nonpayable",
      "type": "function"
    },
    {
      "inputs": [
        {
          "internalType": "bool",
          "name": "_locked",
          "type": "bool"
        }
      ],
      "name": "setFactoryLocked",
      "outputs": [],
      "stateMutability": "nonpayable",
      "type": "function"
    },
    {
      "inputs": [
        {
          "internalType": "address",
          "name": "_feeRecipient",
          "type": "address"
        }
      ],
      "name": "setFeeRecipient",
      "outputs": [],
      "stateMutability": "nonpayable",
      "type": "function"
    },
    {
      "inputs": [
        {
          "internalType": "contract IERC20",
          "name": "_tokenX",
          "type": "address"
        },
        {
          "internalType": "contract IERC20",
          "name": "_tokenY",
          "type": "address"
        },
        {
          "internalType": "uint8",
          "name": "_binStep",
          "type": "uint8"
        },
        {
          "internalType": "uint8",
          "name": "_baseFactor",
          "type": "uint8"
        },
        {
          "internalType": "uint16",
          "name": "_filterPeriod",
          "type": "uint16"
        },
        {
          "internalType": "uint16",
          "name": "_decayPeriod",
          "type": "uint16"
        },
        {
          "internalType": "uint8",
          "name": "_reductionFactor",
          "type": "uint8"
        },
        {
          "internalType": "uint8",
          "name": "_variableFeeControl",
          "type": "uint8"
        },
        {
          "internalType": "uint8",
          "name": "_protocolShare",
          "type": "uint8"
        },
        {
          "internalType": "uint72",
          "name": "_maxAccumulator",
          "type": "uint72"
        }
      ],
      "name": "setFeesParametersOnPair",
      "outputs": [],
      "stateMutability": "nonpayable",
      "type": "function"
    },
    {
      "inputs": [
        {
          "internalType": "contract IERC20",
          "name": "_tokenX",
          "type": "address"
        },
        {
          "internalType": "contract IERC20",
          "name": "_tokenY",
          "type": "address"
        },
        {
          "internalType": "uint256",
          "name": "_binStep",
          "type": "uint256"
        },
        {
          "internalType": "bool",
          "name": "_blacklisted",
          "type": "bool"
        }
      ],
      "name": "setLBPairBlacklist",
      "outputs": [],
      "stateMutability": "nonpayable",
      "type": "function"
    },
    {
      "inputs": [
        {
          "internalType": "address",
          "name": "pendingOwner_",
          "type": "address"
        }
      ],
      "name": "setPendingOwner",
      "outputs": [],
      "stateMutability": "nonpayable",
      "type": "function"
    },
    {
      "inputs": [
        {
          "internalType": "uint8",
          "name": "_binStep",
          "type": "uint8"
        },
        {
          "internalType": "uint8",
          "name": "_baseFactor",
          "type": "uint8"
        },
        {
          "internalType": "uint16",
          "name": "_filterPeriod",
          "type": "uint16"
        },
        {
          "internalType": "uint16",
          "name": "_decayPeriod",
          "type": "uint16"
        },
        {
          "internalType": "uint8",
          "name": "_reductionFactor",
          "type": "uint8"
        },
        {
          "internalType": "uint8",
          "name": "_variableFeeControl",
          "type": "uint8"
        },
        {
          "internalType": "uint8",
          "name": "_protocolShare",
          "type": "uint8"
        },
        {
          "internalType": "uint72",
          "name": "_maxAccumulator",
          "type": "uint72"
        },
        {
          "internalType": "uint8",
          "name": "_sampleLifetime",
          "type": "uint8"
        }
      ],
      "name": "setPreset",
      "outputs": [],
      "stateMutability": "nonpayable",
      "type": "function"
    },
    {
      "inputs": [],
      "name": "unlocked",
      "outputs": [
        {
          "internalType": "bool",
          "name": "",
          "type": "bool"
        }
      ],
      "stateMutability": "view",
      "type": "function"
    }
  ],
  "bytecode": {
    "object": "0x60806040523480156200001157600080fd5b506040516200206238038062002062833981016040819052620000349162000134565b6200003f3362000051565b6200004a81620000ab565b5062000166565b600080546001600160a01b038381166001600160a01b031980841682178555600180549091169055604051919092169283917f8be0079c531659141344cd1fd0a4f28419497f9722a3daafe3b4186f6b6457e09190a35050565b6001600160a01b038116620000d357604051631a9a557b60e11b815260040160405180910390fd5b600380546001600160a01b038381166001600160a01b031983168117909355604080519190921680825260208201939093527f0bc21fe5c3ab742ff1d15b5c4477ffbacf1167e618228078fa625edebe7f331d910160405180910390a15050565b6000602082840312156200014757600080fd5b81516001600160a01b03811681146200015f57600080fd5b9392505050565b611eec80620001766000396000f3fe608060405234801561001057600080fd5b50600436106101c45760003560e01c80637df880e3116100f9578063c42069ec11610097578063e30c397811610071578063e30c3978146103f3578063e74b981b14610404578063f9dca98914610417578063fd53f53b1461041f57600080fd5b8063c42069ec146103ba578063c5f82d4e146103cd578063e203a31f146103e057600080fd5b8063a931208f116100d3578063a931208f1461037b578063b12cf81214610383578063b131bba41461038b578063bc063e1a146103ab57600080fd5b80637df880e3146103145780638da5cb5b1461031c578063935ea51b1461032d57600080fd5b8063659ac74b11610166578063715018a611610140578063715018a6146102aa57806372e47b8c146102b257806376c7a3c7146102c55780637dcfe67c146102d257600080fd5b8063659ac74b1461026b57806367ab8a4e1461027e5780636a5e26501461028657600080fd5b8063346ffe7a116101a2578063346ffe7a146102125780634690484014610225578063490edc4914610250578063574f2ba31461026357600080fd5b80630a477048146101c95780630c8105a9146101e757806310e9ec4a146101fc575b600080fd5b6101d1610432565b6040516101de9190611cb6565b60405180910390f35b6101fa6101f5366004611951565b6104de565b005b610204606481565b6040519081526020016101de565b6101fa610220366004611b9d565b6105ac565b600354610238906001600160a01b031681565b6040516001600160a01b0390911681526020016101de565b6101fa61025e366004611a8e565b6106d5565b600454610204565b6102386102793660046119a5565b61080f565b6101fa610d86565b60035461029a90600160a01b900460ff1681565b60405190151581526020016101de565b6101fa610de6565b6102386102c0366004611b84565b610e1b565b610204655af3107a400081565b6102e56102e0366004611a07565b610e45565b6040805182516001600160a01b03168152602080840151151590820152918101511515908201526060016101de565b610204600181565b6000546001600160a01b0316610238565b61034061033b366004611b69565b610e75565b604080519889526020890197909752958701949094526060860192909252608085015260a084015260c083015260e0820152610100016101de565b610204601981565b6101fa610f14565b61039e61039936600461196c565b610f52565b6040516101de9190611c45565b61020467016345785d8a000081565b6101fa6103c836600461192d565b6110ed565b6101fa6103db366004611a48565b61114e565b6101fa6103ee366004611b69565b6112b2565b6001546001600160a01b0316610238565b6101fa61041236600461192d565b611390565b6101fa6113c4565b600254610238906001600160a01b031681565b60065460609060f881901c8067ffffffffffffffff81111561045657610456611e8b565b60405190808252806020026020018201604052801561047f578160200160208202803683370190505b509250600060015b606481116104d75783811c600116600114156104cf57808583815181106104b0576104b0611e75565b602002602001018181525050828260010192508214156104cf576104d7565b600101610487565b5050505090565b6000546001600160a01b0316331461050957604051639f216c1360e01b815260040160405180910390fd5b60035460ff600160a01b9091041615158115141561053a576040516302dbbca560e21b815260040160405180910390fd5b60038054600160a01b8315027fffffffffffffffffffffff00ffffffffffffffffffffffffffffffffffffffff9091161790556040517f3651bba2f06e0d5eba8eb0dbc180a8f6ea63d7ed3e4e7157b028bf89847c7e99906105a190831515815260200190565b60405180910390a150565b6000546001600160a01b031633146105d757604051639f216c1360e01b815260040160405180910390fd5b60006105e98a8a8a8a8a8a8a8a611403565b9050600061060160ff60f01b60f085901b1683611cfa565b60ff8c16600081815260086020526040902082905560065491925081901c60011661064457600160ff8d161b1761063c81600160f81b611cfa565b600681905590505b6040805160ff8d8116825261ffff808e1660208401528c16928201929092528982166060820152888216608082015287821660a082015268ffffffffffffffffff871660c082015285821660e0820152908d16907f2f6cfdcc0e02e7355350f527dd3b5a957787b96f231165e48a3fdf90332a40cb90610100015b60405180910390a2505050505050505050505050565b6000546001600160a01b0316331461070057604051639f216c1360e01b815260040160405180910390fd5b60006107108b8b8b60ff166116f8565b51905060006107258a8a8a8a8a8a8a8a611403565b6040516354b5fc8760e01b8152600481018290529091506001600160a01b038316906354b5fc8790602401600060405180830381600087803b15801561076a57600080fd5b505af115801561077e573d6000803e3d6000fd5b50506040805133815260ff808f166020830152808e169282019290925261ffff808d1660608301528b166080820152818a1660a082015281891660c082015290871660e082015268ffffffffffffffffff86166101008201526001600160a01b03851692507f63a7af39b7b68b9c3f2dfe93e5f32d9faecb4c6c98733bb608f757e62f816c0d9150610120016106bf565b6000806108246000546001600160a01b031690565b600354909150600160a01b900460ff1615801561084a5750336001600160a01b03821614155b1561086e57604051627487d360e71b81523360048201526024015b60405180910390fd5b846001600160a01b0316866001600160a01b031614156108ac57604051632f9b185360e01b81526001600160a01b0387166004820152602401610865565b6001600160a01b03861615806108c957506001600160a01b038516155b156108e757604051631a9a557b60e11b815260040160405180910390fd5b6000806108f4888861178e565b6001600160a01b0380831660009081526005602090815260408083208486168452825280832061ffff8c16845290915290205492945090925016156109695760405163cb27a43560e01b81526001600160a01b03808a1660048301528816602482015261ffff86166044820152606401610865565b61ffff8516600090815260086020526040902054806109a157604051637d9160bf60e11b815261ffff87166004820152602401610865565b600060f082901c600254604080516001600160a01b038e811660208301528d81169282019290925261ffff8b16606082015271ffffffffffffffffffffffffffffffffffff95909516949293501690633b696140908c908c9060800160408051808303601f1901815290829052805160209091012060e085901b7fffffffff000000000000000000000000000000000000000000000000000000001682526001600160a01b039384166004830152919092166024830152604482015262ffffff8b16606482015261ffff8416608482015260a4810185905260c401602060405180830381600087803b158015610a9657600080fd5b505af1158015610aaa573d6000803e3d6000fd5b505050506040513d601f19601f82011682018060405250810190610ace9190611b4c565b6040516363deb2c360e11b8152600260048201529096506001600160a01b0387169063c7bd658690602401600060405180830381600087803b158015610b1357600080fd5b505af1158015610b27573d6000803e3d6000fd5b505050506040518060600160405280876001600160a01b03168152602001866001600160a01b0316336001600160a01b031614151581526020016000151581525060056000866001600160a01b03166001600160a01b031681526020019081526020016000206000856001600160a01b03166001600160a01b0316815260200190815260200160002060008961ffff16815260200190815260200160002060008201518160000160006101000a8154816001600160a01b0302191690836001600160a01b0316021790555060208201518160000160146101000a81548160ff02191690831515021790555060408201518160000160156101000a81548160ff0219169083151502179055509050506004869080600181540180825580915050600190039060005260206000200160009091909190916101000a8154816001600160a01b0302191690836001600160a01b03160217905550600060076000866001600160a01b03166001600160a01b031681526020019081526020016000206000856001600160a01b03166001600160a01b031681526020019081526020016000205490508761ffff166001901b8160001c1760001b90508060001c600160f81b610cf19190611cfa565b6001600160a01b03808716600090815260076020908152604080832089851684529091529020919091556004548b82169250908c16907f612fdd9b533d1ca33088dcbca9ad3186eeadc9893e63715b8a783040d729cd6a908990610d5790600190611e21565b604080516001600160a01b03909316835260208301919091520160405180910390a35050505050949350505050565b6000546001600160a01b03163314610db157604051639f216c1360e01b815260040160405180910390fd5b6001546001600160a01b0316610dda5760405163ecfad6bf60e01b815260040160405180910390fd5b610de460006117b7565b565b6000546001600160a01b03163314610e1157604051639f216c1360e01b815260040160405180910390fd5b610de46000611801565b60048181548110610e2b57600080fd5b6000918252602090912001546001600160a01b0316905081565b6040805160608101825260008082526020820181905291810191909152610e6d8484846116f8565b949350505050565b61ffff8116600090815260086020526040812054819081908190819081908190819080610ebb57604051637d9160bf60e11b815261ffff8b166004820152602401610865565b60ff600882901c81169b61ffff601084901c81169c50602084901c169a50603083901c82169950603883901c82169850604083901c909116965068ffffffffffffffffff604883901c16955060f09190911c9350915050565b6002546001600160a01b031615610f3e576040516315d3b91d60e01b815260040160405180910390fd5b600280546001600160a01b03191633179055565b6060610f5e838361178e565b6001600160a01b03828116600090815260076020908152604080832093851683529290522054919450925060f881901c8067ffffffffffffffff811115610fa757610fa7611e8b565b604051908082528060200260200182016040528015610ff957816020015b604080516080810182526000808252602080830182905292820181905260608201528252600019909201910181610fc55790505b509250600060015b606481116110e35783811c600116600114156110db576001600160a01b0380881660009081526005602090815260408083208a8516845282528083208584528252918290208251606080820185529154808616825260ff600160a01b820481161515838601908152600160a81b909204161515828601908152855160808101875288815283519097169487019490945251151593850193909352905115159083015286519091908790859081106110ba576110ba611e75565b6020026020010181905250838360010193508314156110d957506110e3565b505b600101611001565b5050505092915050565b6000546001600160a01b0316331461111857604051639f216c1360e01b815260040160405180910390fd5b6001546001600160a01b0316156111425760405163716b1fbf60e01b815260040160405180910390fd5b61114b816117b7565b50565b6000546001600160a01b0316331461117957604051639f216c1360e01b815260040160405180910390fd5b611183848461178e565b6001600160a01b0380831660009081526005602090815260408083208486168452825280832088845282529182902082516060810184529054938416815260ff600160a01b85048116151592820192909252600160a81b90930416151590820181905292965090945090821515141561120f57604051636e7bb4fb60e11b815260040160405180910390fd5b6001600160a01b0385811660009081526005602090815260408083208885168452825280832087845282529182902080547fffffffffffffffffffff00ffffffffffffffffffffffffffffffffffffffffff16600160a81b871515908102919091179091558451835194168452908301527f2aaa34007d7e227c988c08b56306277cf128c4eca68dfa2e303599eaff0e8b45910160405180910390a15050505050565b6000546001600160a01b031633146112dd57604051639f216c1360e01b815260040160405180910390fd5b61ffff811660009081526008602052604090205461131457604051637d9160bf60e11b815261ffff82166004820152602401610865565b60065461132a600161ffff84161b600019611e21565b16611339600160f81b82611e21565b600681905561ffff831660008181526008602090815260408083209290925590519182529192507fdd86b848bb56ff540caa68683fa467d0e7eb5f8b2d44e4ee435742eeeae9be1391015b60405180910390a15050565b6000546001600160a01b031633146113bb57604051639f216c1360e01b815260040160405180910390fd5b61114b8161185b565b6001546001600160a01b0316331415806113dc575033155b156113fa57604051633982680960e11b815260040160405180910390fd5b610de433611801565b600060018960ff16108061141a575060648960ff16115b1561144b57604051634f95635f60e11b81526001600482015260ff8a16602482015260646044820181905201610865565b60648860ff16111561147c57604051633654d88d60e01b815260ff8916600482015260646024820152604401610865565b8561ffff168761ffff16106114b25760405163744d432160e11b815261ffff808916600483015287166024820152604401610865565b60648560ff1611156114e35760405163632afa6960e11b815260ff8616600482015260646024820152604401610865565b60648460ff16111561151457604051633441b8e360e21b815260ff8516600482015260646024820152604401610865565b60198360ff16111561154557604051630d0ada2960e41b815260ff8416600482015260196024820152604401610865565b600061155760ff808c16908b16611e02565b6115669064e8d4a51000611e02565b9050655af3107a400081101561159e576040516346abca4760e11b815260048101829052655af3107a40006024820152604401610865565b60008560ff1660028c60ff168668ffffffffffffffffff166115c09190611e02565b6115ca9190611d55565b6115d49190611e02565b905067016345785d8a00006115e98284611cfa565b1115611624576115f98183611cfa565b604051633fb210a760e21b8152600481019190915267016345785d8a00006024820152604401610865565b50506040805171ffffffffffffffffff000000000000000000604885901b1660208201527fff0000000000000000000000000000000000000000000000000000000000000060f886811b8216603784015287811b8216603884015288811b821660398401527fffff00000000000000000000000000000000000000000000000000000000000060f08b811b8216603a8601528c901b16603c8401528b811b8216603e8401528c901b16603f820152016040516020818303038152906040526116eb90611e38565b9998505050505050505050565b604080516060810182526000808252602082018190529181019190915261171f848461178e565b6001600160a01b0380831660009081526005602090815260408083208486168452825280832088845282529182902082516060810184529054938416815260ff600160a01b85048116151592820192909252600160a81b90930416151590820152919550935090509392505050565b600080826001600160a01b0316846001600160a01b031611156117af579192915b509192909150565b600180546001600160a01b0319166001600160a01b0383169081179091556040517f68f49b346b94582a8b5f9d10e3fe3365318fe8f191ff8dce7c59c6cad06b02f590600090a250565b600080546001600160a01b038381166001600160a01b031980841682178555600180549091169055604051919092169283917f8be0079c531659141344cd1fd0a4f28419497f9722a3daafe3b4186f6b6457e09190a35050565b6001600160a01b03811661188257604051631a9a557b60e11b815260040160405180910390fd5b600380546001600160a01b038381166001600160a01b031983168117909355604080519190921680825260208201939093527f0bc21fe5c3ab742ff1d15b5c4477ffbacf1167e618228078fa625edebe7f331d9101611384565b803580151581146118ec57600080fd5b919050565b803561ffff811681146118ec57600080fd5b803568ffffffffffffffffff811681146118ec57600080fd5b803560ff811681146118ec57600080fd5b60006020828403121561193f57600080fd5b813561194a81611ea1565b9392505050565b60006020828403121561196357600080fd5b61194a826118dc565b6000806040838503121561197f57600080fd5b823561198a81611ea1565b9150602083013561199a81611ea1565b809150509250929050565b600080600080608085870312156119bb57600080fd5b84356119c681611ea1565b935060208501356119d681611ea1565b9250604085013562ffffff811681146119ee57600080fd5b91506119fc606086016118f1565b905092959194509250565b600080600060608486031215611a1c57600080fd5b8335611a2781611ea1565b92506020840135611a3781611ea1565b929592945050506040919091013590565b60008060008060808587031215611a5e57600080fd5b8435611a6981611ea1565b93506020850135611a7981611ea1565b9250604085013591506119fc606086016118dc565b6000806000806000806000806000806101408b8d031215611aae57600080fd5b8a35611ab981611ea1565b995060208b0135611ac981611ea1565b9850611ad760408c0161191c565b9750611ae560608c0161191c565b9650611af360808c016118f1565b9550611b0160a08c016118f1565b9450611b0f60c08c0161191c565b9350611b1d60e08c0161191c565b9250611b2c6101008c0161191c565b9150611b3b6101208c01611903565b90509295989b9194979a5092959850565b600060208284031215611b5e57600080fd5b815161194a81611ea1565b600060208284031215611b7b57600080fd5b61194a826118f1565b600060208284031215611b9657600080fd5b5035919050565b60008060008060008060008060006101208a8c031215611bbc57600080fd5b611bc58a61191c565b9850611bd360208b0161191c565b9750611be160408b016118f1565b9650611bef60608b016118f1565b9550611bfd60808b0161191c565b9450611c0b60a08b0161191c565b9350611c1960c08b0161191c565b9250611c2760e08b01611903565b9150611c366101008b0161191c565b90509295985092959850929598565b602080825282518282018190526000919060409081850190868401855b82811015611ca957815180518552868101516001600160a01b0316878601528581015115158686015260609081015115159085015260809093019290850190600101611c62565b5091979650505050505050565b6020808252825182820181905260009190848201906040850190845b81811015611cee57835183529284019291840191600101611cd2565b50909695505050505050565b60008219821115611d0d57611d0d611e5f565b500190565b600181815b80851115611d4d578160001904821115611d3357611d33611e5f565b80851615611d4057918102915b93841c9390800290611d17565b509250929050565b600061194a60ff841683600082611d6e57506001611dfc565b81611d7b57506000611dfc565b8160018114611d915760028114611d9b57611db7565b6001915050611dfc565b60ff841115611dac57611dac611e5f565b50506001821b611dfc565b5060208310610133831016604e8410600b8410161715611dda575081810a611dfc565b611de48383611d12565b8060001904821115611df857611df8611e5f565b0290505b92915050565b6000816000190483118215151615611e1c57611e1c611e5f565b500290565b600082821015611e3357611e33611e5f565b500390565b80516020808301519190811015611e59576000198160200360031b1b821691505b50919050565b634e487b7160e01b600052601160045260246000fd5b634e487b7160e01b600052603260045260246000fd5b634e487b7160e01b600052604160045260246000fd5b6001600160a01b038116811461114b57600080fdfea2646970667358221220dec366eb79bb1d1791e21f7d30071467a678ef112154939936097af878cea78b64736f6c63430008070033",
    "linkReferences": {}
  },
  "methodIdentifiers": {
    "MAX_BIN_STEP()": "10e9ec4a",
    "MAX_FEE()": "bc063e1a",
    "MAX_PROTOCOL_SHARE()": "a931208f",
    "MIN_BIN_STEP()": "7df880e3",
    "MIN_FEE()": "76c7a3c7",
    "allLBPairs(uint256)": "72e47b8c",
    "allPairsLength()": "574f2ba3",
    "becomeOwner()": "f9dca989",
    "createLBPair(address,address,uint24,uint16)": "659ac74b",
    "factoryHelper()": "fd53f53b",
    "feeRecipient()": "46904840",
    "getAvailableLBPairsBinStep(address,address)": "b131bba4",
    "getAvailablePresetsBinStep()": "0a477048",
    "getLBPairInfo(address,address,uint256)": "7dcfe67c",
    "getPreset(uint16)": "935ea51b",
    "owner()": "8da5cb5b",
    "pendingOwner()": "e30c3978",
    "removePreset(uint16)": "e203a31f",
    "renounceOwnership()": "715018a6",
    "revokePendingOwner()": "67ab8a4e",
    "setFactoryHelper()": "b12cf812",
    "setFactoryLocked(bool)": "0c8105a9",
    "setFeeRecipient(address)": "e74b981b",
    "setFeesParametersOnPair(address,address,uint8,uint8,uint16,uint16,uint8,uint8,uint8,uint72)": "490edc49",
    "setLBPairBlacklist(address,address,uint256,bool)": "c5f82d4e",
    "setPendingOwner(address)": "c42069ec",
    "setPreset(uint8,uint8,uint16,uint16,uint8,uint8,uint8,uint72,uint8)": "346ffe7a",
    "unlocked()": "6a5e2650"
  },
  "id": 17
}