{
  "abi": [
    {
      "inputs": [
        {
          "internalType": "contract ILBFactory",
          "name": "_factory",
          "type": "address"
        },
        {
          "internalType": "contract IERC20",
          "name": "_tokenX",
          "type": "address"
        },
        {
          "internalType": "contract IERC20",
          "name": "_tokenY",
          "type": "address"
        },
        {
          "internalType": "uint24",
          "name": "_activeId",
          "type": "uint24"
        },
        {
          "internalType": "uint16",
          "name": "_sampleLifetime",
          "type": "uint16"
        },
        {
          "internalType": "bytes32",
          "name": "_packedFeeParameters",
          "type": "bytes32"
        }
      ],
      "stateMutability": "nonpayable",
      "type": "constructor"
    },
    {
      "inputs": [],
      "name": "LBPair__BrokenSwapSafetyCheck",
      "type": "error"
    },
    {
      "inputs": [
        {
          "internalType": "uint256",
          "name": "id",
          "type": "uint256"
        }
      ],
      "name": "LBPair__CompositionFactorFlawed",
      "type": "error"
    },
    {
      "inputs": [],
      "name": "LBPair__DistributionsOverflow",
      "type": "error"
    },
    {
      "inputs": [
        {
          "internalType": "uint256",
          "name": "expectedBalance",
          "type": "uint256"
        },
        {
          "internalType": "uint256",
          "name": "balance",
          "type": "uint256"
        }
      ],
      "name": "LBPair__FlashLoanUnderflow",
      "type": "error"
    },
    {
      "inputs": [],
      "name": "LBPair__InsufficientAmounts",
      "type": "error"
    },
    {
      "inputs": [
        {
          "internalType": "uint256",
          "name": "id",
          "type": "uint256"
        }
      ],
      "name": "LBPair__InsufficientLiquidityBurned",
      "type": "error"
    },
    {
      "inputs": [
        {
          "internalType": "uint256",
          "name": "id",
          "type": "uint256"
        }
      ],
      "name": "LBPair__InsufficientLiquidityMinted",
      "type": "error"
    },
    {
      "inputs": [],
      "name": "LBPair__OnlyFactory",
      "type": "error"
    },
    {
      "inputs": [
        {
          "internalType": "address",
          "name": "feeRecipient",
          "type": "address"
        },
        {
          "internalType": "address",
          "name": "sender",
          "type": "address"
        }
      ],
      "name": "LBPair__OnlyFeeRecipient",
      "type": "error"
    },
    {
      "inputs": [],
      "name": "LBPair__OnlyStrictlyIncreasingId",
      "type": "error"
    },
    {
      "inputs": [],
      "name": "LBPair__WrongLengths",
      "type": "error"
    },
    {
      "inputs": [
        {
          "internalType": "address",
          "name": "from",
          "type": "address"
        },
        {
          "internalType": "uint256",
          "name": "id",
          "type": "uint256"
        },
        {
          "internalType": "uint256",
          "name": "amount",
          "type": "uint256"
        }
      ],
      "name": "LBToken__BurnExceedsBalance",
      "type": "error"
    },
    {
      "inputs": [],
      "name": "LBToken__BurnFromAddress0",
      "type": "error"
    },
    {
      "inputs": [
        {
          "internalType": "uint256",
          "name": "accountsLength",
          "type": "uint256"
        },
        {
          "internalType": "uint256",
          "name": "idsLength",
          "type": "uint256"
        }
      ],
      "name": "LBToken__LengthMismatch",
      "type": "error"
    },
    {
      "inputs": [],
      "name": "LBToken__MintToAddress0",
      "type": "error"
    },
    {
      "inputs": [
        {
          "internalType": "address",
          "name": "owner",
          "type": "address"
        }
      ],
      "name": "LBToken__SelfApproval",
      "type": "error"
    },
    {
      "inputs": [
        {
          "internalType": "address",
          "name": "owner",
          "type": "address"
        },
        {
          "internalType": "address",
          "name": "spender",
          "type": "address"
        }
      ],
      "name": "LBToken__SpenderNotApproved",
      "type": "error"
    },
    {
      "inputs": [
        {
          "internalType": "address",
          "name": "from",
          "type": "address"
        },
        {
          "internalType": "uint256",
          "name": "id",
          "type": "uint256"
        },
        {
          "internalType": "uint256",
          "name": "amount",
          "type": "uint256"
        }
      ],
      "name": "LBToken__TransferExceedsBalance",
      "type": "error"
    },
    {
      "inputs": [],
      "name": "LBToken__TransferFromOrToAddress0",
      "type": "error"
    },
    {
      "inputs": [
        {
          "internalType": "uint256",
          "name": "x",
          "type": "uint256"
        },
        {
          "internalType": "int256",
          "name": "y",
          "type": "int256"
        }
      ],
      "name": "Math128x128__PowerUnderflow",
      "type": "error"
    },
    {
      "inputs": [
        {
          "internalType": "uint256",
          "name": "prod1",
          "type": "uint256"
        },
        {
          "internalType": "uint256",
          "name": "denominator",
          "type": "uint256"
        }
      ],
      "name": "Math512Bits__MulDivOverflow",
      "type": "error"
    },
    {
      "inputs": [
        {
          "internalType": "uint256",
          "name": "prod1",
          "type": "uint256"
        },
        {
          "internalType": "uint256",
          "name": "offset",
          "type": "uint256"
        }
      ],
      "name": "Math512Bits__MulShiftOverflow",
      "type": "error"
    },
    {
      "inputs": [
        {
          "internalType": "uint256",
          "name": "offset",
          "type": "uint256"
        }
      ],
      "name": "Math512Bits__OffsetOverflows",
      "type": "error"
    },
    {
      "inputs": [
        {
          "internalType": "uint256",
          "name": "prod1",
          "type": "uint256"
        },
        {
          "internalType": "uint256",
          "name": "denominator",
          "type": "uint256"
        }
      ],
      "name": "Math512Bits__ShiftDivOverflow",
      "type": "error"
    },
    {
      "inputs": [
        {
          "internalType": "uint256",
          "name": "_minTimestamp",
          "type": "uint256"
        },
        {
          "internalType": "uint256",
          "name": "_lookUpTimestamp",
          "type": "uint256"
        }
      ],
      "name": "Oracle__LookUpTimestampTooOld",
      "type": "error"
    },
    {
      "inputs": [],
      "name": "Oracle__NotInitialized",
      "type": "error"
    },
    {
      "inputs": [],
      "name": "ReentrancyGuard__ReentrantCall",
      "type": "error"
    },
    {
      "inputs": [
        {
          "internalType": "uint256",
          "name": "x",
          "type": "uint256"
        }
      ],
      "name": "SafeCast__Exceeds112Bits",
      "type": "error"
    },
    {
      "inputs": [
        {
          "internalType": "uint256",
          "name": "x",
          "type": "uint256"
        }
      ],
      "name": "SafeCast__Exceeds128Bits",
      "type": "error"
    },
    {
      "inputs": [
        {
          "internalType": "uint256",
          "name": "x",
          "type": "uint256"
        }
      ],
      "name": "SafeCast__Exceeds24Bits",
      "type": "error"
    },
    {
      "inputs": [
        {
          "internalType": "uint256",
          "name": "x",
          "type": "uint256"
        }
      ],
      "name": "SafeCast__Exceeds40Bits",
      "type": "error"
    },
    {
      "inputs": [
        {
          "internalType": "uint256",
          "name": "x",
          "type": "uint256"
        }
      ],
      "name": "SafeCast__Exceeds72Bits",
      "type": "error"
    },
    {
      "inputs": [],
      "name": "TreeMath__ErrorDepthSearch",
      "type": "error"
    },
    {
      "anonymous": false,
      "inputs": [
        {
          "indexed": true,
          "internalType": "address",
          "name": "account",
          "type": "address"
        },
        {
          "indexed": true,
          "internalType": "address",
          "name": "sender",
          "type": "address"
        },
        {
          "indexed": false,
          "internalType": "bool",
          "name": "approved",
          "type": "bool"
        }
      ],
      "name": "ApprovalForAll",
      "type": "event"
    },
    {
      "anonymous": false,
      "inputs": [
        {
          "indexed": true,
          "internalType": "address",
          "name": "sender",
          "type": "address"
        },
        {
          "indexed": true,
          "internalType": "address",
          "name": "recipient",
          "type": "address"
        },
        {
          "indexed": false,
          "internalType": "uint256[]",
          "name": "ids",
          "type": "uint256[]"
        },
        {
          "indexed": false,
          "internalType": "uint256[]",
          "name": "amounts",
          "type": "uint256[]"
        }
      ],
      "name": "Burn",
      "type": "event"
    },
    {
      "anonymous": false,
      "inputs": [
        {
          "indexed": true,
          "internalType": "address",
          "name": "sender",
          "type": "address"
        },
        {
          "indexed": true,
          "internalType": "address",
          "name": "recipient",
          "type": "address"
        },
        {
          "indexed": false,
          "internalType": "uint256",
          "name": "amountX",
          "type": "uint256"
        },
        {
          "indexed": false,
          "internalType": "uint256",
          "name": "amountY",
          "type": "uint256"
        }
      ],
      "name": "FeesCollected",
      "type": "event"
    },
    {
      "anonymous": false,
      "inputs": [
        {
          "indexed": true,
          "internalType": "address",
          "name": "sender",
          "type": "address"
        },
        {
          "indexed": true,
          "internalType": "address",
          "name": "recipient",
          "type": "address"
        },
        {
          "indexed": false,
          "internalType": "uint256",
          "name": "amountX",
          "type": "uint256"
        },
        {
          "indexed": false,
          "internalType": "uint256",
          "name": "amountY",
          "type": "uint256"
        },
        {
          "indexed": false,
          "internalType": "uint256",
          "name": "feesX",
          "type": "uint256"
        },
        {
          "indexed": false,
          "internalType": "uint256",
          "name": "feesY",
          "type": "uint256"
        }
      ],
      "name": "FlashLoan",
      "type": "event"
    },
    {
      "anonymous": false,
      "inputs": [
        {
          "indexed": true,
          "internalType": "address",
          "name": "sender",
          "type": "address"
        },
        {
          "indexed": true,
          "internalType": "address",
          "name": "recipient",
          "type": "address"
        },
        {
          "indexed": true,
          "internalType": "uint256",
          "name": "activeId",
          "type": "uint256"
        },
        {
          "indexed": false,
          "internalType": "uint256[]",
          "name": "ids",
          "type": "uint256[]"
        },
        {
          "indexed": false,
          "internalType": "uint256[]",
          "name": "distributionX",
          "type": "uint256[]"
        },
        {
          "indexed": false,
          "internalType": "uint256[]",
          "name": "distributionY",
          "type": "uint256[]"
        },
        {
          "indexed": false,
          "internalType": "uint256",
          "name": "amountX",
          "type": "uint256"
        },
        {
          "indexed": false,
          "internalType": "uint256",
          "name": "amountY",
          "type": "uint256"
        }
      ],
      "name": "Mint",
      "type": "event"
    },
    {
      "anonymous": false,
      "inputs": [
        {
          "indexed": false,
          "internalType": "uint256",
          "name": "previousSize",
          "type": "uint256"
        },
        {
          "indexed": false,
          "internalType": "uint256",
          "name": "newSize",
          "type": "uint256"
        }
      ],
      "name": "OracleSizeIncreased",
      "type": "event"
    },
    {
      "anonymous": false,
      "inputs": [
        {
          "indexed": true,
          "internalType": "address",
          "name": "sender",
          "type": "address"
        },
        {
          "indexed": true,
          "internalType": "address",
          "name": "recipient",
          "type": "address"
        },
        {
          "indexed": false,
          "internalType": "uint256",
          "name": "amountX",
          "type": "uint256"
        },
        {
          "indexed": false,
          "internalType": "uint256",
          "name": "amountY",
          "type": "uint256"
        }
      ],
      "name": "ProtocolFeesCollected",
      "type": "event"
    },
    {
      "anonymous": false,
      "inputs": [
        {
          "indexed": true,
          "internalType": "address",
          "name": "sender",
          "type": "address"
        },
        {
          "indexed": true,
          "internalType": "address",
          "name": "recipient",
          "type": "address"
        },
        {
          "indexed": true,
          "internalType": "uint24",
          "name": "_id",
          "type": "uint24"
        },
        {
          "indexed": false,
          "internalType": "uint256",
          "name": "amountX",
          "type": "uint256"
        },
        {
          "indexed": false,
          "internalType": "uint256",
          "name": "amountY",
          "type": "uint256"
        }
      ],
      "name": "Swap",
      "type": "event"
    },
    {
      "anonymous": false,
      "inputs": [],
      "name": "Transfer",
      "type": "event"
    },
    {
      "anonymous": false,
      "inputs": [
        {
          "indexed": true,
          "internalType": "address",
          "name": "sender",
          "type": "address"
        },
        {
          "indexed": true,
          "internalType": "address",
          "name": "from",
          "type": "address"
        },
        {
          "indexed": true,
          "internalType": "address",
          "name": "to",
          "type": "address"
        },
        {
          "indexed": false,
          "internalType": "uint256[]",
          "name": "ids",
          "type": "uint256[]"
        },
        {
          "indexed": false,
          "internalType": "uint256[]",
          "name": "amounts",
          "type": "uint256[]"
        }
      ],
      "name": "TransferBatch",
      "type": "event"
    },
    {
      "anonymous": false,
      "inputs": [
        {
          "indexed": true,
          "internalType": "address",
          "name": "sender",
          "type": "address"
        },
        {
          "indexed": true,
          "internalType": "address",
          "name": "from",
          "type": "address"
        },
        {
          "indexed": true,
          "internalType": "address",
          "name": "to",
          "type": "address"
        },
        {
          "indexed": false,
          "internalType": "uint256",
          "name": "id",
          "type": "uint256"
        },
        {
          "indexed": false,
          "internalType": "uint256",
          "name": "amount",
          "type": "uint256"
        }
      ],
      "name": "TransferSingle",
      "type": "event"
    },
    {
      "inputs": [
        {
          "internalType": "address",
          "name": "_account",
          "type": "address"
        },
        {
          "internalType": "uint256",
          "name": "_id",
          "type": "uint256"
        }
      ],
      "name": "balanceOf",
      "outputs": [
        {
          "internalType": "uint256",
          "name": "",
          "type": "uint256"
        }
      ],
      "stateMutability": "view",
      "type": "function"
    },
    {
      "inputs": [
        {
          "internalType": "uint256[]",
          "name": "_ids",
          "type": "uint256[]"
        },
        {
          "internalType": "uint256[]",
          "name": "_amounts",
          "type": "uint256[]"
        },
        {
          "internalType": "address",
          "name": "_to",
          "type": "address"
        }
      ],
      "name": "burn",
      "outputs": [
        {
          "internalType": "uint256",
          "name": "amountX",
          "type": "uint256"
        },
        {
          "internalType": "uint256",
          "name": "amountY",
          "type": "uint256"
        }
      ],
      "stateMutability": "nonpayable",
      "type": "function"
    },
    {
      "inputs": [
        {
          "internalType": "address",
          "name": "_account",
          "type": "address"
        },
        {
          "internalType": "uint256[]",
          "name": "_ids",
          "type": "uint256[]"
        }
      ],
      "name": "collectFees",
      "outputs": [],
      "stateMutability": "nonpayable",
      "type": "function"
    },
    {
      "inputs": [],
      "name": "collectProtocolFees",
      "outputs": [],
      "stateMutability": "nonpayable",
      "type": "function"
    },
    {
      "inputs": [],
      "name": "decimals",
      "outputs": [
        {
          "internalType": "uint8",
          "name": "",
          "type": "uint8"
        }
      ],
      "stateMutability": "view",
      "type": "function"
    },
    {
      "inputs": [],
      "name": "factory",
      "outputs": [
        {
          "internalType": "contract ILBFactory",
          "name": "",
          "type": "address"
        }
      ],
      "stateMutability": "view",
      "type": "function"
    },
    {
      "inputs": [],
      "name": "feeParameters",
      "outputs": [
        {
          "components": [
            {
              "internalType": "uint8",
              "name": "binStep",
              "type": "uint8"
            },
            {
              "internalType": "uint8",
              "name": "baseFactor",
              "type": "uint8"
            },
            {
              "internalType": "uint16",
              "name": "filterPeriod",
              "type": "uint16"
            },
            {
              "internalType": "uint16",
              "name": "decayPeriod",
              "type": "uint16"
            },
            {
              "internalType": "uint8",
              "name": "reductionFactor",
              "type": "uint8"
            },
            {
              "internalType": "uint8",
              "name": "variableFeeControl",
              "type": "uint8"
            },
            {
              "internalType": "uint8",
              "name": "protocolShare",
              "type": "uint8"
            },
            {
              "internalType": "uint72",
              "name": "maxAccumulator",
              "type": "uint72"
            },
            {
              "internalType": "uint72",
              "name": "accumulator",
              "type": "uint72"
            },
            {
              "internalType": "uint40",
              "name": "time",
              "type": "uint40"
            }
          ],
          "internalType": "struct FeeHelper.FeeParameters",
          "name": "",
          "type": "tuple"
        }
      ],
      "stateMutability": "view",
      "type": "function"
    },
    {
      "inputs": [
        {
          "internalType": "uint24",
          "name": "_id",
          "type": "uint24"
        },
        {
          "internalType": "bool",
          "name": "_swapForY",
          "type": "bool"
        }
      ],
      "name": "findFirstNonEmptyBinId",
      "outputs": [
        {
          "internalType": "uint256",
          "name": "",
          "type": "uint256"
        }
      ],
      "stateMutability": "view",
      "type": "function"
    },
    {
      "inputs": [
        {
          "internalType": "address",
          "name": "_to",
          "type": "address"
        },
        {
          "internalType": "uint256",
          "name": "_amountXOut",
          "type": "uint256"
        },
        {
          "internalType": "uint256",
          "name": "_amountYOut",
          "type": "uint256"
        },
        {
          "internalType": "bytes",
          "name": "_data",
          "type": "bytes"
        }
      ],
      "name": "flashLoan",
      "outputs": [],
      "stateMutability": "nonpayable",
      "type": "function"
    },
    {
      "inputs": [
        {
          "internalType": "uint24",
          "name": "_id",
          "type": "uint24"
        }
      ],
      "name": "getBin",
      "outputs": [
        {
          "internalType": "uint256",
          "name": "reserveX",
          "type": "uint256"
        },
        {
          "internalType": "uint256",
          "name": "reserveY",
          "type": "uint256"
        }
      ],
      "stateMutability": "view",
      "type": "function"
    },
    {
      "inputs": [],
      "name": "getGlobalFees",
      "outputs": [
        {
          "internalType": "uint256",
          "name": "feesXTotal",
          "type": "uint256"
        },
        {
          "internalType": "uint256",
          "name": "feesYTotal",
          "type": "uint256"
        },
        {
          "internalType": "uint256",
          "name": "feesXProtocol",
          "type": "uint256"
        },
        {
          "internalType": "uint256",
          "name": "feesYProtocol",
          "type": "uint256"
        }
      ],
      "stateMutability": "view",
      "type": "function"
    },
    {
      "inputs": [],
      "name": "getOracleParameters",
      "outputs": [
        {
          "internalType": "uint256",
          "name": "oracleSampleLifetime",
          "type": "uint256"
        },
        {
          "internalType": "uint256",
          "name": "oracleSize",
          "type": "uint256"
        },
        {
          "internalType": "uint256",
          "name": "oracleActiveSize",
          "type": "uint256"
        },
        {
          "internalType": "uint256",
          "name": "oracleLastTimestamp",
          "type": "uint256"
        },
        {
          "internalType": "uint256",
          "name": "oracleId",
          "type": "uint256"
        },
        {
          "internalType": "uint256",
          "name": "min",
          "type": "uint256"
        },
        {
          "internalType": "uint256",
          "name": "max",
          "type": "uint256"
        }
      ],
      "stateMutability": "view",
      "type": "function"
    },
    {
      "inputs": [
        {
          "internalType": "uint256",
          "name": "_ago",
          "type": "uint256"
        }
      ],
      "name": "getOracleSampleFrom",
      "outputs": [
        {
          "internalType": "uint256",
          "name": "cumulativeId",
          "type": "uint256"
        },
        {
          "internalType": "uint256",
          "name": "cumulativeAccumulator",
          "type": "uint256"
        },
        {
          "internalType": "uint256",
          "name": "cumulativeBinCrossed",
          "type": "uint256"
        }
      ],
      "stateMutability": "view",
      "type": "function"
    },
    {
      "inputs": [],
      "name": "getReservesAndId",
      "outputs": [
        {
          "internalType": "uint256",
          "name": "reserveX",
          "type": "uint256"
        },
        {
          "internalType": "uint256",
          "name": "reserveY",
          "type": "uint256"
        },
        {
          "internalType": "uint256",
          "name": "activeId",
          "type": "uint256"
        }
      ],
      "stateMutability": "view",
      "type": "function"
    },
    {
      "inputs": [
        {
          "internalType": "uint16",
          "name": "_nb",
          "type": "uint16"
        }
      ],
      "name": "increaseOracleLength",
      "outputs": [],
      "stateMutability": "nonpayable",
      "type": "function"
    },
    {
      "inputs": [
        {
          "internalType": "address",
          "name": "_owner",
          "type": "address"
        },
        {
          "internalType": "address",
          "name": "_spender",
          "type": "address"
        }
      ],
      "name": "isApprovedForAll",
      "outputs": [
        {
          "internalType": "bool",
          "name": "",
          "type": "bool"
        }
      ],
      "stateMutability": "view",
      "type": "function"
    },
    {
      "inputs": [
        {
          "internalType": "uint256[]",
          "name": "_ids",
          "type": "uint256[]"
        },
        {
          "internalType": "uint256[]",
          "name": "_distributionX",
          "type": "uint256[]"
        },
        {
          "internalType": "uint256[]",
          "name": "_distributionY",
          "type": "uint256[]"
        },
        {
          "internalType": "address",
          "name": "_to",
          "type": "address"
        }
      ],
      "name": "mint",
      "outputs": [
        {
          "internalType": "uint256",
          "name": "",
          "type": "uint256"
        },
        {
          "internalType": "uint256",
          "name": "",
          "type": "uint256"
        }
      ],
      "stateMutability": "nonpayable",
      "type": "function"
    },
    {
      "inputs": [],
      "name": "name",
      "outputs": [
        {
          "internalType": "string",
          "name": "",
          "type": "string"
        }
      ],
      "stateMutability": "view",
      "type": "function"
    },
    {
      "inputs": [
        {
          "internalType": "address",
          "name": "_account",
          "type": "address"
        },
        {
          "internalType": "uint256[]",
          "name": "_ids",
          "type": "uint256[]"
        }
      ],
      "name": "pendingFees",
      "outputs": [
        {
          "components": [
            {
              "internalType": "uint128",
              "name": "tokenX",
              "type": "uint128"
            },
            {
              "internalType": "uint128",
              "name": "tokenY",
              "type": "uint128"
            }
          ],
          "internalType": "struct ILBPair.UnclaimedFees",
          "name": "fees",
          "type": "tuple"
        }
      ],
      "stateMutability": "view",
      "type": "function"
    },
    {
      "inputs": [
        {
          "internalType": "address",
          "name": "_from",
          "type": "address"
        },
        {
          "internalType": "address",
          "name": "_to",
          "type": "address"
        },
        {
          "internalType": "uint256[]",
          "name": "_ids",
          "type": "uint256[]"
        },
        {
          "internalType": "uint256[]",
          "name": "_amounts",
          "type": "uint256[]"
        }
      ],
      "name": "safeBatchTransferFrom",
      "outputs": [],
      "stateMutability": "nonpayable",
      "type": "function"
    },
    {
      "inputs": [
        {
          "internalType": "address",
          "name": "_spender",
          "type": "address"
        },
        {
          "internalType": "bool",
          "name": "_approved",
          "type": "bool"
        }
      ],
      "name": "setApprovalForAll",
      "outputs": [],
      "stateMutability": "nonpayable",
      "type": "function"
    },
    {
      "inputs": [
        {
          "internalType": "bytes32",
          "name": "_packedFeeParameters",
          "type": "bytes32"
        }
      ],
      "name": "setFeesParameters",
      "outputs": [],
      "stateMutability": "nonpayable",
      "type": "function"
    },
    {
      "inputs": [
        {
          "internalType": "bool",
          "name": "_swapForY",
          "type": "bool"
        },
        {
          "internalType": "address",
          "name": "_to",
          "type": "address"
        }
      ],
      "name": "swap",
      "outputs": [
        {
          "internalType": "uint256",
          "name": "amountXOut",
          "type": "uint256"
        },
        {
          "internalType": "uint256",
          "name": "amountYOut",
          "type": "uint256"
        }
      ],
      "stateMutability": "nonpayable",
      "type": "function"
    },
    {
      "inputs": [],
      "name": "symbol",
      "outputs": [
        {
          "internalType": "string",
          "name": "",
          "type": "string"
        }
      ],
      "stateMutability": "view",
      "type": "function"
    },
    {
      "inputs": [],
      "name": "tokenX",
      "outputs": [
        {
          "internalType": "contract IERC20",
          "name": "",
          "type": "address"
        }
      ],
      "stateMutability": "view",
      "type": "function"
    },
    {
      "inputs": [],
      "name": "tokenY",
      "outputs": [
        {
          "internalType": "contract IERC20",
          "name": "",
          "type": "address"
        }
      ],
      "stateMutability": "view",
      "type": "function"
    },
    {
      "inputs": [
        {
          "internalType": "uint256",
          "name": "_id",
          "type": "uint256"
        }
      ],
      "name": "totalSupply",
      "outputs": [
        {
          "internalType": "uint256",
          "name": "",
          "type": "uint256"
        }
      ],
      "stateMutability": "view",
      "type": "function"
    },
    {
      "inputs": [
        {
          "internalType": "address",
          "name": "_account",
          "type": "address"
        },
        {
          "internalType": "uint256",
          "name": "_index",
          "type": "uint256"
        }
      ],
      "name": "userPositionAt",
      "outputs": [
        {
          "internalType": "uint256",
          "name": "",
          "type": "uint256"
        }
      ],
      "stateMutability": "view",
      "type": "function"
    },
    {
      "inputs": [
        {
          "internalType": "address",
          "name": "_account",
          "type": "address"
        }
      ],
      "name": "userPositionNb",
      "outputs": [
        {
          "internalType": "uint256",
          "name": "",
          "type": "uint256"
        }
      ],
      "stateMutability": "view",
      "type": "function"
    }
  ],
  "bytecode": {
    "object": "0x60e06040523480156200001157600080fd5b5060405162005c6f38038062005c6f8339810160408190526200003491620001d0565b604080518082018252601481527f4c697175696469747920426f6f6b20546f6b656e00000000000000000000000060208083019182528351808501909452600384526213109560ea1b90840152815191929162000094916004916200012a565b508051620000aa9060059060208401906200012a565b5050600160065550606086811b6001600160601b031990811660c05286821b81166080529085901b1660a0526007805462ffffff191662ffffff85161790556008805461ffff60881b1916600160881b61ffff851602179055600b80546001600160901b0319166001600160901b038316019055505050505050620002bb565b828054620001389062000265565b90600052602060002090601f0160209004810192826200015c5760008555620001a7565b82601f106200017757805160ff1916838001178555620001a7565b82800160010185558215620001a7579182015b82811115620001a75782518255916020019190600101906200018a565b50620001b5929150620001b9565b5090565b5b80821115620001b55760008155600101620001ba565b60008060008060008060c08789031215620001ea57600080fd5b8651620001f781620002a2565b60208801519096506200020a81620002a2565b60408801519095506200021d81620002a2565b606088015190945062ffffff811681146200023757600080fd5b608088015190935061ffff811681146200025057600080fd5b8092505060a087015190509295509295509295565b600181811c908216806200027a57607f821691505b602082108114156200029c57634e487b7160e01b600052602260045260246000fd5b50919050565b6001600160a01b0381168114620002b857600080fd5b50565b60805160601c60a05160601c60c05160601c6158ef6200038060003960008181610589015281816119610152612aee01526000818161054201528181610c1601528181610e9c0152818161107e0152818161188f01528181611bad01528181611c6501528181612274015281816129d90152612cc701526000818161026e01528181610bda01528181610e58015281816110d8015281816118cb01528181611b7901528181611c380152818161220b0152818161298e0152612c9301526158ef6000f3fe608060405234801561001057600080fd5b50600436106101ce5760003560e01c80638f919a8311610104578063b7d19fc4116100a2578063e985e9c511610071578063e985e9c5146105be578063f7cff1f8146105e1578063f88f4fe31461061b578063fba0ee641461062e57600080fd5b8063b7d19fc41461053d578063bd85b03914610564578063c45a015514610584578063c7bd6586146105ab57600080fd5b8063a1af5b9a116100de578063a1af5b9a146104d7578063a21635a7146104df578063a22cb465146104f2578063a582cdaa1461050557600080fd5b80638f919a83146103a157806395d89b41146103b457806398c7adf3146103bc57600080fd5b8063313ce5671161017157806354b5fc871161014b57806354b5fc871461032b578063551828941461033e578063679f05791461037b578063714c85921461038e57600080fd5b8063313ce567146102f657806340c31c7d1461030557806353c059a01461031857600080fd5b80630acd451d116101ad5780630acd451d1461025657806316dc165b146102695780631b05b83e146102a8578063225b20b9146102e157600080fd5b8062fdd58e146101d357806306fdde03146101f95780630abe96881461020e575b600080fd5b6101e66101e13660046151cd565b610641565b6040519081526020015b60405180910390f35b610201610669565b6040516101f09190615585565b61024161021c36600461543f565b6000908152600c60205260409020546001600160701b038082169260709290921c1690565b604080519283526020830191909152016101f0565b6102416102643660046152b4565b6106fb565b6102907f000000000000000000000000000000000000000000000000000000000000000081565b6040516001600160a01b0390911681526020016101f0565b6008546007546001600160881b03601882901c811692169062ffffff165b604080519384526020840192909252908201526060016101f0565b6102f46102ef36600461514f565b610c9b565b005b604051601281526020016101f0565b6101e6610313366004615053565b610f39565b6102416103263660046153e4565b610f5a565b6102f4610339366004615402565b611956565b6103466119d6565b604080519788526020880196909652948601939093526060850191909152608084015260a083015260c082015260e0016101f0565b6102f46103893660046151f9565b611a32565b61024161039c36600461532c565b611dab565b6101e66103af36600461545a565b612a95565b610201612aaf565b6104ca6040805161014081018252600080825260208201819052918101829052606081018290526080810182905260a0810182905260c0810182905260e081018290526101008101829052610120810191909152506040805161014081018252600b5460ff80821683526101008083048216602085015262010000830461ffff908116958501959095526401000000008304909416606084015266010000000000008204811660808401526701000000000000008204811660a0840152600160401b82041660c0830152690100000000000000000081046001600160481b0390811660e0840152600160901b82041692820192909252600160d81b90910464ffffffffff1661012082015290565b6040516101f09190615598565b6102f4612abe565b6102c66104ed366004615402565b612d31565b6102f461050036600461519f565b612e6e565b600954600a54604080516001600160801b03808516825283166020820152608093841c9181019190915290821c6060820152016101f0565b6102907f000000000000000000000000000000000000000000000000000000000000000081565b6101e6610572366004615402565b60009081526002602052604090205490565b6102907f000000000000000000000000000000000000000000000000000000000000000081565b6102f46105b936600461541b565b612e7d565b6105d16105cc36600461508d565b612e86565b60405190151581526020016101f0565b6105f46105ef36600461514f565b612e92565b6040805182516001600160801b0390811682526020938401511692810192909252016101f0565b6101e66106293660046151cd565b612fbf565b6102f461063c3660046150c6565b612fe1565b6000818152602081815260408083206001600160a01b03861684529091529020545b92915050565b606060048054610678906157d2565b80601f01602080910402602001604051908101604052809291908181526020018280546106a4906157d2565b80156106f15780601f106106c6576101008083540402835291602001916106f1565b820191906000526020600020905b8154815290600101906020018083116106d457829003601f168201915b5050505050905090565b6000806002600654141561072257604051635db5c7cd60e11b815260040160405180910390fd5b6002600655604080516101408101825260075462ffffff80821683526001600160881b03630100000090920482166020808501919091526008549283168486015261ffff600160881b840481166060860152600160981b840481166080860152600160a81b84041660a085015264ffffffffff600160b81b84041660c0850152600160e01b9092041660e0830152825180840184526009546001600160801b038082168352600160801b918290048116838501526101008501929092528451808601909552600a548083168652041690830152610120810191909152855160005b81811015610a9c57600061082f8983815181106108225761082261586a565b6020026020010151613275565b62ffffff169050600088838151811061084a5761084a61586a565b60200260200101519050806000141561087e57604051636715a79f60e11b8152600481018390526024015b60405180910390fd5b6000828152600c60209081526040808320815160808101835281546001600160701b038082168352600160701b90910416818501526001820154818401526002918201546060820152868552925290912054865162ffffff1684116109295760208201516000906108fa9085906001600160701b0316846132a2565b6020840180518290036001600160701b031690526040890180518290036001600160881b031690529890980197505b865162ffffff16841061097b5781516000906109509085906001600160701b0316846132a2565b83518190036001600160701b031684526020890180518290036001600160881b031690529990990198505b81516001600160701b031615801561099e575060208201516001600160701b0316155b15610a2e5761010084046000818152600f602052604090208054600160ff88161b19169081905580610a2b57506201000085046000818152600e602052604090208054600160ff85161b1916908190559081610a295760008052600d6020527f81955a0a11e65eac625c29e8882660bae4e165a75d72780094acae8ece9a29ee80546001831b191690555b505b50505b6000848152600c602090815260409182902084518154928601516001600160701b03908116600160701b026001600160e01b03199094169116179190911781559083015160018201556060830151600290910155610a8d30858561336f565b50505050806001019050610803565b5081516007805460208086015162ffffff94851673ffffffffffffffffffffffffffffffffffffffff199093169290921763010000006001600160881b0393841602179092556040850151600880546060880151608089015160a08a015160c08b015160e08c01519690971672ffffffffffffffffffffffffffffffffffffff1990941693909317600160881b61ffff938416021763ffffffff60981b1916600160981b9183169190910261ffff60a81b191617600160a81b91909216021767ffffffffffffffff60b81b1916600160b81b64ffffffffff9094169390930262ffffff60e01b191692909217600160e01b9190941602929092179091556101008301518051908201516001600160801b03918216600160801b9183168202176009556101208501518051930151928216929091160217600a55610c097f00000000000000000000000000000000000000000000000000000000000000006001600160a01b031686866134af565b610c3d6001600160a01b037f00000000000000000000000000000000000000000000000000000000000000001686856134af565b846001600160a01b0316336001600160a01b03167f8feeda494f4424b5b1871419221d2d1b194829d4ab60383b4f063abd389657ab8989604051610c82929190615512565b60405180910390a3505060016006559094909350915050565b60026006541415610cbf57604051635db5c7cd60e11b815260040160405180910390fd5b600260065580516001600160a01b0383166000818152601060208181526040808420815180830190925280546001600160801b038082168452600160801b9091041682840152948452919052918190555b82811015610dbf576000848281518110610d2c57610d2c61586a565b602002602001015190506000610d428783610641565b90508015610db5576000828152600c6020908152604091829020825160808101845281546001600160701b038082168352600160701b90910416928101929092526001810154928201929092526002909101546060820152610da785828a86866135a6565b610db381898585613662565b505b5050600101610d10565b5080516001600160801b031615610e01578051600980546fffffffffffffffffffffffffffffffff1981166001600160801b0391821693909303169190911790555b60208101516001600160801b031615610e48576020810151600a80546fffffffffffffffffffffffffffffffff1981166001600160801b0391821693909303169190911790555b8051610e89906001600160a01b037f0000000000000000000000000000000000000000000000000000000000000000169086906001600160801b03166134af565b6020810151610ecd906001600160a01b037f0000000000000000000000000000000000000000000000000000000000000000169086906001600160801b03166134af565b805160208201516040516001600160a01b0387169233927f28a87b6059180e46de5fb9ab35eb043e8fe00ab45afcc7789e3934ecbbcde3ea92610f269291906001600160801b0392831681529116602082015260400190565b60405180910390a3505060016006555050565b6001600160a01b0381166000908152600360205260408120610663906136c7565b60008060026006541415610f8157604051635db5c7cd60e11b815260040160405180910390fd5b6002600655604080516101408101825260075462ffffff80821683526001600160881b03630100000090920482166020808501919091526008549283168486015261ffff600160881b840481166060860152600160981b840481166080860152600160a81b84041660a085015264ffffffffff600160b81b84041660c0850152600160e01b9092041660e0830152825180840184526009546001600160801b038082168352600160801b918290048116838501526101008501929092528451808601909552600a5480831686520416908301526101208101919091526000856110be576040820151610120830151516110b9916001600160a01b037f000000000000000000000000000000000000000000000000000000000000000016916001600160881b03909116906001600160801b03166136d1565b611113565b602082015161010083015151611113916001600160a01b037f000000000000000000000000000000000000000000000000000000000000000016916001600160881b03909116906001600160801b03166136d1565b9050806111335760405163256111db60e21b815260040160405180910390fd5b6040805161014081018252600b5460ff80821683526101008083048216602085015262010000830461ffff908116958501959095526401000000008304909416606084015266010000000000008204811660808401526701000000000000008204811660a0840152600160401b82041660c0830152690100000000000000000081046001600160481b0390811660e0840152600160901b82041692820192909252600160d81b90910464ffffffffff166101208201526111f281613764565b825162ffffff1660005b845162ffffff166000908152600c6020908152604091829020825160808101845281546001600160701b038082168352600160701b909104169281019290925260018101549282019290925260029091015460608201528915801561126a575080516001600160701b031615155b806112895750898015611289575060208101516001600160701b031615155b156113af5760008060006112b7878a6000015162ffffff168f898c896137ef9095949392919063ffffffff16565b9250925092506113028d6112d0578961012001516112d7565b8961010001515b828f6112f88d6000015162ffffff1660009081526002602052604090205490565b889392919061392d565b611323898e611310866139cb565b879291906001600160701b0316866139f8565b8051611338906001600160801b031684615716565b611342908961578f565b975061134e8286615716565b895162ffffff166000908152600c602090815260409182902087518154928901516001600160701b03908116600160701b026001600160e01b0319909416911617919091178155908601516001820155606086015160029091015594505050505b84156113d55785516113c990600d9062ffffff168c613aaa565b62ffffff1686526113db565b506113e1565b506111fc565b806113ff576040516317bb70a160e01b815260040160405180910390fd5b845160009062ffffff16831161141e57855162ffffff16839003611428565b855162ffffff1683035b90506114348482613c52565b6000611491876080015161ffff16886060015161ffff168960c0015164ffffffffff168a60e0015162ffffff168b6000015162ffffff168a61010001516001600160481b0316886012613cbd90979695949392919063ffffffff16565b90508660e0015162ffffff16811415806114b4575060c087015164ffffffffff16155b156114f95762ffffff811660e08801526114cd42613d33565b64ffffffffff1660c088015260a087015161ffff168114156114f95760a08701805160010161ffff1690525b505082600b60008201518160000160006101000a81548160ff021916908360ff16021790555060208201518160000160016101000a81548160ff021916908360ff16021790555060408201518160000160026101000a81548161ffff021916908361ffff16021790555060608201518160000160046101000a81548161ffff021916908361ffff16021790555060808201518160000160066101000a81548160ff021916908360ff16021790555060a08201518160000160076101000a81548160ff021916908360ff16021790555060c08201518160000160086101000a81548160ff021916908360ff16021790555060e08201518160000160096101000a8154816001600160481b0302191690836001600160481b031602179055506101008201518160000160126101000a8154816001600160481b0302191690836001600160481b0316021790555061012082015181600001601b6101000a81548164ffffffffff021916908364ffffffffff16021790555090505084600760008201518160000160006101000a81548162ffffff021916908362ffffff16021790555060208201518160000160036101000a8154816001600160881b0302191690836001600160881b0316021790555060408201518160010160006101000a8154816001600160881b0302191690836001600160881b0316021790555060608201518160010160116101000a81548161ffff021916908361ffff16021790555060808201518160010160136101000a81548161ffff021916908361ffff16021790555060a08201518160010160156101000a81548161ffff021916908361ffff16021790555060c08201518160010160176101000a81548164ffffffffff021916908364ffffffffff16021790555060e082015181600101601c6101000a81548162ffffff021916908362ffffff1602179055506101008201518160020160008201518160000160006101000a8154816001600160801b0302191690836001600160801b0316021790555060208201518160000160106101000a8154816001600160801b0302191690836001600160801b0316021790555050506101208201518160030160008201518160000160006101000a8154816001600160801b0302191690836001600160801b0316021790555060208201518160000160106101000a8154816001600160801b0302191690836001600160801b03160217905550505090505088156118bb579450846118b66001600160a01b037f00000000000000000000000000000000000000000000000000000000000000001689836134af565b6118f2565b9550856118f26001600160a01b037f00000000000000000000000000000000000000000000000000000000000000001689836134af565b8451604080518981526020810189905262ffffff909216916001600160a01b038b169133917f24ff20e713e860e6de1610f296ab89e9e15e5c12823632de93adc3a5e789853e910160405180910390a4505050505060016006819055509250929050565b336001600160a01b037f0000000000000000000000000000000000000000000000000000000000000000161461199f57604051632486085360e01b815260040160405180910390fd5b600b805471ffffffffffffffffffffffffffffffffffff191671ffffffffffffffffffffffffffffffffffff831601905550565b50565b600854608881901c61ffff90811691609881901c82169160a882901c169060b881901c64ffffffffff169060e01c62ffffff166000808415611a185786611a1b565b60005b9150611a278588615750565b905090919293949596565b60026006541415611a5657604051635db5c7cd60e11b815260040160405180910390fd5b60026006556040805161014081018252600b5460ff80821683526101008083048216602085015262010000830461ffff908116958501959095526401000000008304909416606084015266010000000000008204811660808401526701000000000000008204811660a0840152600160401b82041660c0830152690100000000000000000081046001600160481b0390811660e0840152600160901b82041692820192909252600160d81b90910464ffffffffff16610120820152611b1a81613764565b6000611b31611b2a838784613d5e565b8390613d84565b90506000611b4a611b43848784613d5e565b8490613d84565b6007546008549192506001600160881b0363010000008204811692169062ffffff16611ba06001600160a01b037f0000000000000000000000000000000000000000000000000000000000000000168b8b6134af565b611bd46001600160a01b037f0000000000000000000000000000000000000000000000000000000000000000168b8a6134af565b845184516040516326ae455560e21b81523392639ab9155492611bfb928c9060040161566c565b600060405180830381600087803b158015611c1557600080fd5b505af1158015611c29573d6000803e3d6000fd5b50505050611c5d6007600201867f000000000000000000000000000000000000000000000000000000000000000086613dce565b611c8a600a857f000000000000000000000000000000000000000000000000000000000000000085613dce565b600081815260026020526040812054905060008087602001518860000151036001600160801b0316915086602001518760000151036001600160801b0316905082608083901b611cda919061572e565b6000858152600c602052604081206001018054909190611cfb908490615716565b90915550611d0f905083608083901b61572e565b6000858152600c602052604081206002018054909190611d30908490615716565b909155505087518751604080518f8152602081018f90526001600160801b0393841681830152929091166060830152516001600160a01b038f169133917f5b8f46461c1dd69fb968f1a003acee221ea3e19540e350233b612ddb43433b559181900360800190a3505060016006555050505050505050505050565b60008060026006541415611dd257604051635db5c7cd60e11b815260040160405180910390fd5b60026006558551801580611de7575085518114155b80611df3575084518114155b15611e11576040516306fed5ff60e01b815260040160405180910390fd5b60006007604051806101400160405290816000820160009054906101000a900462ffffff1662ffffff1662ffffff1681526020016000820160039054906101000a90046001600160881b03166001600160881b03166001600160881b031681526020016001820160009054906101000a90046001600160881b03166001600160881b03166001600160881b031681526020016001820160119054906101000a900461ffff1661ffff1661ffff1681526020016001820160139054906101000a900461ffff1661ffff1661ffff1681526020016001820160159054906101000a900461ffff1661ffff1661ffff1681526020016001820160179054906101000a900464ffffffffff1664ffffffffff1664ffffffffff16815260200160018201601c9054906101000a900462ffffff1662ffffff1662ffffff168152602001600282016040518060400160405290816000820160009054906101000a90046001600160801b03166001600160801b03166001600160801b031681526020016000820160109054906101000a90046001600160801b03166001600160801b03166001600160801b0316815250508152602001600382016040518060400160405290816000820160009054906101000a90046001600160801b03166001600160801b03166001600160801b031681526020016000820160109054906101000a90046001600160801b03166001600160801b03166001600160801b0316815250508152505090506000600b604051806101400160405290816000820160009054906101000a900460ff1660ff1660ff1681526020016000820160019054906101000a900460ff1660ff1660ff1681526020016000820160029054906101000a900461ffff1661ffff1661ffff1681526020016000820160049054906101000a900461ffff1661ffff1661ffff1681526020016000820160069054906101000a900460ff1660ff1660ff1681526020016000820160079054906101000a900460ff1660ff1660ff1681526020016000820160089054906101000a900460ff1660ff1660ff1681526020016000820160099054906101000a90046001600160481b03166001600160481b03166001600160481b031681526020016000820160129054906101000a90046001600160481b03166001600160481b03166001600160481b0316815260200160008201601b9054906101000a900464ffffffffff1664ffffffffff1664ffffffffff168152505090506121ed6040518061012001604052806000815260200160008152602001600081526020016000815260200160008152602001600081526020016000815260200160008152602001600081525090565b60208301516101008401515161224991612244916001600160a01b037f000000000000000000000000000000000000000000000000000000000000000016916001600160881b0316906001600160801b03166136d1565b613e9a565b6001600160801b0390811682526040840151610120850151516122a792612244926001600160a01b037f000000000000000000000000000000000000000000000000000000000000000016926001600160881b0390911691166136d1565b6001600160801b0316602082015260005b84811015612835576122d58b82815181106108225761082261586a565b62ffffff1660c083018190526000908152600c6020908152604091829020825160808101845281546001600160701b03808216808452600160701b9092041693820193909352600182015493810193909352600201546060830152158015612348575060208101516001600160701b0316155b156124085760006101008460c00151816123645761236461583e565b0490506000620100008560c001518161237f5761237f61583e565b0490506101008560c00151816123975761239761583e565b6000848152600f60209081526040808320805460019690950686901b909417909355848252600e8152918120805460ff90961684901b909517909455928052600d9092527f81955a0a11e65eac625c29e8882660bae4e165a75d72780094acae8ece9a29ee80549290911b90911790555b60008b838151811061241c5761241c61586a565b6020026020010151905060008b848151811061243a5761243a61586a565b60200260200101519050670de0b6b3a76400008211806124615750670de0b6b3a764000081115b8061247e5750608085018051830190819052670de0b6b3a7640000105b8061249b575060a085018051820190819052670de0b6b3a7640000105b156124b95760405163eee8ff2760e01b815260040160405180910390fd5b8451670de0b6b3a7640000920282900460e08601526020850151020461010084015260c083015184516000916124f19160ff16613ec7565b9050856000015162ffffff168460c00151106126bd57856000015162ffffff168460c00151141561268c5760c084015160009081526002602052604081205461010086015160e087015191929161254d90859060806001613ef0565b01905060008183018760e0015186600001516001600160701b0316018302816125785761257861583e565b049050600082840188610100015187602001516001600160701b0316018402816125a4576125a461583e565b60408051808201909152600080825260208201529190049150828960e001511115612624576125ef6125e8848b60e001510360008d613fb99092919063ffffffff16565b8b90613d84565b805160e08b0180516001600160801b0390921690910390526101008c015190915061261f9088908360018961392d565b612682565b818961010001511115612682576126516125e8838b61010001510360008d613fb99092919063ffffffff16565b80516101008b0180516001600160801b0390921690910390526101208c01519091506126829088908360008961392d565b50505050506126e8565b610100840151156126b8578360c00151604051632262d0a160e21b815260040161087591815260200190565b6126e8565b60e0840151156126e8578360c00151604051632262d0a160e21b815260040161087591815260200190565b61010084015160e08501516000919061270690849060806001613ef0565b0190508061272f578460c0015160405163b42cd28760e01b815260040161087591815260200190565b61274b8560e0015184600001516001600160701b0316016139cb565b6001600160701b039081168452610100860151602085015161276e9216016139cb565b6001600160701b03908116602080860191825260e0880180518b830180516001600160881b039201821690526101008a0180516040808f01805190920190931690529151818b018051909101905290516060808b01805190920190915260c08a0180516000908152600c909452928290208851815495518716600160701b026001600160e01b031990961696169590951793909317845586015160018401559085015160029092019190915551612827908c9083613fec565b5050508060010190506122b8565b5082516007805460208087015162ffffff94851673ffffffffffffffffffffffffffffffffffffffff199093169290921763010000006001600160881b0393841602179092556040808701516008805460608a015160808b015160a08c015160c08d015160e08e01519690981672ffffffffffffffffffffffffffffffffffffff1990941693909317600160881b61ffff938416021763ffffffff60981b1916600160981b9183169190910261ffff60a81b191617600160a81b91909216021767ffffffffffffffff60b81b1916600160b81b64ffffffffff9095169490940262ffffff60e01b191693909317600160e01b91909516029390931790556101008501518051908201516001600160801b03918216600160801b9183168202176009556101208701518051930151928216929091160217600a55810151815111156129b857604081015181516129b8916001600160a01b037f000000000000000000000000000000000000000000000000000000000000000016918a9190036134af565b806060015181602001511115612a1057612a108782606001518360200151037f00000000000000000000000000000000000000000000000000000000000000006001600160a01b03166134af9092919063ffffffff16565b826000015162ffffff16876001600160a01b0316336001600160a01b03167ff49249487eb398ed4091859e2aa7b0bf6303822b96bd05212f77649d3f399f6b8d8d8d87604001518860600151604051612a6d959493929190615537565b60405180910390a460408101516060909101516001600655909a909950975050505050505050565b6000612aa8600d62ffffff851684613aaa565b9392505050565b606060058054610678906157d2565b60026006541415612ae257604051635db5c7cd60e11b815260040160405180910390fd5b600260068190555060007f00000000000000000000000000000000000000000000000000000000000000006001600160a01b031663469048406040518163ffffffff1660e01b815260040160206040518083038186803b158015612b4557600080fd5b505afa158015612b59573d6000803e3d6000fd5b505050506040513d601f19601f82011682018060405250810190612b7d9190615070565b9050336001600160a01b03821614612bb957604051631ed01e0560e31b81526001600160a01b0382166004820152336024820152604401610875565b604080518082019091526009546001600160801b038082168352600160801b909104166020820181905260009015612c1e575060208101805182516000199091016001600160801b0390811691829003168084526001909252600160801b9091176009555b60408051808201909152600a546001600160801b038082168352600160801b909104166020820181905290925060009015612c86575060208201805183516000199091016001600160801b0390811691829003168085526001909252600160801b909117600a555b612cba6001600160a01b037f00000000000000000000000000000000000000000000000000000000000000001685846134af565b612cee6001600160a01b037f00000000000000000000000000000000000000000000000000000000000000001685836134af565b60408051838152602081018390526001600160a01b0386169133917f26b782206d6b531bf95d487110cfefdc443291f176f1977e94abcb7e67bd1b799101610f26565b6000808080612d40854261578f565b60085490915061ffff60a882901c169060e01c62ffffff166000612d6760128484876140da565b91995097509550905083811015612e63576040805161014081018252600b5460ff80821683526101008083048216602085015262010000830461ffff908116958501959095526401000000008304909416606084015266010000000000008204811660808401526701000000000000008204811660a0840152600160401b82041660c0830152690100000000000000000081046001600160481b0390811660e0840152600160901b82041692820192909252600160d81b90910464ffffffffff16610120820152612e3781613764565b600754610100919091015182860362ffffff909216820298909801976001600160481b03160295909501945b505050509193909250565b612e79338383614286565b5050565b6119d381614331565b6000612aa883836143d4565b604080518082018252600080825260209182018190526001600160a01b0385168152601082528281208351808501909452546001600160801b038082168552600160801b90910416918301919091528251815b81811015612fb6576000858281518110612f0157612f0161586a565b60200260200101519050808410158015612f1a57508115155b15612f3857604051630e15c23b60e31b815260040160405180910390fd5b6000612f448883610641565b90508015612fab576000828152600c6020908152604091829020825160808101845281546001600160701b038082168352600160701b90910416928101929092526001810154928201929092526002909101546060820152612fa987828b86866135a6565b505b509250600101612ee5565b50505092915050565b6001600160a01b0382166000908152600360205260408120612aa89083614420565b33612fec85826143d4565b61301c5760405163548f773d60e01b81526001600160a01b03808716600483015282166024820152604401610875565b6001600160a01b038516158061303957506001600160a01b038416155b156130575760405163020d233960e51b815260040160405180910390fd5b825182518114613087578251604051639c802a7560e01b8152610875918391600401918252602082015260400190565b60005b818110156132155760008582815181106130a6576130a661586a565b6020026020010151905060008583815181106130c4576130c461586a565b602090810291909101810151600084815280835260408082206001600160a01b038e16835290935291909120549091508181101561312e576040516358b4690f60e01b81526001600160a01b038b1660048201526024810184905260448101839052606401610875565b61313a8a8a858561442c565b6000838152602081815260408083206001600160a01b038e168452909152902082820390558082141561318b576001600160a01b038a1660009081526003602052604090206131899084614522565b505b6000838152602081815260408083206001600160a01b038d1684529091529020546131b68382615716565b6000858152602081815260408083206001600160a01b038f16845290915290205580613200576001600160a01b038a1660009081526003602052604090206131fe908561452e565b505b505050508061320e9061580d565b905061308a565b50846001600160a01b0316866001600160a01b0316836001600160a01b03167f4a39dc06d4c0dbc64b70af90fd698a233a518aa5d07e595d983b8c0526c8f7fb8787604051613265929190615512565b60405180910390a4505050505050565b600062ffffff82111561329e57604051631da527cf60e21b815260048101839052602401610875565b5090565b6000808060001985870985870292508281108382030391505080600014156132dd578382816132d3576132d361583e565b0492505050612aa8565b8381106133075760405163656b542b60e11b81526004810182905260248101859052604401610875565b600084868809600260036001881981018916988990049182028318808302840302808302840302808302840302808302840302808302840302918202909203026000889003889004909101858311909403939093029303949094049190911702019392505050565b6001600160a01b03831661339657604051631306fc5960e11b815260040160405180910390fd5b6000828152602081815260408083206001600160a01b0387168452909152902054818110156133f057604051625b387760e31b81526001600160a01b03851660048201526024810184905260448101839052606401610875565b6133fd600085858561442c565b6000838152602081815260408083206001600160a01b03881684528252808320858503905585835260029091529020805483900390558082141561345f576001600160a01b038416600090815260036020526040902061345d9084614522565b505b60408051848152602081018490526000916001600160a01b0387169133917fc3d58168c5ae7397731d063d5bbf3d657854427343f4c083240f7aacaa2d0f6291015b60405180910390a450505050565b80156135a157604080516001600160a01b038481166024830152604480830185905283518084039091018152606490920183526020820180517bffffffffffffffffffffffffffffffffffffffffffffffffffffffff1663a9059cbb60e01b179052915160009283929087169161352691906154f6565b6000604051808303816000865af19150503d8060008114613563576040519150601f19603f3d011682016040523d82523d6000602084013e613568565b606091505b509150915081801561359257508051158061359257508080602001905181019061359291906153c7565b61359e57805181602001fd5b50505b505050565b6001600160a01b0383166000908152601160209081526040808320858452825291829020825180840184528154808252600192830154938201939093529287015161360592916135fb91908690608090613ef0565b612244919061578f565b865187906136149083906156f4565b6001600160801b03169052506020810151606086015161363d91906135fb908560806001613ef0565b8660200181815161364e91906156f4565b6001600160801b0316905250505050505050565b6040840151600090613678908360806001613ef0565b6060860151909150600090613691908460806001613ef0565b6001600160a01b039590951660009081526011602090815260408083209683529590529390932090815560010192909255505050565b6000610663825490565b6040516370a0823160e01b81523060048201526000908284019081906001600160a01b038716906370a082319060240160206040518083038186803b15801561371957600080fd5b505afa15801561372d573d6000803e3d6000fd5b505050506040513d601f19601f820116820180604052508101906137519190615476565b61375b919061578f565b95945050505050565b600081610120015164ffffffffff16420390506000826040015161ffff1682101561379e57506101008201516001600160481b03166137d9565b826060015161ffff168210156137d9576064836080015160ff16846101000151026001600160481b0316816137d5576137d561583e565b0490505b6001600160481b03166101009092019190915250565b60408051808201909152600080825260208201819052908190600061381b888a6000015160ff16613ec7565b9050600080881561384b5760208c01516001600160701b0316915061384482608085600061453a565b9050613869565b8b516001600160701b03169150613866838360806000613ef0565b90505b60008a891161387a57888b0361387e565b8a89035b905061389561388e8d8484613d5e565b8d90613d84565b805190955088906138b09084906001600160801b031661465b565b116138c05781965082955061391d565b6138ce61388e8d8a84614667565b80519095506138e79089906001600160801b0316614691565b965089613901576138fc87608086600161453a565b61390f565b61390f848860806001613ef0565b95508286111561391d578295505b5050505096509650969350505050565b82518451859061393e9083906156f4565b6001600160801b039081169091526020808601805191880180519092019092169052518451600092508391608091613976919061576f565b6001600160801b0316901b61398b919061572e565b905082156139ad5780866040018181516139a59190615716565b9052506139c3565b80866060018181516139bf9190615716565b9052505b505050505050565b60006001600160701b0382111561329e57604051631ce5dcf760e01b815260048101839052602401610875565b8215613a56578185600001818151613a1091906156c9565b6001600160701b0390811690915260208088018051859003909216909152850180516001600160881b03908501811690915260408601805184900390911690525061359e565b8185602001818151613a6891906156c9565b6001600160701b039081169091528651839003168652506020840180516001600160881b03908390038116909152604085018051840190911690525050505050565b610100820491600090819060ff16838015613ac457508015155b80613ad8575083158015613ad8575060ff81105b15613b155760008581526002870160205260409020549150613afb82828661469d565b90506000198114613b15576101008502019150612aa89050565b5061010084049360ff16838015613b2f5750610100850615155b80613b48575083158015613b485750610100850660ff14155b15613bad5760008581526001870160205260409020549150613b6b82828661469d565b90506000198114613bad576101009094028401938560026000878152910160205260409020549150613b9d82856146c6565b6101008602019250612aa8915050565b6000808052602087905260409020549150613bc982868661469d565b9450600019851415613bee576040516310d6486160e01b815260040160405180910390fd5b60008581526001870160205260409020549150613c0b82856146c6565b856101000201945085600260038110613c2657613c2661586a565b6000878152910160205260409020549150613c4182856146c6565b610100860201925050509392505050565b61010082015160e08301516001600160481b039182166127108402019116811115613c87575060e08201516001600160481b03165b613c90816146e7565b6001600160481b0316610100840152613ca842613d33565b64ffffffffff16610120909301929092525050565b600080613ce48585858d8a620100008110613cda57613cda61586a565b0154929190614714565b90508787420310158015613cf757508615155b613d015785613d0d565b613d0d8660018b6147d6565b9150808a83620100008110613d2457613d2461586a565b01555098975050505050505050565b600064ffffffffff82111561329e576040516302dfd99760e01b815260048101839052602401610875565b600080613d6b85846147e4565b9050670de0b6b3a76400008482025b0495945050505050565b6040805180820190915260008082526020820152613da182613e9a565b6001600160801b0316815260c083015160649060ff168302046001600160801b0316602082015292915050565b83546001600160801b03166000613def6001600160a01b03851684846136d1565b90508085600001516001600160801b03161115613e34578451604051633e1c705160e11b81526001600160801b03909116600482015260248101829052604401610875565b613e3d81613e9a565b6001600160801b0316808652613e5390836156f4565b8654602090960151600160801b6001600160801b039283166fffffffffffffffffffffffffffffffff19909816881781900483169091019091160290941790945550505050565b60006001600160801b0382111561329e5760405163089f6cfb60e21b815260048101839052602401610875565b6000627fffff198301613ee8612710608085901b04600160801b018261480f565b949350505050565b6000610100831115613f1857604051630b72ecf560e41b815260048101849052602401610875565b600082613f26576001613f29565b60005b60ff1690506000806000198789098789029250828110838203039150508060001415613f64578115613f5f57828203861c830193505b613fae565b6001861b8110613f9157604051633d90990f60e01b81526004810182905260248101879052604401610875565b8115613fa157828203861c830193505b856101000381901b840193505b505050949350505050565b600080613fc685846147e4565b90506ec097ce7bc90715b34b9f1000000000848202670de0b6b3a7640000830102613d7a565b6001600160a01b03831661401357604051632a97acbf60e11b815260040160405180910390fd5b614020600084848461442c565b6000828152600260205260408120805483929061403e908490615716565b90915550506000828152602081815260408083206001600160a01b03871684529091529020805482810190915580614094576001600160a01b0384166000908152600360205260409020614092908461452e565b505b60408051848152602081018490526001600160a01b0386169160009133917fc3d58168c5ae7397731d063d5bbf3d657854427343f4c083240f7aacaa2d0f6291016134a1565b6000808080866140fd5760405163c686b52f60e01b815260040160405180910390fd5b60008861410c8860018b6147d6565b62010000811061411e5761411e61586a565b0154905061412b81614a68565b945085851115614158576040516340a02e1d60e01b81526004810186905260248101879052604401610875565b8760011461424d5788876201000081106141745761417461586a565b0154905061418181614a68565b94508585111561424d5760006141998a89898c614a7b565b909250905081811461424b576000876141b183614a68565b03905060006141bf84614a68565b8903905081810180826141d186614b5f565b02846141dc88614b5f565b0201816141eb576141eb61583e565b04975080826141f986614b75565b028461420488614b75565b0201816142135761421361583e565b049650808261422186614b90565b028461422c88614b90565b02018161423b5761423b61583e565b049550899850505050505061427b565b505b61425681614a68565b945061426181614b5f565b935061426c81614b75565b925061427781614b90565b9150505b945094509450949050565b816001600160a01b0316836001600160a01b031614156142c45760405163782ee70760e01b81526001600160a01b0384166004820152602401610875565b6001600160a01b03838116600081815260016020908152604080832094871680845294825291829020805460ff191686151590811790915591519182527f17307eab39ab6107e8899845ad3d59bd9653f200f220920489ca2b5937696c31910160405180910390a3505050565b6008805461ffff838116600160981b8084048316918201928316027fffffffffffffffffffffff0000ffffffffffffffffffffffffffffffffffffff9093169290921790925590815b818110156143955761438d601282614b9c565b60010161437a565b5060408051838152602081018390527f525a4241308ea122822834c841f67b00d5efc977ad9118724750f974f7f6531c910160405180910390a1505050565b6000816001600160a01b0316836001600160a01b03161480612aa85750506001600160a01b03918216600090815260016020908152604080832093909416825291909152205460ff1690565b6000612aa88383614bbe565b6000828152600c6020908152604091829020825160808101845281546001600160701b038082168352600160701b909104169281019290925260018101549282019290925260029091015460608201526001600160a01b0385161580159061449d57506001600160a01b0385163014155b156144c15760006144ae8685610641565b90506144bf82878684878603614bee565b505b6001600160a01b038416158015906144e257506001600160a01b0384163014155b80156145005750846001600160a01b0316846001600160a01b031614155b1561359e5760006145118585610641565b90506139c382868684878601614bee565b6000612aa88383614c86565b6000612aa88383614d79565b600061010084111561456257604051630b72ecf560e41b815260048101859052602401610875565b84841b61010085900386901c806145b25781156145ad5783614599578460018303816145905761459061583e565b046001016145aa565b8482816145a8576145a861583e565b045b92505b614651565b8481106145dc5760405163d02f65c760e01b81526004810182905260248101869052604401610875565b6000856001881b89099050846145f3576000811193505b8519600190810187169687900496828503819004949092119092036000829003919091049091010217600384026002908118808602820302808602820302808602820302808602820302808602820302808602909103020201613ee8565b5050949350505050565b6000612aa88284615716565b60008061467485846147e4565b905080670de0b6b3a76400000181850281613d7a57613d7a61583e565b6000612aa8828461578f565b600081156146b9576146b28460018503614dc8565b9050612aa8565b613ee88484600101614dfa565b600081156146de576146d783614e18565b9050610663565b612aa883614ea8565b60006001600160481b0382111561329e57604051635dcdbe8b60e11b815260048101839052602401610875565b6000428161472187614a68565b82039050600081870261473389614b5f565b01905060008287026147448a614b75565b01905060008387026147558b614b90565b0190506501fffffffffe600186811b919091166c1ffffffffffffffe0000000000602986901b16791fffffffffffffffffffffffffe0000000000000000000000000606586901b167fffffffffffffe00000000000000000000000000000000000000000000000000060cd86901b16171717179a9950505050505050505050565b600081838508949350505050565b60006147f08383614f3e565b8351602085015160ff91821691160264e8d4a51000025b019392505050565b60008060008312156148245782600003614826565b825b90506000846000198161483b5761483b61583e565b049050600160801b600183161561485257810260801c5b90800260801c90600283161561486857810260801c5b90800260801c90600483161561487e57810260801c5b90800260801c90600883161561489457810260801c5b90800260801c9060108316156148aa57810260801c5b90800260801c9060208316156148c057810260801c5b90800260801c9060408316156148d657810260801c5b908002608090811c91908316156148ed57810260801c5b90800260801c9061010083161561490457810260801c5b90800260801c9061020083161561491b57810260801c5b90800260801c9061040083161561493257810260801c5b90800260801c9061080083161561494957810260801c5b90800260801c9061100083161561496057810260801c5b90800260801c9061200083161561497757810260801c5b90800260801c9061400083161561498e57810260801c5b90800260801c906180008316156149a557810260801c5b90800260801c90620100008316156149bd57810260801c5b90800260801c90620200008316156149d557810260801c5b90800260801c90620400008316156149ed57810260801c5b90800260801c9062080000831615614a0557810260801c5b801580614a145750620fffff83115b15614a3c57604051630e9c7d6160e31b81526004810187905260248101869052604401610875565b6000851315614a5c578060001981614a5657614a5661583e565b04614a5e565b805b9695505050505050565b6000600182901c64ffffffffff16610663565b600080600183828080805b858510614afb576002868601049350614aa0848c8b6147d6565b92508b83620100008110614ab657614ab661586a565b01549150614ac382614a68565b905089811015614ad857836001019550614a86565b89811115614aeb57600184039450614a86565b509550859450614b569350505050565b898110614b27578b614b0d848b614faa565b620100008110614b1f57614b1f61586a565b015482614b4a565b818c614b358560018d6147d6565b620100008110614b4757614b4761586a565b01545b90985096505050505050505b94509492505050565b6000602982901c670fffffffffffffff16610663565b6000606582901c6cffffffffffffffffffffffffff16610663565b600060cd82901c610663565b60018282620100008110614bb257614bb261586a565b01805490911790555050565b6000826000018281548110614bd557614bd561586a565b9060005260206000200154905092915050565b50505050565b6001600160a01b0384166000908152601060209081526040918290208251808401909352546001600160801b038082168452600160801b9091041690820152614c3a81878787876135a6565b614c4686868685613662565b6001600160a01b039094166000908152601060209081526040909120855191909501516001600160801b03908116600160801b0291161790935550505050565b60008181526001830160205260408120548015614d6f576000614caa60018361578f565b8554909150600090614cbe9060019061578f565b9050818114614d23576000866000018281548110614cde57614cde61586a565b9060005260206000200154905080876000018481548110614d0157614d0161586a565b6000918252602080832090910192909255918252600188019052604090208390555b8554869080614d3457614d34615854565b600190038181906000526020600020016000905590558560010160008681526020019081526020016000206000905560019350505050610663565b6000915050610663565b6000818152600183016020526040812054614dc057508154600181810184556000848152602080822090930184905584548482528286019093526040902091909155610663565b506000610663565b60008160ff0383901b92508260001415614de55750600019610663565b8160ff03614df284614e18565b039392505050565b90811c90600082614e0e5750600019610663565b8161480784614ea8565b6000600160801b8210614e2d57608091821c91015b600160401b8210614e4057604091821c91015b6401000000008210614e5457602091821c91015b620100008210614e6657601091821c91015b6101008210614e7757600891821c91015b60108210614e8757600491821c91015b60048210614e9757600291821c91015b60028210614ea3576001015b919050565b6000608082901b15614ebc57608091821b91015b604082901b15614ece57604091821b91015b602082901b15614ee057602091821b91015b601082901b15614ef257601091821b91015b600882901b15614f0457600891821b91015b600482901b15614f1657600491821b91015b600282901b15614f2857600291821b91015b600182901b15614f36576001015b60ff03919050565b6000826080015160ff1660001415614f5857506000610663565b61010083015160e08401516001600160481b039182166127108502019116811115614f8d575060e08301516001600160481b03165b8351608085015160ff908116911691909102800202905092915050565b6000816001830384089392505050565b600082601f830112614fcb57600080fd5b8135602067ffffffffffffffff821115614fe757614fe7615880565b8160051b614ff6828201615698565b83815282810190868401838801850189101561501157600080fd5b600093505b85841015615034578035835260019390930192918401918401615016565b50979650505050505050565b803562ffffff81168114614ea357600080fd5b60006020828403121561506557600080fd5b8135612aa881615896565b60006020828403121561508257600080fd5b8151612aa881615896565b600080604083850312156150a057600080fd5b82356150ab81615896565b915060208301356150bb81615896565b809150509250929050565b600080600080608085870312156150dc57600080fd5b84356150e781615896565b935060208501356150f781615896565b9250604085013567ffffffffffffffff8082111561511457600080fd5b61512088838901614fba565b9350606087013591508082111561513657600080fd5b5061514387828801614fba565b91505092959194509250565b6000806040838503121561516257600080fd5b823561516d81615896565b9150602083013567ffffffffffffffff81111561518957600080fd5b61519585828601614fba565b9150509250929050565b600080604083850312156151b257600080fd5b82356151bd81615896565b915060208301356150bb816158ab565b600080604083850312156151e057600080fd5b82356151eb81615896565b946020939093013593505050565b6000806000806080858703121561520f57600080fd5b843561521a81615896565b9350602085810135935060408601359250606086013567ffffffffffffffff8082111561524657600080fd5b818801915088601f83011261525a57600080fd5b81358181111561526c5761526c615880565b61527e601f8201601f19168501615698565b9150808252898482850101111561529457600080fd5b808484018584013760008482840101525080935050505092959194509250565b6000806000606084860312156152c957600080fd5b833567ffffffffffffffff808211156152e157600080fd5b6152ed87838801614fba565b9450602086013591508082111561530357600080fd5b5061531086828701614fba565b925050604084013561532181615896565b809150509250925092565b6000806000806080858703121561534257600080fd5b843567ffffffffffffffff8082111561535a57600080fd5b61536688838901614fba565b9550602087013591508082111561537c57600080fd5b61538888838901614fba565b9450604087013591508082111561539e57600080fd5b506153ab87828801614fba565b92505060608501356153bc81615896565b939692955090935050565b6000602082840312156153d957600080fd5b8151612aa8816158ab565b600080604083850312156153f757600080fd5b82356150ab816158ab565b60006020828403121561541457600080fd5b5035919050565b60006020828403121561542d57600080fd5b813561ffff81168114612aa857600080fd5b60006020828403121561545157600080fd5b612aa882615040565b6000806040838503121561546d57600080fd5b6151bd83615040565b60006020828403121561548857600080fd5b5051919050565b600081518084526020808501945080840160005b838110156154bf578151875295820195908201906001016154a3565b509495945050505050565b600081518084526154e28160208601602086016157a6565b601f01601f19169290920160200192915050565b600082516155088184602087016157a6565b9190910192915050565b604081526000615525604083018561548f565b828103602084015261375b818561548f565b60a08152600061554a60a083018861548f565b828103602084015261555c818861548f565b90508281036040840152615570818761548f565b60608401959095525050608001529392505050565b602081526000612aa860208301846154ca565b815160ff168152610140810160208301516155b8602084018260ff169052565b5060408301516155ce604084018261ffff169052565b5060608301516155e4606084018261ffff169052565b5060808301516155f9608084018260ff169052565b5060a083015161560e60a084018260ff169052565b5060c083015161562360c084018260ff169052565b5060e083015161563e60e08401826001600160481b03169052565b50610100838101516001600160481b0316908301526101209283015164ffffffffff16929091019190915290565b60006001600160801b0380861683528085166020840152506060604083015261375b60608301846154ca565b604051601f8201601f1916810167ffffffffffffffff811182821017156156c1576156c1615880565b604052919050565b60006001600160701b038083168185168083038211156156eb576156eb615828565b01949350505050565b60006001600160801b038083168185168083038211156156eb576156eb615828565b6000821982111561572957615729615828565b500190565b60008261574b57634e487b7160e01b600052601260045260246000fd5b500490565b600081600019048311821515161561576a5761576a615828565b500290565b60006001600160801b0383811690831681811015614df257614df2615828565b6000828210156157a1576157a1615828565b500390565b60005b838110156157c15781810151838201526020016157a9565b83811115614be85750506000910152565b600181811c908216806157e657607f821691505b6020821081141561580757634e487b7160e01b600052602260045260246000fd5b50919050565b600060001982141561582157615821615828565b5060010190565b634e487b7160e01b600052601160045260246000fd5b634e487b7160e01b600052601260045260246000fd5b634e487b7160e01b600052603160045260246000fd5b634e487b7160e01b600052603260045260246000fd5b634e487b7160e01b600052604160045260246000fd5b6001600160a01b03811681146119d357600080fd5b80151581146119d357600080fdfea26469706673582212207f172366fec53e5a91e22896c740eba5e02c9bb7e92bcf4726ad9a77a2dcee3a64736f6c63430008070033",
    "linkReferences": {}
  },
  "methodIdentifiers": {
    "balanceOf(address,uint256)": "00fdd58e",
    "burn(uint256[],uint256[],address)": "0acd451d",
    "collectFees(address,uint256[])": "225b20b9",
    "collectProtocolFees()": "a1af5b9a",
    "decimals()": "313ce567",
    "factory()": "c45a0155",
    "feeParameters()": "98c7adf3",
    "findFirstNonEmptyBinId(uint24,bool)": "8f919a83",
    "flashLoan(address,uint256,uint256,bytes)": "679f0579",
    "getBin(uint24)": "0abe9688",
    "getGlobalFees()": "a582cdaa",
    "getOracleParameters()": "55182894",
    "getOracleSampleFrom(uint256)": "a21635a7",
    "getReservesAndId()": "1b05b83e",
    "increaseOracleLength(uint16)": "c7bd6586",
    "isApprovedForAll(address,address)": "e985e9c5",
    "mint(uint256[],uint256[],uint256[],address)": "714c8592",
    "name()": "06fdde03",
    "pendingFees(address,uint256[])": "f7cff1f8",
    "safeBatchTransferFrom(address,address,uint256[],uint256[])": "fba0ee64",
    "setApprovalForAll(address,bool)": "a22cb465",
    "setFeesParameters(bytes32)": "54b5fc87",
    "swap(bool,address)": "53c059a0",
    "symbol()": "95d89b41",
    "tokenX()": "16dc165b",
    "tokenY()": "b7d19fc4",
    "totalSupply(uint256)": "bd85b039",
    "userPositionAt(address,uint256)": "f88f4fe3",
    "userPositionNb(address)": "40c31c7d"
  },
  "id": 19
}