{
  "abi": [
    {
      "inputs": [
        {
          "internalType": "contract ILBFactory",
          "name": "_factory",
          "type": "address"
        },
        {
          "internalType": "contract IJoeFactory",
          "name": "_oldFactory",
          "type": "address"
        },
        {
          "internalType": "contract IWAVAX",
          "name": "_wavax",
          "type": "address"
        }
      ],
      "stateMutability": "nonpayable",
      "type": "constructor"
    },
    {
      "inputs": [
        {
          "internalType": "int256",
          "name": "_id",
          "type": "int256"
        }
      ],
      "name": "BinHelper__IdOverflows",
      "type": "error"
    },
    {
      "inputs": [
        {
          "internalType": "uint256",
          "name": "amountXMin",
          "type": "uint256"
        },
        {
          "internalType": "uint256",
          "name": "amountX",
          "type": "uint256"
        },
        {
          "internalType": "uint256",
          "name": "amountYMin",
          "type": "uint256"
        },
        {
          "internalType": "uint256",
          "name": "amountY",
          "type": "uint256"
        }
      ],
      "name": "LBRouter__AmountSlippageCaught",
      "type": "error"
    },
    {
      "inputs": [
        {
          "internalType": "uint256",
          "name": "id",
          "type": "uint256"
        }
      ],
      "name": "LBRouter__BinReserveOverflows",
      "type": "error"
    },
    {
      "inputs": [],
      "name": "LBRouter__BrokenSwapSafetyCheck",
      "type": "error"
    },
    {
      "inputs": [
        {
          "internalType": "uint256",
          "name": "deadline",
          "type": "uint256"
        },
        {
          "internalType": "uint256",
          "name": "currentTimestamp",
          "type": "uint256"
        }
      ],
      "name": "LBRouter__DeadlineExceeded",
      "type": "error"
    },
    {
      "inputs": [
        {
          "internalType": "address",
          "name": "recipient",
          "type": "address"
        },
        {
          "internalType": "uint256",
          "name": "amount",
          "type": "uint256"
        }
      ],
      "name": "LBRouter__FailedToSendAVAX",
      "type": "error"
    },
    {
      "inputs": [
        {
          "internalType": "uint256",
          "name": "idDesired",
          "type": "uint256"
        },
        {
          "internalType": "uint256",
          "name": "idSlippage",
          "type": "uint256"
        }
      ],
      "name": "LBRouter__IdDesiredOverflows",
      "type": "error"
    },
    {
      "inputs": [
        {
          "internalType": "int256",
          "name": "id",
          "type": "int256"
        }
      ],
      "name": "LBRouter__IdOverflows",
      "type": "error"
    },
    {
      "inputs": [
        {
          "internalType": "uint256",
          "name": "activeIdDesired",
          "type": "uint256"
        },
        {
          "internalType": "uint256",
          "name": "idSlippage",
          "type": "uint256"
        },
        {
          "internalType": "uint256",
          "name": "activeId",
          "type": "uint256"
        }
      ],
      "name": "LBRouter__IdSlippageCaught",
      "type": "error"
    },
    {
      "inputs": [
        {
          "internalType": "uint256",
          "name": "amountOutMin",
          "type": "uint256"
        },
        {
          "internalType": "uint256",
          "name": "amountOut",
          "type": "uint256"
        }
      ],
      "name": "LBRouter__InsufficientAmountOut",
      "type": "error"
    },
    {
      "inputs": [
        {
          "internalType": "contract IERC20",
          "name": "wrongToken",
          "type": "address"
        }
      ],
      "name": "LBRouter__InvalidTokenPath",
      "type": "error"
    },
    {
      "inputs": [
        {
          "internalType": "contract ILBPair",
          "name": "LBPair",
          "type": "address"
        }
      ],
      "name": "LBRouter__LBPairBlacklisted",
      "type": "error"
    },
    {
      "inputs": [],
      "name": "LBRouter__LengthsMismatch",
      "type": "error"
    },
    {
      "inputs": [
        {
          "internalType": "uint256",
          "name": "amountInMax",
          "type": "uint256"
        },
        {
          "internalType": "uint256",
          "name": "amountIn",
          "type": "uint256"
        }
      ],
      "name": "LBRouter__MaxAmountInExceeded",
      "type": "error"
    },
    {
      "inputs": [],
      "name": "LBRouter__NotFactoryOwner",
      "type": "error"
    },
    {
      "inputs": [
        {
          "internalType": "contract IERC20",
          "name": "tokenX",
          "type": "address"
        },
        {
          "internalType": "contract IERC20",
          "name": "tokenY",
          "type": "address"
        },
        {
          "internalType": "uint256",
          "name": "binStep",
          "type": "uint256"
        }
      ],
      "name": "LBRouter__PairNotCreated",
      "type": "error"
    },
    {
      "inputs": [],
      "name": "LBRouter__SenderIsNotWAVAX",
      "type": "error"
    },
    {
      "inputs": [
        {
          "internalType": "uint256",
          "name": "id",
          "type": "uint256"
        }
      ],
      "name": "LBRouter__SwapOverflows",
      "type": "error"
    },
    {
      "inputs": [
        {
          "internalType": "uint256",
          "name": "excess",
          "type": "uint256"
        }
      ],
      "name": "LBRouter__TooMuchTokensIn",
      "type": "error"
    },
    {
      "inputs": [
        {
          "internalType": "uint256",
          "name": "amount",
          "type": "uint256"
        },
        {
          "internalType": "uint256",
          "name": "reserve",
          "type": "uint256"
        }
      ],
      "name": "LBRouter__WrongAmounts",
      "type": "error"
    },
    {
      "inputs": [
        {
          "internalType": "uint256",
          "name": "x",
          "type": "uint256"
        },
        {
          "internalType": "int256",
          "name": "y",
          "type": "int256"
        }
      ],
      "name": "Math128x128__PowerUnderflow",
      "type": "error"
    },
    {
      "inputs": [
        {
          "internalType": "uint256",
          "name": "prod1",
          "type": "uint256"
        },
        {
          "internalType": "uint256",
          "name": "offset",
          "type": "uint256"
        }
      ],
      "name": "Math512Bits__MulShiftOverflow",
      "type": "error"
    },
    {
      "inputs": [
        {
          "internalType": "uint256",
          "name": "offset",
          "type": "uint256"
        }
      ],
      "name": "Math512Bits__OffsetOverflows",
      "type": "error"
    },
    {
      "inputs": [
        {
          "internalType": "uint256",
          "name": "prod1",
          "type": "uint256"
        },
        {
          "internalType": "uint256",
          "name": "denominator",
          "type": "uint256"
        }
      ],
      "name": "Math512Bits__ShiftDivOverflow",
      "type": "error"
    },
    {
      "inputs": [
        {
          "internalType": "uint256",
          "name": "x",
          "type": "uint256"
        }
      ],
      "name": "SafeCast__Exceeds128Bits",
      "type": "error"
    },
    {
      "inputs": [
        {
          "components": [
            {
              "internalType": "contract IERC20",
              "name": "tokenX",
              "type": "address"
            },
            {
              "internalType": "contract IERC20",
              "name": "tokenY",
              "type": "address"
            },
            {
              "internalType": "uint256",
              "name": "binStep",
              "type": "uint256"
            },
            {
              "internalType": "uint256",
              "name": "amountX",
              "type": "uint256"
            },
            {
              "internalType": "uint256",
              "name": "amountY",
              "type": "uint256"
            },
            {
              "internalType": "uint256",
              "name": "amountXMin",
              "type": "uint256"
            },
            {
              "internalType": "uint256",
              "name": "amountYMin",
              "type": "uint256"
            },
            {
              "internalType": "uint256",
              "name": "activeIdDesired",
              "type": "uint256"
            },
            {
              "internalType": "uint256",
              "name": "idSlippage",
              "type": "uint256"
            },
            {
              "internalType": "int256[]",
              "name": "deltaIds",
              "type": "int256[]"
            },
            {
              "internalType": "uint256[]",
              "name": "distributionX",
              "type": "uint256[]"
            },
            {
              "internalType": "uint256[]",
              "name": "distributionY",
              "type": "uint256[]"
            },
            {
              "internalType": "address",
              "name": "to",
              "type": "address"
            },
            {
              "internalType": "uint256",
              "name": "deadline",
              "type": "uint256"
            }
          ],
          "internalType": "struct ILBRouter.LiquidityParameters",
          "name": "_liquidityParameters",
          "type": "tuple"
        }
      ],
      "name": "addLiquidity",
      "outputs": [],
      "stateMutability": "nonpayable",
      "type": "function"
    },
    {
      "inputs": [
        {
          "components": [
            {
              "internalType": "contract IERC20",
              "name": "tokenX",
              "type": "address"
            },
            {
              "internalType": "contract IERC20",
              "name": "tokenY",
              "type": "address"
            },
            {
              "internalType": "uint256",
              "name": "binStep",
              "type": "uint256"
            },
            {
              "internalType": "uint256",
              "name": "amountX",
              "type": "uint256"
            },
            {
              "internalType": "uint256",
              "name": "amountY",
              "type": "uint256"
            },
            {
              "internalType": "uint256",
              "name": "amountXMin",
              "type": "uint256"
            },
            {
              "internalType": "uint256",
              "name": "amountYMin",
              "type": "uint256"
            },
            {
              "internalType": "uint256",
              "name": "activeIdDesired",
              "type": "uint256"
            },
            {
              "internalType": "uint256",
              "name": "idSlippage",
              "type": "uint256"
            },
            {
              "internalType": "int256[]",
              "name": "deltaIds",
              "type": "int256[]"
            },
            {
              "internalType": "uint256[]",
              "name": "distributionX",
              "type": "uint256[]"
            },
            {
              "internalType": "uint256[]",
              "name": "distributionY",
              "type": "uint256[]"
            },
            {
              "internalType": "address",
              "name": "to",
              "type": "address"
            },
            {
              "internalType": "uint256",
              "name": "deadline",
              "type": "uint256"
            }
          ],
          "internalType": "struct ILBRouter.LiquidityParameters",
          "name": "_liquidityParameters",
          "type": "tuple"
        }
      ],
      "name": "addLiquidityAVAX",
      "outputs": [],
      "stateMutability": "payable",
      "type": "function"
    },
    {
      "inputs": [
        {
          "internalType": "contract IERC20",
          "name": "_tokenX",
          "type": "address"
        },
        {
          "internalType": "contract IERC20",
          "name": "_tokenY",
          "type": "address"
        },
        {
          "internalType": "uint24",
          "name": "_activeId",
          "type": "uint24"
        },
        {
          "internalType": "uint16",
          "name": "_binStep",
          "type": "uint16"
        }
      ],
      "name": "createLBPair",
      "outputs": [],
      "stateMutability": "nonpayable",
      "type": "function"
    },
    {
      "inputs": [],
      "name": "factory",
      "outputs": [
        {
          "internalType": "contract ILBFactory",
          "name": "",
          "type": "address"
        }
      ],
      "stateMutability": "view",
      "type": "function"
    },
    {
      "inputs": [
        {
          "internalType": "contract ILBPair",
          "name": "_LBPair",
          "type": "address"
        },
        {
          "internalType": "uint256",
          "name": "_price",
          "type": "uint256"
        }
      ],
      "name": "getIdFromPrice",
      "outputs": [
        {
          "internalType": "uint24",
          "name": "",
          "type": "uint24"
        }
      ],
      "stateMutability": "view",
      "type": "function"
    },
    {
      "inputs": [
        {
          "internalType": "contract ILBPair",
          "name": "_LBPair",
          "type": "address"
        },
        {
          "internalType": "uint24",
          "name": "_id",
          "type": "uint24"
        }
      ],
      "name": "getPriceFromId",
      "outputs": [
        {
          "internalType": "uint256",
          "name": "",
          "type": "uint256"
        }
      ],
      "stateMutability": "view",
      "type": "function"
    },
    {
      "inputs": [
        {
          "internalType": "contract ILBPair",
          "name": "_LBPair",
          "type": "address"
        },
        {
          "internalType": "uint256",
          "name": "_amountOut",
          "type": "uint256"
        },
        {
          "internalType": "bool",
          "name": "_swapForY",
          "type": "bool"
        }
      ],
      "name": "getSwapIn",
      "outputs": [
        {
          "internalType": "uint256",
          "name": "amountIn",
          "type": "uint256"
        }
      ],
      "stateMutability": "view",
      "type": "function"
    },
    {
      "inputs": [
        {
          "internalType": "contract ILBPair",
          "name": "_LBPair",
          "type": "address"
        },
        {
          "internalType": "uint256",
          "name": "_amountIn",
          "type": "uint256"
        },
        {
          "internalType": "bool",
          "name": "_swapForY",
          "type": "bool"
        }
      ],
      "name": "getSwapOut",
      "outputs": [
        {
          "internalType": "uint256",
          "name": "_amountOut",
          "type": "uint256"
        }
      ],
      "stateMutability": "view",
      "type": "function"
    },
    {
      "inputs": [],
      "name": "oldFactory",
      "outputs": [
        {
          "internalType": "contract IJoeFactory",
          "name": "",
          "type": "address"
        }
      ],
      "stateMutability": "view",
      "type": "function"
    },
    {
      "inputs": [
        {
          "internalType": "contract IERC20",
          "name": "_tokenX",
          "type": "address"
        },
        {
          "internalType": "contract IERC20",
          "name": "_tokenY",
          "type": "address"
        },
        {
          "internalType": "uint8",
          "name": "_binStep",
          "type": "uint8"
        },
        {
          "internalType": "uint256",
          "name": "_amountXMin",
          "type": "uint256"
        },
        {
          "internalType": "uint256",
          "name": "_amountYMin",
          "type": "uint256"
        },
        {
          "internalType": "uint256[]",
          "name": "_ids",
          "type": "uint256[]"
        },
        {
          "internalType": "uint256[]",
          "name": "_amounts",
          "type": "uint256[]"
        },
        {
          "internalType": "address",
          "name": "_to",
          "type": "address"
        },
        {
          "internalType": "uint256",
          "name": "_deadline",
          "type": "uint256"
        }
      ],
      "name": "removeLiquidity",
      "outputs": [],
      "stateMutability": "nonpayable",
      "type": "function"
    },
    {
      "inputs": [
        {
          "internalType": "contract IERC20",
          "name": "_token",
          "type": "address"
        },
        {
          "internalType": "uint8",
          "name": "_binStep",
          "type": "uint8"
        },
        {
          "internalType": "uint256",
          "name": "_amountTokenMin",
          "type": "uint256"
        },
        {
          "internalType": "uint256",
          "name": "_amountAVAXMin",
          "type": "uint256"
        },
        {
          "internalType": "uint256[]",
          "name": "_ids",
          "type": "uint256[]"
        },
        {
          "internalType": "uint256[]",
          "name": "_amounts",
          "type": "uint256[]"
        },
        {
          "internalType": "address",
          "name": "_to",
          "type": "address"
        },
        {
          "internalType": "uint256",
          "name": "_deadline",
          "type": "uint256"
        }
      ],
      "name": "removeLiquidityAVAX",
      "outputs": [],
      "stateMutability": "nonpayable",
      "type": "function"
    },
    {
      "inputs": [
        {
          "internalType": "uint256",
          "name": "_amountOut",
          "type": "uint256"
        },
        {
          "internalType": "uint256[]",
          "name": "_pairBinSteps",
          "type": "uint256[]"
        },
        {
          "internalType": "contract IERC20[]",
          "name": "_tokenPath",
          "type": "address[]"
        },
        {
          "internalType": "address",
          "name": "_to",
          "type": "address"
        },
        {
          "internalType": "uint256",
          "name": "_deadline",
          "type": "uint256"
        }
      ],
      "name": "swapAVAXForExactTokens",
      "outputs": [],
      "stateMutability": "payable",
      "type": "function"
    },
    {
      "inputs": [
        {
          "internalType": "uint256",
          "name": "_amountOutMin",
          "type": "uint256"
        },
        {
          "internalType": "uint256[]",
          "name": "_pairBinSteps",
          "type": "uint256[]"
        },
        {
          "internalType": "contract IERC20[]",
          "name": "_tokenPath",
          "type": "address[]"
        },
        {
          "internalType": "address",
          "name": "_to",
          "type": "address"
        },
        {
          "internalType": "uint256",
          "name": "_deadline",
          "type": "uint256"
        }
      ],
      "name": "swapExactAVAXForTokens",
      "outputs": [],
      "stateMutability": "payable",
      "type": "function"
    },
    {
      "inputs": [
        {
          "internalType": "uint256",
          "name": "_amountOutMin",
          "type": "uint256"
        },
        {
          "internalType": "uint256[]",
          "name": "_pairBinSteps",
          "type": "uint256[]"
        },
        {
          "internalType": "contract IERC20[]",
          "name": "_tokenPath",
          "type": "address[]"
        },
        {
          "internalType": "address",
          "name": "_to",
          "type": "address"
        },
        {
          "internalType": "uint256",
          "name": "_deadline",
          "type": "uint256"
        }
      ],
      "name": "swapExactAVAXForTokensSupportingFeeOnTransferTokens",
      "outputs": [],
      "stateMutability": "payable",
      "type": "function"
    },
    {
      "inputs": [
        {
          "internalType": "uint256",
          "name": "_amountIn",
          "type": "uint256"
        },
        {
          "internalType": "uint256",
          "name": "_amountOutMinAVAX",
          "type": "uint256"
        },
        {
          "internalType": "uint256[]",
          "name": "_pairBinSteps",
          "type": "uint256[]"
        },
        {
          "internalType": "contract IERC20[]",
          "name": "_tokenPath",
          "type": "address[]"
        },
        {
          "internalType": "address",
          "name": "_to",
          "type": "address"
        },
        {
          "internalType": "uint256",
          "name": "_deadline",
          "type": "uint256"
        }
      ],
      "name": "swapExactTokensForAVAX",
      "outputs": [],
      "stateMutability": "nonpayable",
      "type": "function"
    },
    {
      "inputs": [
        {
          "internalType": "uint256",
          "name": "_amountIn",
          "type": "uint256"
        },
        {
          "internalType": "uint256",
          "name": "_amountOutMinAVAX",
          "type": "uint256"
        },
        {
          "internalType": "uint256[]",
          "name": "_pairBinSteps",
          "type": "uint256[]"
        },
        {
          "internalType": "contract IERC20[]",
          "name": "_tokenPath",
          "type": "address[]"
        },
        {
          "internalType": "address",
          "name": "_to",
          "type": "address"
        },
        {
          "internalType": "uint256",
          "name": "_deadline",
          "type": "uint256"
        }
      ],
      "name": "swapExactTokensForAVAXSupportingFeeOnTransferTokens",
      "outputs": [],
      "stateMutability": "nonpayable",
      "type": "function"
    },
    {
      "inputs": [
        {
          "internalType": "uint256",
          "name": "_amountIn",
          "type": "uint256"
        },
        {
          "internalType": "uint256",
          "name": "_amountOutMin",
          "type": "uint256"
        },
        {
          "internalType": "uint256[]",
          "name": "_pairBinSteps",
          "type": "uint256[]"
        },
        {
          "internalType": "contract IERC20[]",
          "name": "_tokenPath",
          "type": "address[]"
        },
        {
          "internalType": "address",
          "name": "_to",
          "type": "address"
        },
        {
          "internalType": "uint256",
          "name": "_deadline",
          "type": "uint256"
        }
      ],
      "name": "swapExactTokensForTokens",
      "outputs": [],
      "stateMutability": "nonpayable",
      "type": "function"
    },
    {
      "inputs": [
        {
          "internalType": "uint256",
          "name": "_amountIn",
          "type": "uint256"
        },
        {
          "internalType": "uint256",
          "name": "_amountOutMin",
          "type": "uint256"
        },
        {
          "internalType": "uint256[]",
          "name": "_pairBinSteps",
          "type": "uint256[]"
        },
        {
          "internalType": "contract IERC20[]",
          "name": "_tokenPath",
          "type": "address[]"
        },
        {
          "internalType": "address",
          "name": "_to",
          "type": "address"
        },
        {
          "internalType": "uint256",
          "name": "_deadline",
          "type": "uint256"
        }
      ],
      "name": "swapExactTokensForTokensSupportingFeeOnTransferTokens",
      "outputs": [],
      "stateMutability": "nonpayable",
      "type": "function"
    },
    {
      "inputs": [
        {
          "internalType": "uint256",
          "name": "_amountAVAXOut",
          "type": "uint256"
        },
        {
          "internalType": "uint256",
          "name": "_amountInMax",
          "type": "uint256"
        },
        {
          "internalType": "uint256[]",
          "name": "_pairBinSteps",
          "type": "uint256[]"
        },
        {
          "internalType": "contract IERC20[]",
          "name": "_tokenPath",
          "type": "address[]"
        },
        {
          "internalType": "address",
          "name": "_to",
          "type": "address"
        },
        {
          "internalType": "uint256",
          "name": "_deadline",
          "type": "uint256"
        }
      ],
      "name": "swapTokensForExactAVAX",
      "outputs": [],
      "stateMutability": "nonpayable",
      "type": "function"
    },
    {
      "inputs": [
        {
          "internalType": "uint256",
          "name": "_amountOut",
          "type": "uint256"
        },
        {
          "internalType": "uint256",
          "name": "_amountInMax",
          "type": "uint256"
        },
        {
          "internalType": "uint256[]",
          "name": "_pairBinSteps",
          "type": "uint256[]"
        },
        {
          "internalType": "contract IERC20[]",
          "name": "_tokenPath",
          "type": "address[]"
        },
        {
          "internalType": "address",
          "name": "_to",
          "type": "address"
        },
        {
          "internalType": "uint256",
          "name": "_deadline",
          "type": "uint256"
        }
      ],
      "name": "swapTokensForExactTokens",
      "outputs": [],
      "stateMutability": "nonpayable",
      "type": "function"
    },
    {
      "inputs": [
        {
          "internalType": "contract IERC20",
          "name": "_token",
          "type": "address"
        },
        {
          "internalType": "address",
          "name": "_to",
          "type": "address"
        },
        {
          "internalType": "uint256",
          "name": "_amount",
          "type": "uint256"
        }
      ],
      "name": "sweep",
      "outputs": [],
      "stateMutability": "nonpayable",
      "type": "function"
    },
    {
      "inputs": [],
      "name": "wavax",
      "outputs": [
        {
          "internalType": "contract IWAVAX",
          "name": "",
          "type": "address"
        }
      ],
      "stateMutability": "view",
      "type": "function"
    },
    {
      "stateMutability": "payable",
      "type": "receive"
    }
  ],
  "bytecode": {
    "object": "0x60e06040523480156200001157600080fd5b506040516200595e3803806200595e83398101604081905262000034916200006b565b6001600160a01b0392831660805290821660a0521660c052620000bf565b6001600160a01b03811681146200006857600080fd5b50565b6000806000606084860312156200008157600080fd5b83516200008e8162000052565b6020850151909350620000a18162000052565b6040850151909250620000b48162000052565b809150509250925092565b60805160a05160c0516157dc6200018260003960008181610189015281816101e001528181610c1c01528181610e6601528181611784015281816118db01528181611a5701528181611aff01528181611b8c01528181611c6401528181611cf701528181611dd4015281816121750152818161225001528181612b8601528181612c1b01528181613dce0152613e36015260008181610231015261441001526000818161040c015281816113f4015281816115b20152613af601526157dc6000f3fe6080604052600436106101795760003560e01c80636d3420ed116100cb578063c45a01551161007f578063ea8f43d811610059578063ea8f43d81461046e578063f96fe92514610481578063fb321c70146104b557600080fd5b8063c45a0155146103fa578063d0e380f21461042e578063e324a3e41461044e57600080fd5b80638a882c98116100b05780638a882c981461039a5780639a17e820146103ba578063a7b856d3146103da57600080fd5b80636d3420ed1461035a578063839aefa71461037a57600080fd5b806342f564a01161012d57806362c067671161010757806362c06767146102fa578063659ac74b1461031a5780636d0ff4951461033a57600080fd5b806342f564a0146102b4578063440830bd146102c75780635bdd4b7c146102da57600080fd5b80632004b7241161015e5780632004b72414610253578063212a1d9414610281578063264bb94e146102a157600080fd5b8063117be4c2146101ce5780631bd6dfe11461021f57600080fd5b366101c957336001600160a01b037f000000000000000000000000000000000000000000000000000000000000000016146101c7576040516310d0bef760e31b815260040160405180910390fd5b005b600080fd5b3480156101da57600080fd5b506102027f000000000000000000000000000000000000000000000000000000000000000081565b6040516001600160a01b0390911681526020015b60405180910390f35b34801561022b57600080fd5b506102027f000000000000000000000000000000000000000000000000000000000000000081565b34801561025f57600080fd5b5061027361026e366004614be1565b6104d5565b604051908152602001610216565b34801561028d57600080fd5b506101c761029c366004614db6565b610895565b6101c76102af366004614e4a565b610ad0565b6101c76102c2366004614e4a565b610bb2565b6101c76102d5366004614e4a565b610dfc565b3480156102e657600080fd5b506102736102f5366004614be1565b61105f565b34801561030657600080fd5b506101c7610315366004614ed2565b6113f2565b34801561032657600080fd5b506101c7610335366004614f36565b611576565b34801561034657600080fd5b506101c7610355366004614db6565b611635565b34801561036657600080fd5b506101c7610375366004614db6565b61171a565b34801561038657600080fd5b506101c7610395366004614faa565b611949565b3480156103a657600080fd5b506101c76103b5366004615072565b611a24565b3480156103c657600080fd5b506101c76103d5366004614db6565b611bfa565b3480156103e657600080fd5b506101c76103f5366004614db6565b611e85565b34801561040657600080fd5b506102027f000000000000000000000000000000000000000000000000000000000000000081565b34801561043a57600080fd5b5061027361044936600461512d565b611fd2565b34801561045a57600080fd5b506101c7610469366004615162565b612061565b6101c761047c366004615162565b61206d565b34801561048d57600080fd5b506104a161049c3660046152ab565b61208a565b60405162ffffff9091168152602001610216565b3480156104c157600080fd5b506101c76104d0366004614db6565b61210b565b6000610549604080516101408101825260008082526020808301829052828401829052606083018290526080830182905260a0830182905260c0830182905260e083018290528351808501855282815280820183905261010084015283518085019094528184528301529061012082015290565b6000856001600160a01b0316631b05b83e6040518163ffffffff1660e01b815260040160606040518083038186803b15801561058457600080fd5b505afa158015610598573d6000803e3d6000fd5b505050506040513d601f19601f820116820180604052508101906105bc91906152d7565b62ffffff1684525050604080516398c7adf360e01b81529051600092506001600160a01b038816916398c7adf391600480830192610140929190829003018186803b15801561060a57600080fd5b505afa15801561061e573d6000803e3d6000fd5b505050506040513d601f19601f820116820180604052508101906106429190615349565b905061064d816122be565b604080516080810182526000808252602082018190529181018290526060810191909152825162ffffff165b8351604051630157d2d160e31b815262ffffff909116600482015260009081906001600160a01b038b1690630abe968890602401604080518083038186803b1580156106c457600080fd5b505afa1580156106d8573d6000803e3d6000fd5b505050506040513d601f19601f820116820180604052508101906106fc9190615411565b604080516080810182526001600160701b0393841680825293909216602083015260009082018190526060820152945015159150819050610749575060208201516001600160701b031615155b156107cf57600080806107608786888c888f61234f565b919450925090506001600160701b0383111561079e578651604051633d9af4e160e11b815262ffffff90911660048201526024015b60405180910390fd5b80516107b3906001600160801b03168461544b565b6107bd908b615463565b99506107c9828961544b565b97505050505b8615610868578351604051638f919a8360e01b815262ffffff909116600482015286151560248201526001600160a01b03891690638f919a839060440160206040518083038186803b15801561082457600080fd5b505afa158015610838573d6000803e3d6000fd5b505050506040513d601f19601f8201168201806040525081019061085c919061547a565b62ffffff168452610679565b861561088a576040516349cda5cd60e11b815260048101889052602401610795565b505050509392505050565b80804211156108c05760405163dae7ca7d60e01b815260048101829052426024820152604401610795565b84848151600014806108df5750805182516108dc90600161544b565b14155b156108fd5760405163b91b4d4d60e01b815260040160405180910390fd5b600061090988886124aa565b905060008782518151811061092057610920615493565b60209081029190910101516040516370a0823160e01b81526001600160a01b0389811660048301529192506000918316906370a082319060240160206040518083038186803b15801561097257600080fd5b505afa158015610986573d6000803e3d6000fd5b505050506040513d601f19601f820116820180604052508101906109aa919061547a565b9050610a0033846000815181106109c3576109c3615493565b60200260200101518e8c6000815181106109df576109df615493565b60200260200101516001600160a01b031661259f909392919063ffffffff16565b610a0c838b8b8b61263d565b6040516370a0823160e01b81526001600160a01b03898116600483015260009183918516906370a082319060240160206040518083038186803b158015610a5257600080fd5b505afa158015610a66573d6000803e3d6000fd5b505050506040513d601f19601f82011682018060405250810190610a8a919061547a565b610a949190615463565b9050808c1115610ac1576040516313fab00360e21b8152600481018d905260248101829052604401610795565b50505050505050505050505050565b8080421115610afb5760405163dae7ca7d60e01b815260048101829052426024820152604401610795565b8484815160001480610b1a575080518251610b1790600161544b565b14155b15610b385760405163b91b4d4d60e01b815260040160405180910390fd5b6000610b4488886124aa565b9050610b6a3482600081518110610b5d57610b5d615493565b6020026020010151612b84565b6000610b7934838b8b8b612c9b565b9050808a1115610ba6576040516313fab00360e21b8152600481018b905260248101829052604401610795565b50505050505050505050565b8080421115610bdd5760405163dae7ca7d60e01b815260048101829052426024820152604401610795565b8484815160001480610bfc575080518251610bf990600161544b565b14155b15610c1a5760405163b91b4d4d60e01b815260040160405180910390fd5b7f00000000000000000000000000000000000000000000000000000000000000006001600160a01b031686600081518110610c5757610c57615493565b60200260200101516001600160a01b031614610cb15785600081518110610c8057610c80615493565b602002602001015160405163cfec0e0160e01b815260040161079591906001600160a01b0391909116815260200190565b6000610cbd88886124aa565b90506000610ccd89838a8d6130f5565b90503481600081518110610ce357610ce3615493565b60200260200101511115610d31573481600081518110610d0557610d05615493565b602002602001015160405163194ee21960e31b8152600401610795929190918252602082015260400190565b610d6281600081518110610d4757610d47615493565b602002602001015183600081518110610b5d57610b5d615493565b6000610d71838b8b858c6134a3565b90508a811015610d9e576040516313fab00360e21b8152600481018c905260248101829052604401610795565b81600081518110610db157610db1615493565b6020026020010151341115610def57610def883484600081518110610dd857610dd8615493565b6020026020010151610dea9190615463565b6137ac565b5050505050505050505050565b8080421115610e275760405163dae7ca7d60e01b815260048101829052426024820152604401610795565b8484815160001480610e46575080518251610e4390600161544b565b14155b15610e645760405163b91b4d4d60e01b815260040160405180910390fd5b7f00000000000000000000000000000000000000000000000000000000000000006001600160a01b031686600081518110610ea157610ea1615493565b60200260200101516001600160a01b031614610eca5785600081518110610c8057610c80615493565b6000610ed688886124aa565b9050600087825181518110610eed57610eed615493565b60209081029190910101516040516370a0823160e01b81526001600160a01b0389811660048301529192506000918316906370a082319060240160206040518083038186803b158015610f3f57600080fd5b505afa158015610f53573d6000803e3d6000fd5b505050506040513d601f19601f82011682018060405250810190610f77919061547a565b9050610f903484600081518110610b5d57610b5d615493565b610f9c838b8b8b61263d565b6040516370a0823160e01b81526001600160a01b03898116600483015260009183918516906370a082319060240160206040518083038186803b158015610fe257600080fd5b505afa158015610ff6573d6000803e3d6000fd5b505050506040513d601f19601f8201168201806040525081019061101a919061547a565b6110249190615463565b9050808c1115611051576040516313fab00360e21b8152600481018d905260248101829052604401610795565b505050505050505050505050565b600080600080866001600160a01b0316631b05b83e6040518163ffffffff1660e01b815260040160606040518083038186803b15801561109e57600080fd5b505afa1580156110b2573d6000803e3d6000fd5b505050506040513d601f19601f820116820180604052508101906110d691906152d7565b92509250925085600014806110f75750846110f3578286116110f7565b8186115b1561112c578585611108578361110a565b825b604051637c40a4df60e01b815260048101929092526024820152604401610795565b6000876001600160a01b03166398c7adf36040518163ffffffff1660e01b81526004016101406040518083038186803b15801561116857600080fd5b505afa15801561117c573d6000803e3d6000fd5b505050506040513d601f19601f820116820180604052508101906111a09190615349565b90506111ab816122be565b81600080805b604051630157d2d160e31b815262ffffff8716600482015260009081906001600160a01b038f1690630abe968890602401604080518083038186803b1580156111f957600080fd5b505afa15801561120d573d6000803e3d6000fd5b505050506040513d601f19601f820116820180604052508101906112319190615411565b915091508b6112405781611242565b805b92505050600061125987876000015160ff16613832565b9050811561132257818c1161126e578b611270565b815b935060008b61128c5761128782866080600061385b565b61129a565b61129a856080846000613924565b90506112c8818988116112b6576112b1888b615463565b6112c0565b6112c08a89615463565b899190613a45565b6112d2908261544b565b93506001600160701b036112e6848661544b565b11156113085760405163ec44eb8960e01b815260048101899052602401610795565b611312848c61544b565b9a5061131e858e615463565b9c50505b8b156113b857604051638f919a8360e01b815262ffffff881660048201528b151560248201526001600160a01b038e1690638f919a839060440160206040518083038186803b15801561137457600080fd5b505afa158015611388573d6000803e3d6000fd5b505050506040513d601f19601f820116820180604052508101906113ac919061547a565b62ffffff1696506113be565b506113c4565b506111b1565b8a156113e3576040516330b1335760e21b815260040160405180910390fd5b50505050505050509392505050565b7f00000000000000000000000000000000000000000000000000000000000000006001600160a01b0316638da5cb5b6040518163ffffffff1660e01b815260040160206040518083038186803b15801561144b57600080fd5b505afa15801561145f573d6000803e3d6000fd5b505050506040513d601f19601f8201168201806040525081019061148391906154a9565b6001600160a01b0316336001600160a01b0316146114b457604051635d9515b960e11b815260040160405180910390fd5b6001600160a01b0383166114de576000198114156114cf5750475b6114d982826137ac565b505050565b600019811415611562576040516370a0823160e01b81523060048201526001600160a01b038416906370a082319060240160206040518083038186803b15801561152757600080fd5b505afa15801561153b573d6000803e3d6000fd5b505050506040513d601f19601f8201168201806040525081019061155f919061547a565b90505b6114d96001600160a01b0384168383613a93565b60405163659ac74b60e01b81526001600160a01b038581166004830152848116602483015262ffffff8416604483015261ffff831660648301527f0000000000000000000000000000000000000000000000000000000000000000169063659ac74b90608401602060405180830381600087803b1580156115f657600080fd5b505af115801561160a573d6000803e3d6000fd5b505050506040513d601f19601f8201168201806040525081019061162e91906154a9565b5050505050565b80804211156116605760405163dae7ca7d60e01b815260048101829052426024820152604401610795565b848481516000148061167f57508051825161167c90600161544b565b14155b1561169d5760405163b91b4d4d60e01b815260040160405180910390fd5b60006116a988886124aa565b90506116de33826000815181106116c2576116c2615493565b60200260200101518c8a6000815181106109df576109df615493565b60006116ed8b838b8b8b612c9b565b9050808a1115610def576040516313fab00360e21b8152600481018b905260248101829052604401610795565b80804211156117455760405163dae7ca7d60e01b815260048101829052426024820152604401610795565b848481516000148061176457508051825161176190600161544b565b14155b156117825760405163b91b4d4d60e01b815260040160405180910390fd5b7f00000000000000000000000000000000000000000000000000000000000000006001600160a01b0316868851815181106117bf576117bf615493565b60200260200101516001600160a01b0316146117e85785875181518110610c8057610c80615493565b60006117f488886124aa565b9050600061180489838a8e6130f5565b9050898160008151811061181a5761181a615493565b6020026020010151111561183c578981600081518110610d0557610d05615493565b611889338360008151811061185357611853615493565b60200260200101518360008151811061186e5761186e615493565b60200260200101518b6000815181106109df576109df615493565b6000611898838b8b85306134a3565b90508b8110156118c5576040516313fab00360e21b8152600481018d905260248101829052604401610795565b604051632e1a7d4d60e01b8152600481018290527f00000000000000000000000000000000000000000000000000000000000000006001600160a01b031690632e1a7d4d90602401600060405180830381600087803b15801561192757600080fd5b505af115801561193b573d6000803e3d6000fd5b5050505061105188826137ac565b80804211156119745760405163dae7ca7d60e01b815260048101829052426024820152604401610795565b60006119848b8b8b60ff16613ac3565b9050806001600160a01b03166316dc165b6040518163ffffffff1660e01b815260040160206040518083038186803b1580156119bf57600080fd5b505afa1580156119d3573d6000803e3d6000fd5b505050506040513d601f19601f820116820180604052508101906119f791906154a9565b6001600160a01b03168b6001600160a01b031614611a16579899989596955b610ac1818989898989613bef565b8080421115611a4f5760405163dae7ca7d60e01b815260048101829052426024820152604401610795565b6000611a7f8a7f00000000000000000000000000000000000000000000000000000000000000008b60ff16613ac3565b90506000816001600160a01b031663b7d19fc46040518163ffffffff1660e01b815260040160206040518083038186803b158015611abc57600080fd5b505afa158015611ad0573d6000803e3d6000fd5b505050506040513d601f19601f82011682018060405250810190611af491906154a9565b6001600160a01b03167f00000000000000000000000000000000000000000000000000000000000000006001600160a01b031614905060008082611b36579899985b600080611b47868e8e8e8e30613bef565b9150915084611b57578082611b5a565b81815b9094509250611b769150506001600160a01b038e168884613a93565b604051632e1a7d4d60e01b8152600481018290527f00000000000000000000000000000000000000000000000000000000000000006001600160a01b031690632e1a7d4d90602401600060405180830381600087803b158015611bd857600080fd5b505af1158015611bec573d6000803e3d6000fd5b50505050610ac187826137ac565b8080421115611c255760405163dae7ca7d60e01b815260048101829052426024820152604401610795565b8484815160001480611c44575080518251611c4190600161544b565b14155b15611c625760405163b91b4d4d60e01b815260040160405180910390fd5b7f00000000000000000000000000000000000000000000000000000000000000006001600160a01b031686885181518110611c9f57611c9f615493565b60200260200101516001600160a01b031614611cc85785875181518110610c8057610c80615493565b6000611cd488886124aa565b6040516370a0823160e01b81523060048201529091506000906001600160a01b037f000000000000000000000000000000000000000000000000000000000000000016906370a082319060240160206040518083038186803b158015611d3957600080fd5b505afa158015611d4d573d6000803e3d6000fd5b505050506040513d601f19601f82011682018060405250810190611d71919061547a565b9050611da63383600081518110611d8a57611d8a615493565b60200260200101518d8b6000815181106109df576109df615493565b611db2828a8a3061263d565b6040516370a0823160e01b815230600482015260009082906001600160a01b037f000000000000000000000000000000000000000000000000000000000000000016906370a082319060240160206040518083038186803b158015611e1657600080fd5b505afa158015611e2a573d6000803e3d6000fd5b505050506040513d601f19601f82011682018060405250810190611e4e919061547a565b611e589190615463565b9050808b11156118c5576040516313fab00360e21b8152600481018c905260248101829052604401610795565b8080421115611eb05760405163dae7ca7d60e01b815260048101829052426024820152604401610795565b8484815160001480611ecf575080518251611ecc90600161544b565b14155b15611eed5760405163b91b4d4d60e01b815260040160405180910390fd5b6000611ef988886124aa565b90506000611f0989838a8e6130f5565b9050611f496040518060400160405280600981526020017f416d6f756e7473496e0000000000000000000000000000000000000000000000815250613d2a565b8981600081518110611f5d57611f5d615493565b60200260200101511115611f7f578981600081518110610d0557610d05615493565b611f96338360008151811061185357611853615493565b6000611fa5838b8b858c6134a3565b90508b811015611051576040516313fab00360e21b8152600481018d905260248101829052604401610795565b60006120588262ffffff16846001600160a01b03166398c7adf36040518163ffffffff1660e01b81526004016101406040518083038186803b15801561201757600080fd5b505afa15801561202b573d6000803e3d6000fd5b505050506040513d601f19601f8201168201806040525081019061204f9190615349565b5160ff16613832565b90505b92915050565b61206a81613d82565b50565b60006020820152346080820181905260c082015261206a81613d82565b600061205882846001600160a01b03166398c7adf36040518163ffffffff1660e01b81526004016101406040518083038186803b1580156120ca57600080fd5b505afa1580156120de573d6000803e3d6000fd5b505050506040513d601f19601f820116820180604052508101906121029190615349565b5160ff16614295565b80804211156121365760405163dae7ca7d60e01b815260048101829052426024820152604401610795565b848481516000148061215557508051825161215290600161544b565b14155b156121735760405163b91b4d4d60e01b815260040160405180910390fd5b7f00000000000000000000000000000000000000000000000000000000000000006001600160a01b0316868851815181106121b0576121b0615493565b60200260200101516001600160a01b0316146121d95785875181518110610c8057610c80615493565b60006121e588886124aa565b90506121fe33826000815181106116c2576116c2615493565b600061220d8b838b8b30612c9b565b9050808a111561223a576040516313fab00360e21b8152600481018b905260248101829052604401610795565b604051632e1a7d4d60e01b8152600481018290527f00000000000000000000000000000000000000000000000000000000000000006001600160a01b031690632e1a7d4d90602401600060405180830381600087803b15801561229c57600080fd5b505af11580156122b0573d6000803e3d6000fd5b50505050610def87826137ac565b600081610120015164ffffffffff16420390506000826040015161ffff168210156122fa575061010082015168ffffffffffffffffff16612337565b826060015161ffff16821015612337576064836080015160ff168461010001510268ffffffffffffffffff1681612333576123336154c6565b0490505b68ffffffffffffffffff166101009092019190915250565b6040805180820190915260008082526020820181905290819060006123848a6000015162ffffff16896000015160ff16613832565b905060008088156123b45760208b01516001600160701b031691506123ad826080856000613924565b90506123d2565b8a516001600160701b031691506123cf83836080600061385b565b90505b8b5160009062ffffff1689116123f1578c5162ffffff168990036123fb565b8c5162ffffff1689035b905061241261240b8c8484613a45565b8c90614300565b8051909550889061242d9084906001600160801b031661434a565b1161243d5781965082955061249a565b61244b61240b8c8a84614356565b80519095506124649089906001600160801b0316614398565b96508961247e57612479876080866001613924565b61248c565b61248c84886080600161385b565b95508286111561249a578295505b5050505096509650969350505050565b6060825167ffffffffffffffff8111156124c6576124c6614c23565b6040519080825280602002602001820160405280156124ef578160200160208202803683370190505b5090506000808360008151811061250857612508615493565b6020026020010151905060005b83518110156125965781925084816001018151811061253657612536615493565b6020026020010151915061256486828151811061255557612555615493565b602002602001015184846143a4565b84828151811061257657612576615493565b6001600160a01b0390921660209283029190910190910152600101612515565b50505092915050565b6040516001600160a01b03808516602483015283166044820152606481018290526126379085906323b872dd60e01b906084015b60408051601f198184030181529190526020810180517bffffffffffffffffffffffffffffffffffffffffffffffffffffffff167fffffffff00000000000000000000000000000000000000000000000000000000909316929092179091526144dd565b50505050565b60008060008060008660008151811061265857612658615493565b6020026020010151905060005b8951811015610ba65789818151811061268057612680615493565b6020026020010151925088818151811061269c5761269c615493565b602002602001015194508195508781600101815181106126be576126be615493565b60200260200101519150895181600101146126f5578981600101815181106126e8576126e8615493565b60200260200101516126f7565b865b935084612a5d57600080846001600160a01b0316630902f1ac6040518163ffffffff1660e01b815260040160606040518083038186803b15801561273a57600080fd5b505afa15801561274e573d6000803e3d6000fd5b505050506040513d601f19601f8201168201806040525081019061277291906154f3565b506001600160701b031691506001600160701b03169150846001600160a01b0316630dfe16816040518163ffffffff1660e01b815260040160206040518083038186803b1580156127c257600080fd5b505afa1580156127d6573d6000803e3d6000fd5b505050506040513d601f19601f820116820180604052508101906127fa91906154a9565b6001600160a01b0316886001600160a01b03161415612937576040516370a0823160e01b81526001600160a01b038681166004830152600091908a16906370a082319060240160206040518083038186803b15801561285857600080fd5b505afa15801561286c573d6000803e3d6000fd5b505050506040513d601f19601f82011682018060405250810190612890919061547a565b90506000816103e80284830384026103e502816128af576128af6154c6565b60405163022c0d9f60e01b815260006004820181905292909104602482018190526001600160a01b038b8116604484015260806064840152608483019390935292509088169063022c0d9f9060a401600060405180830381600087803b15801561291857600080fd5b505af115801561292c573d6000803e3d6000fd5b505050505050612a56565b6040516370a0823160e01b81526001600160a01b038681166004830152600091908a16906370a082319060240160206040518083038186803b15801561297c57600080fd5b505afa158015612990573d6000803e3d6000fd5b505050506040513d601f19601f820116820180604052508101906129b4919061547a565b90506000816103e80283830385026103e502816129d3576129d36154c6565b60405163022c0d9f60e01b8152919004600482018190526000602483018190526001600160a01b038b8116604485015260806064850152608484019190915290925088169063022c0d9f9060a401600060405180830381600087803b158015612a3b57600080fd5b505af1158015612a4f573d6000803e3d6000fd5b5050505050505b5050612b7c565b826001600160a01b03166353c059a0846001600160a01b031663b7d19fc46040518163ffffffff1660e01b815260040160206040518083038186803b158015612aa557600080fd5b505afa158015612ab9573d6000803e3d6000fd5b505050506040513d601f19601f82011682018060405250810190612add91906154a9565b60405160e083901b7fffffffff000000000000000000000000000000000000000000000000000000001681526001600160a01b0391821686831614600482015290871660248201526044016040805180830381600087803b158015612b4157600080fd5b505af1158015612b55573d6000803e3d6000fd5b505050506040513d601f19601f82011682018060405250810190612b799190615411565b50505b600101612665565b7f00000000000000000000000000000000000000000000000000000000000000006001600160a01b031663d0e30db0836040518263ffffffff1660e01b81526004016000604051808303818588803b158015612bdf57600080fd5b505af1158015612bf3573d6000803e3d6000fd5b505060405163a9059cbb60e01b81526001600160a01b038581166004830152602482018790527f000000000000000000000000000000000000000000000000000000000000000016935063a9059cbb92506044019050602060405180830381600087803b158015612c6357600080fd5b505af1158015612c77573d6000803e3d6000fd5b505050506040513d601f19601f820116820180604052508101906114d99190615538565b60008060008060008087600081518110612cb757612cb7615493565b602002602001015190508a955060005b8a518110156130e6578a8181518110612ce257612ce2615493565b60200260200101519250898181518110612cfe57612cfe615493565b60200260200101519450819550888160010181518110612d2057612d20615493565b602002602001015191508a518160010114612d57578a8160010181518110612d4a57612d4a615493565b6020026020010151612d59565b875b935084612fc157600080846001600160a01b0316630902f1ac6040518163ffffffff1660e01b815260040160606040518083038186803b158015612d9c57600080fd5b505afa158015612db0573d6000803e3d6000fd5b505050506040513d601f19601f82011682018060405250810190612dd491906154f3565b506001600160701b031691506001600160701b03169150846001600160a01b0316630dfe16816040518163ffffffff1660e01b815260040160206040518083038186803b158015612e2457600080fd5b505afa158015612e38573d6000803e3d6000fd5b505050506040513d601f19601f82011682018060405250810190612e5c91906154a9565b6001600160a01b0316886001600160a01b03161415612f1a57886103e502826103e802018982026103e50281612e9457612e946154c6565b60405163022c0d9f60e01b815260006004820181905292909104602482018190526001600160a01b0389811660448401526080606484015260848301939093529a509086169063022c0d9f9060a401600060405180830381600087803b158015612efd57600080fd5b505af1158015612f11573d6000803e3d6000fd5b50505050612fba565b886103e502816103e802018983026103e50281612f3957612f396154c6565b60405163022c0d9f60e01b8152919004600482018190526000602483018190526001600160a01b038981166044850152608060648501526084840191909152909a5086169063022c0d9f9060a401600060405180830381600087803b158015612fa157600080fd5b505af1158015612fb5573d6000803e3d6000fd5b505050505b50506130de565b6000836001600160a01b031663b7d19fc46040518163ffffffff1660e01b815260040160206040518083038186803b158015612ffc57600080fd5b505afa158015613010573d6000803e3d6000fd5b505050506040513d601f19601f8201168201806040525081019061303491906154a9565b60405163029e02cd60e51b81526001600160a01b039182168583161460048201819052878316602483015292506000918291908716906353c059a0906044016040805180830381600087803b15801561308c57600080fd5b505af11580156130a0573d6000803e3d6000fd5b505050506040513d601f19601f820116820180604052508101906130c49190615411565b9150915082156130d6578099506130da565b8199505b5050505b600101612cc7565b50505050505095945050505050565b6060825167ffffffffffffffff81111561311157613111614c23565b60405190808252806020026020018201604052801561313a578160200160208202803683370190505b509050818185518151811061315157613151615493565b602090810291909101015283515b801561349a57600084613173600184615463565b8151811061318357613183615493565b6020026020010151905060008760018461319d9190615463565b815181106131ad576131ad615493565b602002602001015190506000876001856131c79190615463565b815181106131d7576131d7615493565b6020026020010151905081600014156133b357600080826001600160a01b0316630902f1ac6040518163ffffffff1660e01b815260040160606040518083038186803b15801561322657600080fd5b505afa15801561323a573d6000803e3d6000fd5b505050506040513d601f19601f8201168201806040525081019061325e91906154f3565b506001600160701b031691506001600160701b03169150846001600160a01b0316836001600160a01b031663d21220a76040518163ffffffff1660e01b815260040160206040518083038186803b1580156132b857600080fd5b505afa1580156132cc573d6000803e3d6000fd5b505050506040513d601f19601f820116820180604052508101906132f091906154a9565b6001600160a01b0316141561330157905b600087878151811061331557613315615493565b60200260200101519050613342604051806040016040528060028152602001616f6b60f01b815250613d2a565b61334c8183615463565b613358906103e5615555565b6133628285615555565b61336e906103e8615555565b6133789190615574565b61338390600161544b565b8861338f60018a615463565b8151811061339f5761339f615493565b602002602001018181525050505050613484565b61345b818686815181106133c9576133c9615493565b6020026020010151856001600160a01b0316846001600160a01b03166316dc165b6040518163ffffffff1660e01b815260040160206040518083038186803b15801561341457600080fd5b505afa158015613428573d6000803e3d6000fd5b505050506040513d601f19601f8201168201806040525081019061344c91906154a9565b6001600160a01b03161461105f565b85613467600187615463565b8151811061347757613477615493565b6020026020010181815250505b505050808061349290615596565b91505061315f565b50949350505050565b600080600080600080886000815181106134bf576134bf615493565b6020026020010151905060005b8b518110156130e6578b81815181106134e7576134e7615493565b602002602001015192508a818151811061350357613503615493565b6020026020010151945081955089816001018151811061352557613525615493565b602002602001015191508b51816001011461355c578b816001018151811061354f5761354f615493565b602002602001015161355e565b875b9350846136875788816001018151811061357a5761357a615493565b6020026020010151965089816001018151811061359957613599615493565b60200260200101516001600160a01b0316866001600160a01b0316101561363a5760405163022c0d9f60e01b8152600060048201819052602482018990526001600160a01b03868116604484015260806064840152608483019190915284169063022c0d9f9060a4015b600060405180830381600087803b15801561361d57600080fd5b505af1158015613631573d6000803e3d6000fd5b505050506137a4565b60405163022c0d9f60e01b8152600481018890526000602482018190526001600160a01b03868116604484015260806064840152608483019190915284169063022c0d9f9060a401613603565b6000836001600160a01b031663b7d19fc46040518163ffffffff1660e01b815260040160206040518083038186803b1580156136c257600080fd5b505afa1580156136d6573d6000803e3d6000fd5b505050506040513d601f19601f820116820180604052508101906136fa91906154a9565b60405163029e02cd60e51b81526001600160a01b039182168583161460048201819052878316602483015292506000918291908716906353c059a0906044016040805180830381600087803b15801561375257600080fd5b505af1158015613766573d6000803e3d6000fd5b505050506040513d601f19601f8201168201806040525081019061378a9190615411565b91509150821561379c578099506137a0565b8199505b5050505b6001016134cc565b6000826001600160a01b03168260405160006040518083038185875af1925050503d80600081146137f9576040519150601f19603f3d011682016040523d82523d6000602084013e6137fe565b606091505b50509050806114d957604051631722e2bb60e21b81526001600160a01b038416600482015260248101839052604401610795565b6000627fffff198301613853612710608085901b04600160801b01826145c2565b949350505050565b600061010083111561388357604051630b72ecf560e41b815260048101849052602401610795565b600082613891576001613894565b60005b60ff16905060008060001987890987890292508281108382030391505080600014156138cf5781156138ca57828203861c830193505b613919565b6001861b81106138fc57604051633d90990f60e01b81526004810182905260248101879052604401610795565b811561390c57828203861c830193505b856101000381901b840193505b505050949350505050565b600061010084111561394c57604051630b72ecf560e41b815260048101859052602401610795565b84841b61010085900386901c8061399c57811561399757836139835784600183038161397a5761397a6154c6565b04600101613994565b848281613992576139926154c6565b045b92505b613a3b565b8481106139c65760405163d02f65c760e01b81526004810182905260248101869052604401610795565b6000856001881b89099050846139dd576000811193505b8519600190810187169687900496828503819004949092119092036000829003919091049091010217600384026002908118808602820302808602820302808602820302808602820302808602820302808602909103020201613853565b5050949350505050565b600080613a52858461481b565b8551602087015160ff91821691160264e8d4a5100002019050670de0b6b3a7640000613a7e8286615555565b613a889190615574565b9150505b9392505050565b6040516001600160a01b0383166024820152604481018290526114d990849063a9059cbb60e01b906064016125d3565b604051631f73f99f60e21b81526001600160a01b03848116600483015283811660248301526044820183905260009182917f00000000000000000000000000000000000000000000000000000000000000001690637dcfe67c9060640160606040518083038186803b158015613b3857600080fd5b505afa158015613b4c573d6000803e3d6000fd5b505050506040513d601f19601f82011682018060405250810190613b7091906155ad565b80519091506001600160a01b0316613bb557604051636b2471d160e11b81526001600160a01b0380871660048301528516602482015260448101849052606401610795565b806040015115613be65780516040516343d5646360e11b81526001600160a01b039091166004820152602401610795565b51949350505050565b600080876001600160a01b031663fba0ee64338a88886040518563ffffffff1660e01b8152600401613c24949392919061565a565b600060405180830381600087803b158015613c3e57600080fd5b505af1158015613c52573d6000803e3d6000fd5b5050604051630acd451d60e01b81526001600160a01b038b169250630acd451d9150613c8690889088908890600401615698565b6040805180830381600087803b158015613c9f57600080fd5b505af1158015613cb3573d6000803e3d6000fd5b505050506040513d601f19601f82011682018060405250810190613cd79190615411565b909250905086821080613ce957508581105b15613d1f576040516318ccfb7760e11b815260048101889052602481018390526044810187905260648101829052608401610795565b965096945050505050565b61206a81604051602401613d3e9190615703565b60408051601f198184030181529190526020810180517bffffffffffffffffffffffffffffffffffffffffffffffffffffffff1663104c13eb60e21b17905261488b565b806101a0015180421115613db25760405163dae7ca7d60e01b815260048101829052426024820152604401610795565b60208201516001600160a01b0316613dfa576001600160a01b037f00000000000000000000000000000000000000000000000000000000000000001660208301523460808301525b6000613e13836000015184602001518560400151613ac3565b60608401518451919250613e34916001600160a01b0316903390849061259f565b7f00000000000000000000000000000000000000000000000000000000000000006001600160a01b031683602001516001600160a01b03161415613e8557613e80836080015182612b84565b613ead565b613ead3382856080015186602001516001600160a01b031661259f909392919063ffffffff16565b806001600160a01b03166316dc165b6040518163ffffffff1660e01b815260040160206040518083038186803b158015613ee657600080fd5b505afa158015613efa573d6000803e3d6000fd5b505050506040513d601f19601f82011682018060405250810190613f1e91906154a9565b6001600160a01b031683600001516001600160a01b031614613f5f5760c08301805160a0850180519092529052610160830180516101408501805190925290525b826101400151518361012001515114158015613f875750826101600151518361012001515114155b15613fa55760405163b91b4d4d60e01b815260040160405180910390fd5b60e083015162ffffff108015613fc2575061010083015162ffffff105b15613ff45760e083015161010084015160405163197a55c760e11b815260048101929092526024820152604401610795565b6000816001600160a01b0316631b05b83e6040518163ffffffff1660e01b815260040160606040518083038186803b15801561402f57600080fd5b505afa158015614043573d6000803e3d6000fd5b505050506040513d601f19601f8201168201806040525081019061406791906152d7565b92505050808461010001518560e0015101108061408e57508360e001518461010001518201105b156140c75760e0840151610100850151604051637d50edab60e11b81526004810192909252602482015260448101829052606401610795565b60008461012001515167ffffffffffffffff8111156140e8576140e8614c23565b604051908082528060200260200182016040528015614111578160200160208202803683370190505b50905060005b815181101561419e576000866101200151828151811061413957614139615493565b6020026020010151840190506000811280614156575062ffffff81115b15614177576040516370a82e6160e11b815260048101829052602401610795565b8083838151811061418a5761418a615493565b602090810291909101015250600101614117565b50600080846001600160a01b031663714c8592848961014001518a61016001518b61018001516040518563ffffffff1660e01b81526004016141e39493929190615736565b6040805180830381600087803b1580156141fc57600080fd5b505af1158015614210573d6000803e3d6000fd5b505050506040513d601f19601f820116820180604052508101906142349190615411565b915091508660a0015182108061424d57508660c0015181105b1561428c5760a087015160c08801516040516318ccfb7760e11b8152600481019290925260248201849052604482015260648101829052608401610795565b50505050505050565b6000612710608083901b04600160801b01816142b0826148ac565b6142b9866148ac565b816142c6576142c66154c6565b056280000001905060008112806142df575062ffffff81115b156138535760405163e298542760e01b815260048101829052602401610795565b604080518082019091526000808252602082015261431d82614968565b6001600160801b0316815260c083015160649060ff168302046001600160801b0316602082015292915050565b6000612058828461544b565b600080614363858461481b565b8551602087015160ff91821691160264e8d4a510000201905061438e81670de0b6b3a764000061544b565b613a7e8286615555565b60006120588284615463565b6000836144d2576143e96040518060400160405280600781526020017f5631207061697200000000000000000000000000000000000000000000000000815250613d2a565b60405163e6a4390560e01b81526001600160a01b03848116600483015283811660248301527f0000000000000000000000000000000000000000000000000000000000000000169063e6a439059060440160206040518083038186803b15801561445257600080fd5b505afa158015614466573d6000803e3d6000fd5b505050506040513d601f19601f8201168201806040525081019061448a91906154a9565b90506001600160a01b0381166144cd57604051636b2471d160e11b81526001600160a01b0380851660048301528316602482015260448101859052606401610795565b613a8c565b613853838386613ac3565b6000614532826040518060400160405280602081526020017f5361666545524332303a206c6f772d6c6576656c2063616c6c206661696c6564815250856001600160a01b03166149999092919063ffffffff16565b8051909150156114d957808060200190518101906145509190615538565b6114d95760405162461bcd60e51b815260206004820152602a60248201527f5361666545524332303a204552433230206f7065726174696f6e20646964206e60448201527f6f742073756363656564000000000000000000000000000000000000000000006064820152608401610795565b60008060008312156145d757826000036145d9565b825b9050600084600019816145ee576145ee6154c6565b049050600160801b600183161561460557810260801c5b90800260801c90600283161561461b57810260801c5b90800260801c90600483161561463157810260801c5b90800260801c90600883161561464757810260801c5b90800260801c90601083161561465d57810260801c5b90800260801c90602083161561467357810260801c5b90800260801c90604083161561468957810260801c5b908002608090811c91908316156146a057810260801c5b90800260801c906101008316156146b757810260801c5b90800260801c906102008316156146ce57810260801c5b90800260801c906104008316156146e557810260801c5b90800260801c906108008316156146fc57810260801c5b90800260801c9061100083161561471357810260801c5b90800260801c9061200083161561472a57810260801c5b90800260801c9061400083161561474157810260801c5b90800260801c9061800083161561475857810260801c5b90800260801c906201000083161561477057810260801c5b90800260801c906202000083161561478857810260801c5b90800260801c90620400008316156147a057810260801c5b90800260801c90620800008316156147b857810260801c5b8015806147c75750620fffff83115b156147ef57604051630e9c7d6160e31b81526004810187905260248101869052604401610795565b600085131561480f578060001981614809576148096154c6565b04614811565b805b9695505050505050565b6000826080015160ff16600014156148355750600061205b565b61010083015160e084015168ffffffffffffffffff918216612710850201911681111561486e575060e083015168ffffffffffffffffff165b8351608085015160ff908116911691909102800202905092915050565b80516a636f6e736f6c652e6c6f67602083016000808483855afa5050505050565b600080600160801b83106148c2575060016148d9565b506000198281816148d5576148d56154c6565b0492505b60006148e8608085901c6149a8565b608081901b9350905083811c600160801b81141561490857505002919050565b6f800000000000000000000000000000005b600081131561495f5761493182806080600161385b565b91507002000000000000000000000000000000008210614957579384019360019190911c905b60011d61491a565b50505002919050565b60006001600160801b038211156149955760405163089f6cfb60e21b815260048101839052602401610795565b5090565b60606138538484600085614a3d565b6000600160801b82106149bd57608091821c91015b6801000000000000000082106149d557604091821c91015b64010000000082106149e957602091821c91015b6201000082106149fb57601091821c91015b6101008210614a0c57600891821c91015b60108210614a1c57600491821c91015b60048210614a2c57600291821c91015b60028210614a38576001015b919050565b606082471015614ab55760405162461bcd60e51b815260206004820152602660248201527f416464726573733a20696e73756666696369656e742062616c616e636520666f60448201527f722063616c6c00000000000000000000000000000000000000000000000000006064820152608401610795565b6001600160a01b0385163b614b0c5760405162461bcd60e51b815260206004820152601d60248201527f416464726573733a2063616c6c20746f206e6f6e2d636f6e74726163740000006044820152606401610795565b600080866001600160a01b03168587604051614b28919061578a565b60006040518083038185875af1925050503d8060008114614b65576040519150601f19603f3d011682016040523d82523d6000602084013e614b6a565b606091505b5091509150614b7a828286614b85565b979650505050505050565b60608315614b94575081613a8c565b825115614ba45782518084602001fd5b8160405162461bcd60e51b81526004016107959190615703565b6001600160a01b038116811461206a57600080fd5b801515811461206a57600080fd5b600080600060608486031215614bf657600080fd5b8335614c0181614bbe565b9250602084013591506040840135614c1881614bd3565b809150509250925092565b634e487b7160e01b600052604160045260246000fd5b6040516101c0810167ffffffffffffffff81118282101715614c5d57614c5d614c23565b60405290565b604051610140810167ffffffffffffffff81118282101715614c5d57614c5d614c23565b604051601f8201601f1916810167ffffffffffffffff81118282101715614cb057614cb0614c23565b604052919050565b600067ffffffffffffffff821115614cd257614cd2614c23565b5060051b60200190565b600082601f830112614ced57600080fd5b81356020614d02614cfd83614cb8565b614c87565b82815260059290921b84018101918181019086841115614d2157600080fd5b8286015b84811015614d3c5780358352918301918301614d25565b509695505050505050565b8035614a3881614bbe565b600082601f830112614d6357600080fd5b81356020614d73614cfd83614cb8565b82815260059290921b84018101918181019086841115614d9257600080fd5b8286015b84811015614d3c578035614da981614bbe565b8352918301918301614d96565b60008060008060008060c08789031215614dcf57600080fd5b8635955060208701359450604087013567ffffffffffffffff80821115614df557600080fd5b614e018a838b01614cdc565b95506060890135915080821115614e1757600080fd5b50614e2489828a01614d52565b9350506080870135614e3581614bbe565b8092505060a087013590509295509295509295565b600080600080600060a08688031215614e6257600080fd5b85359450602086013567ffffffffffffffff80821115614e8157600080fd5b614e8d89838a01614cdc565b95506040880135915080821115614ea357600080fd5b50614eb088828901614d52565b9350506060860135614ec181614bbe565b949793965091946080013592915050565b600080600060608486031215614ee757600080fd5b8335614ef281614bbe565b92506020840135614f0281614bbe565b929592945050506040919091013590565b803562ffffff81168114614a3857600080fd5b61ffff8116811461206a57600080fd5b60008060008060808587031215614f4c57600080fd5b8435614f5781614bbe565b93506020850135614f6781614bbe565b9250614f7560408601614f13565b91506060850135614f8581614f26565b939692955090935050565b60ff8116811461206a57600080fd5b8035614a3881614f90565b60008060008060008060008060006101208a8c031215614fc957600080fd5b8935614fd481614bbe565b985060208a0135614fe481614bbe565b9750614ff260408b01614f9f565b965060608a0135955060808a0135945060a08a013567ffffffffffffffff8082111561501d57600080fd5b6150298d838e01614cdc565b955060c08c013591508082111561503f57600080fd5b5061504c8c828d01614cdc565b93505061505b60e08b01614d47565b91506101008a013590509295985092959850929598565b600080600080600080600080610100898b03121561508f57600080fd5b883561509a81614bbe565b975060208901356150aa81614f90565b96506040890135955060608901359450608089013567ffffffffffffffff808211156150d557600080fd5b6150e18c838d01614cdc565b955060a08b01359150808211156150f757600080fd5b506151048b828c01614cdc565b93505060c089013561511581614bbe565b8092505060e089013590509295985092959890939650565b6000806040838503121561514057600080fd5b823561514b81614bbe565b915061515960208401614f13565b90509250929050565b60006020828403121561517457600080fd5b813567ffffffffffffffff8082111561518c57600080fd5b908301906101c082860312156151a157600080fd5b6151a9614c39565b6151b283614d47565b81526151c060208401614d47565b602082015260408301356040820152606083013560608201526080830135608082015260a083013560a082015260c083013560c082015260e083013560e0820152610100808401358183015250610120808401358381111561522157600080fd5b61522d88828701614cdc565b828401525050610140808401358381111561524757600080fd5b61525388828701614cdc565b828401525050610160808401358381111561526d57600080fd5b61527988828701614cdc565b828401525050610180915061528f828401614d47565b918101919091526101a091820135918101919091529392505050565b600080604083850312156152be57600080fd5b82356152c981614bbe565b946020939093013593505050565b6000806000606084860312156152ec57600080fd5b8351925060208401519150604084015190509250925092565b8051614a3881614f90565b8051614a3881614f26565b805168ffffffffffffffffff81168114614a3857600080fd5b805164ffffffffff81168114614a3857600080fd5b6000610140828403121561535c57600080fd5b615364614c63565b61536d83615305565b815261537b60208401615305565b602082015261538c60408401615310565b604082015261539d60608401615310565b60608201526153ae60808401615305565b60808201526153bf60a08401615305565b60a08201526153d060c08401615305565b60c08201526153e160e0840161531b565b60e08201526101006153f481850161531b565b90820152610120615406848201615334565b908201529392505050565b6000806040838503121561542457600080fd5b505080516020909101519092909150565b634e487b7160e01b600052601160045260246000fd5b6000821982111561545e5761545e615435565b500190565b60008282101561547557615475615435565b500390565b60006020828403121561548c57600080fd5b5051919050565b634e487b7160e01b600052603260045260246000fd5b6000602082840312156154bb57600080fd5b8151613a8c81614bbe565b634e487b7160e01b600052601260045260246000fd5b80516001600160701b0381168114614a3857600080fd5b60008060006060848603121561550857600080fd5b615511846154dc565b925061551f602085016154dc565b9150604084015163ffffffff81168114614c1857600080fd5b60006020828403121561554a57600080fd5b8151613a8c81614bd3565b600081600019048311821515161561556f5761556f615435565b500290565b60008261559157634e487b7160e01b600052601260045260246000fd5b500490565b6000816155a5576155a5615435565b506000190190565b6000606082840312156155bf57600080fd5b6040516060810181811067ffffffffffffffff821117156155e2576155e2614c23565b60405282516155f081614bbe565b8152602083015161560081614bd3565b6020820152604083015161561381614bd3565b60408201529392505050565b600081518084526020808501945080840160005b8381101561564f57815187529582019590820190600101615633565b509495945050505050565b60006001600160a01b03808716835280861660208401525060806040830152615686608083018561561f565b8281036060840152614b7a818561561f565b6060815260006156ab606083018661561f565b82810360208401526156bd818661561f565b9150506001600160a01b0383166040830152949350505050565b60005b838110156156f25781810151838201526020016156da565b838111156126375750506000910152565b60208152600082518060208401526157228160408501602087016156d7565b601f01601f19169190910160400192915050565b608081526000615749608083018761561f565b828103602084015261575b818761561f565b9050828103604084015261576f818661561f565b9150506001600160a01b038316606083015295945050505050565b6000825161579c8184602087016156d7565b919091019291505056fea26469706673582212203692b078ef7db16c6936e84400f931f1b3f10cfb6e173f63795dd453916a6e4364736f6c63430008090033",
    "linkReferences": {}
  },
  "methodIdentifiers": {
    "addLiquidity((address,address,uint256,uint256,uint256,uint256,uint256,uint256,uint256,int256[],uint256[],uint256[],address,uint256))": "e324a3e4",
    "addLiquidityAVAX((address,address,uint256,uint256,uint256,uint256,uint256,uint256,uint256,int256[],uint256[],uint256[],address,uint256))": "ea8f43d8",
    "createLBPair(address,address,uint24,uint16)": "659ac74b",
    "factory()": "c45a0155",
    "getIdFromPrice(address,uint256)": "f96fe925",
    "getPriceFromId(address,uint24)": "d0e380f2",
    "getSwapIn(address,uint256,bool)": "5bdd4b7c",
    "getSwapOut(address,uint256,bool)": "2004b724",
    "oldFactory()": "1bd6dfe1",
    "removeLiquidity(address,address,uint8,uint256,uint256,uint256[],uint256[],address,uint256)": "839aefa7",
    "removeLiquidityAVAX(address,uint8,uint256,uint256,uint256[],uint256[],address,uint256)": "8a882c98",
    "swapAVAXForExactTokens(uint256,uint256[],address[],address,uint256)": "42f564a0",
    "swapExactAVAXForTokens(uint256,uint256[],address[],address,uint256)": "264bb94e",
    "swapExactAVAXForTokensSupportingFeeOnTransferTokens(uint256,uint256[],address[],address,uint256)": "440830bd",
    "swapExactTokensForAVAX(uint256,uint256,uint256[],address[],address,uint256)": "fb321c70",
    "swapExactTokensForAVAXSupportingFeeOnTransferTokens(uint256,uint256,uint256[],address[],address,uint256)": "9a17e820",
    "swapExactTokensForTokens(uint256,uint256,uint256[],address[],address,uint256)": "6d0ff495",
    "swapExactTokensForTokensSupportingFeeOnTransferTokens(uint256,uint256,uint256[],address[],address,uint256)": "212a1d94",
    "swapTokensForExactAVAX(uint256,uint256,uint256[],address[],address,uint256)": "6d3420ed",
    "swapTokensForExactTokens(uint256,uint256,uint256[],address[],address,uint256)": "a7b856d3",
    "sweep(address,address,uint256)": "62c06767",
    "wavax()": "117be4c2"
  },
  "id": 35
}