{
  "abi": [
    {
      "inputs": [
        {
          "internalType": "address",
          "name": "_routerV2",
          "type": "address"
        },
        {
          "internalType": "address",
          "name": "_factoryV1",
          "type": "address"
        },
        {
          "internalType": "address",
          "name": "_factoryV2",
          "type": "address"
        },
        {
          "internalType": "address",
          "name": "_wavax",
          "type": "address"
        }
      ],
      "stateMutability": "nonpayable",
      "type": "constructor"
    },
    {
      "inputs": [],
      "name": "factoryV1",
      "outputs": [
        {
          "internalType": "address",
          "name": "",
          "type": "address"
        }
      ],
      "stateMutability": "view",
      "type": "function"
    },
    {
      "inputs": [],
      "name": "factoryV2",
      "outputs": [
        {
          "internalType": "address",
          "name": "",
          "type": "address"
        }
      ],
      "stateMutability": "view",
      "type": "function"
    },
    {
      "inputs": [
        {
          "internalType": "address[]",
          "name": "_route",
          "type": "address[]"
        },
        {
          "internalType": "uint256",
          "name": "_amountIn",
          "type": "uint256"
        }
      ],
      "name": "findBestPathAmountIn",
      "outputs": [
        {
          "internalType": "address[]",
          "name": "route",
          "type": "address[]"
        },
        {
          "internalType": "address[]",
          "name": "pairs",
          "type": "address[]"
        },
        {
          "internalType": "uint256[]",
          "name": "binSteps",
          "type": "uint256[]"
        },
        {
          "internalType": "uint256[]",
          "name": "amounts",
          "type": "uint256[]"
        },
        {
          "internalType": "uint256",
          "name": "tradeValueAVAX",
          "type": "uint256"
        }
      ],
      "stateMutability": "view",
      "type": "function"
    },
    {
      "inputs": [
        {
          "internalType": "address[]",
          "name": "_route",
          "type": "address[]"
        },
        {
          "internalType": "uint256",
          "name": "_amountOut",
          "type": "uint256"
        }
      ],
      "name": "findBestPathAmountOut",
      "outputs": [
        {
          "internalType": "address[]",
          "name": "route",
          "type": "address[]"
        },
        {
          "internalType": "address[]",
          "name": "pairs",
          "type": "address[]"
        },
        {
          "internalType": "uint256[]",
          "name": "binSteps",
          "type": "uint256[]"
        },
        {
          "internalType": "uint256[]",
          "name": "amounts",
          "type": "uint256[]"
        },
        {
          "internalType": "uint256",
          "name": "tradeValueAVAX",
          "type": "uint256"
        }
      ],
      "stateMutability": "view",
      "type": "function"
    },
    {
      "inputs": [],
      "name": "routerV2",
      "outputs": [
        {
          "internalType": "address",
          "name": "",
          "type": "address"
        }
      ],
      "stateMutability": "view",
      "type": "function"
    },
    {
      "inputs": [],
      "name": "wavax",
      "outputs": [
        {
          "internalType": "address",
          "name": "",
          "type": "address"
        }
      ],
      "stateMutability": "view",
      "type": "function"
    }
  ],
  "bytecode": {
    "object": "0x6101006040523480156200001257600080fd5b50604051620026c7380380620026c7833981016040819052620000359162000082565b6001600160601b0319606094851b811660805292841b831660a05290831b821660c05290911b1660e052620000df565b80516001600160a01b03811681146200007d57600080fd5b919050565b600080600080608085870312156200009957600080fd5b620000a48562000065565b9350620000b46020860162000065565b9250620000c46040860162000065565b9150620000d46060860162000065565b905092959194509250565b60805160601c60a05160601c60c05160601c60e05160601c61250a620001bd60003960008181607c0152818161027a0152818161095101528181610a3b01528181610b3a01528181610be301528181610d1401528181610fab0152818161164b015261174b0152600081816101320152818161051e01528181610b98015261121801526000818160c0015281816102e701528181610463015281816109f001528181610af501528181611014015261119001526000818161010b0152818161062b01528181610ca10152818161132501526116e3015261250a6000f3fe608060405234801561001057600080fd5b50600436106100725760003560e01c8063502f744611610050578063502f74461461010657806368e0d4e11461012d5780638b3810ff1461015457600080fd5b8063117be4c2146100775780633957f453146100bb578063420650a5146100e2575b600080fd5b61009e7f000000000000000000000000000000000000000000000000000000000000000081565b6040516001600160a01b0390911681526020015b60405180910390f35b61009e7f000000000000000000000000000000000000000000000000000000000000000081565b6100f56100f0366004611f9e565b610167565b6040516100b29594939291906122d6565b61009e7f000000000000000000000000000000000000000000000000000000000000000081565b61009e7f000000000000000000000000000000000000000000000000000000000000000081565b6100f5610162366004611f9e565b610e88565b8151829060609081908190600090610180600182612431565b67ffffffffffffffff811115610198576101986124a6565b6040519080825280602002602001820160405280156101c1578160200160208202803683370190505b5094506101cf600182612431565b67ffffffffffffffff8111156101e7576101e76124a6565b604051908082528060200260200182016040528015610210578160200160208202803683370190505b5093508067ffffffffffffffff81111561022c5761022c6124a6565b604051908082528060200260200182016040528015610255578160200160208202803683370190505b509250868360008151811061026c5761026c612490565b6020026020010181815250507f00000000000000000000000000000000000000000000000000000000000000006001600160a01b0316886000815181106102b5576102b5612490565b60200260200101516001600160a01b031614156102d0578691505b60005b6102de600183612431565b8110156109de577f00000000000000000000000000000000000000000000000000000000000000006001600160a01b031663e6a439058a838151811061032657610326612490565b60200260200101518b84600161033c91906123d8565b8151811061034c5761034c612490565b60200260200101516040518363ffffffff1660e01b81526004016103869291906001600160a01b0392831681529116602082015260400190565b60206040518083038186803b15801561039e57600080fd5b505afa1580156103b2573d6000803e3d6000fd5b505050506040513d601f19601f820116820180604052508101906103d69190611f7a565b8682815181106103e8576103e8612490565b60200260200101906001600160a01b031690816001600160a01b031681525050600085828151811061041c5761041c612490565b60200260200101818152505060006001600160a01b031686828151811061044557610445612490565b60200260200101516001600160a01b03161461051a576000806104c77f00000000000000000000000000000000000000000000000000000000000000008c858151811061049457610494612490565b60200260200101518d8660016104aa91906123d8565b815181106104ba576104ba612490565b60200260200101516118ad565b915091506104ef8684815181106104e0576104e0612490565b60200260200101518383611994565b866104fb8560016123d8565b8151811061050b5761050b612490565b60200260200101818152505050505b60007f00000000000000000000000000000000000000000000000000000000000000006001600160a01b031663b131bba48b848151811061055d5761055d612490565b60200260200101518c85600161057391906123d8565b8151811061058357610583612490565b60200260200101516040518363ffffffff1660e01b81526004016105bd9291906001600160a01b0392831681529116602082015260400190565b60006040518083038186803b1580156105d557600080fd5b505afa1580156105e9573d6000803e3d6000fd5b505050506040513d6000823e601f3d908101601f19168201604052610611919081019061204a565b8051909150156109475760005b81518110156109455760007f00000000000000000000000000000000000000000000000000000000000000006001600160a01b0316632004b72484848151811061066a5761066a612490565b60200260200101516020015189878151811061068857610688612490565b60200260200101518f88600161069e91906123d8565b815181106106ae576106ae612490565b60200260200101516001600160a01b03168787815181106106d1576106d1612490565b6020026020010151602001516001600160a01b031663b7d19fc46040518163ffffffff1660e01b815260040160206040518083038186803b15801561071557600080fd5b505afa158015610729573d6000803e3d6000fd5b505050506040513d601f19601f8201168201806040525081019061074d9190611f7a565b60405160e086901b6001600160e01b03191681526001600160a01b0394851660048201526024810193909352909216909114604482015260640160206040518083038186803b15801561079f57600080fd5b505afa1580156107b3573d6000803e3d6000fd5b505050506040513d601f19601f820116820180604052508101906107d79190612249565b9050866107e58560016123d8565b815181106107f5576107f5612490565b60200260200101518111156109325780876108118660016123d8565b8151811061082157610821612490565b60200260200101818152505082828151811061083f5761083f612490565b60200260200101516020015189858151811061085d5761085d612490565b60200260200101906001600160a01b031690816001600160a01b03168152505082828151811061088f5761088f612490565b6020026020010151602001516001600160a01b03166398c7adf36040518163ffffffff1660e01b81526004016101406040518083038186803b1580156108d457600080fd5b505afa1580156108e8573d6000803e3d6000fd5b505050506040513d601f19601f8201168201806040525081019061090c9190612131565b6000015160ff1688858151811061092557610925612490565b6020026020010181815250505b508061093d8161245f565b91505061061e565b505b6001600160a01b037f0000000000000000000000000000000000000000000000000000000000000000168a61097d8460016123d8565b8151811061098d5761098d612490565b60200260200101516001600160a01b031614156109cb57846109b08360016123d8565b815181106109c0576109c0612490565b602002602001015193505b50806109d68161245f565b9150506102d3565b5081610e7d5760006001600160a01b037f00000000000000000000000000000000000000000000000000000000000000001663e6a439058a610a21600186612431565b81518110610a3157610a31612490565b60200260200101517f00000000000000000000000000000000000000000000000000000000000000006040518363ffffffff1660e01b8152600401610a8c9291906001600160a01b0392831681529116602082015260400190565b60206040518083038186803b158015610aa457600080fd5b505afa158015610ab8573d6000803e3d6000fd5b505050506040513d601f19601f82011682018060405250810190610adc9190611f7a565b90506001600160a01b03811615610b8757600080610b5e7f00000000000000000000000000000000000000000000000000000000000000008c610b20600188612431565b81518110610b3057610b30612490565b60200260200101517f00000000000000000000000000000000000000000000000000000000000000006118ad565b9092509050610b8286610b72600187612431565b815181106104e0576104e0612490565b945050505b82610e7b5760006001600160a01b037f00000000000000000000000000000000000000000000000000000000000000001663b131bba48b610bc9600187612431565b81518110610bd957610bd9612490565b60200260200101517f00000000000000000000000000000000000000000000000000000000000000006040518363ffffffff1660e01b8152600401610c349291906001600160a01b0392831681529116602082015260400190565b60006040518083038186803b158015610c4c57600080fd5b505afa158015610c60573d6000803e3d6000fd5b505050506040513d6000823e601f3d908101601f19168201604052610c88919081019061204a565b805190915015610e79576000805b8251811015610e76577f00000000000000000000000000000000000000000000000000000000000000006001600160a01b0316632004b724848381518110610ce057610ce0612490565b60200260200101516020015189600189610cfa9190612431565b81518110610d0a57610d0a612490565b60200260200101517f00000000000000000000000000000000000000000000000000000000000000006001600160a01b0316878681518110610d4e57610d4e612490565b6020026020010151602001516001600160a01b031663b7d19fc46040518163ffffffff1660e01b815260040160206040518083038186803b158015610d9257600080fd5b505afa158015610da6573d6000803e3d6000fd5b505050506040513d601f19601f82011682018060405250810190610dca9190611f7a565b60405160e086901b6001600160e01b03191681526001600160a01b0394851660048201526024810193909352909216909114604482015260640160206040518083038186803b158015610e1c57600080fd5b505afa158015610e30573d6000803e3d6000fd5b505050506040513d601f19601f82011682018060405250810190610e549190612249565b91508115610e6457819550610e76565b80610e6e8161245f565b915050610c96565b50505b505b505b509295509295909350565b8151829060609081908190600090610ea1600182612431565b67ffffffffffffffff811115610eb957610eb96124a6565b604051908082528060200260200182016040528015610ee2578160200160208202803683370190505b509450610ef0600182612431565b67ffffffffffffffff811115610f0857610f086124a6565b604051908082528060200260200182016040528015610f31578160200160208202803683370190505b5093508067ffffffffffffffff811115610f4d57610f4d6124a6565b604051908082528060200260200182016040528015610f76578160200160208202803683370190505b5092508683610f86600184612431565b81518110610f9657610f96612490565b60209081029190910101526001600160a01b037f00000000000000000000000000000000000000000000000000000000000000001688610fd7600184612431565b81518110610fe757610fe7612490565b60200260200101516001600160a01b03161415611002578691505b600061100f600283612431565b90505b7f00000000000000000000000000000000000000000000000000000000000000006001600160a01b031663e6a439058a838151811061105357611053612490565b60200260200101518b84600161106991906123d8565b8151811061107957611079612490565b60200260200101516040518363ffffffff1660e01b81526004016110b39291906001600160a01b0392831681529116602082015260400190565b60206040518083038186803b1580156110cb57600080fd5b505afa1580156110df573d6000803e3d6000fd5b505050506040513d601f19601f820116820180604052508101906111039190611f7a565b86828151811061111557611115612490565b60200260200101906001600160a01b031690816001600160a01b031681525050600085828151811061114957611149612490565b60200260200101818152505060006001600160a01b031686828151811061117257611172612490565b60200260200101516001600160a01b031614611214576000806111c17f00000000000000000000000000000000000000000000000000000000000000008c858151811061049457610494612490565b915091506111e98684815181106111da576111da612490565b60200260200101518383611ac4565b866111f58560016123d8565b8151811061120557611205612490565b60200260200101818152505050505b60007f00000000000000000000000000000000000000000000000000000000000000006001600160a01b031663b131bba48b848151811061125757611257612490565b60200260200101518c85600161126d91906123d8565b8151811061127d5761127d612490565b60200260200101516040518363ffffffff1660e01b81526004016112b79291906001600160a01b0392831681529116602082015260400190565b60006040518083038186803b1580156112cf57600080fd5b505afa1580156112e3573d6000803e3d6000fd5b505050506040513d6000823e601f3d908101601f1916820160405261130b919081019061204a565b8051909150156116415760005b815181101561163f5760007f00000000000000000000000000000000000000000000000000000000000000006001600160a01b0316635bdd4b7c84848151811061136457611364612490565b60200260200101516020015189878151811061138257611382612490565b60200260200101518f88600161139891906123d8565b815181106113a8576113a8612490565b60200260200101516001600160a01b03168787815181106113cb576113cb612490565b6020026020010151602001516001600160a01b031663b7d19fc46040518163ffffffff1660e01b815260040160206040518083038186803b15801561140f57600080fd5b505afa158015611423573d6000803e3d6000fd5b505050506040513d601f19601f820116820180604052508101906114479190611f7a565b60405160e086901b6001600160e01b03191681526001600160a01b0394851660048201526024810193909352909216909114604482015260640160206040518083038186803b15801561149957600080fd5b505afa1580156114ad573d6000803e3d6000fd5b505050506040513d601f19601f820116820180604052508101906114d19190612249565b9050866114df8560016123d8565b815181106114ef576114ef612490565b602002602001015181101561162c57808761150b8660016123d8565b8151811061151b5761151b612490565b60200260200101818152505082828151811061153957611539612490565b60200260200101516020015189858151811061155757611557612490565b60200260200101906001600160a01b031690816001600160a01b03168152505082828151811061158957611589612490565b6020026020010151602001516001600160a01b03166398c7adf36040518163ffffffff1660e01b81526004016101406040518083038186803b1580156115ce57600080fd5b505afa1580156115e2573d6000803e3d6000fd5b505050506040513d601f19601f820116820180604052508101906116069190612131565b6000015160ff1688858151811061161f5761161f612490565b6020026020010181815250505b50806116378161245f565b915050611318565b505b6001600160a01b037f0000000000000000000000000000000000000000000000000000000000000000168a6116778460016123d8565b8151811061168757611687612490565b60200260200101516001600160a01b031614156116c557846116aa8360016123d8565b815181106116ba576116ba612490565b602002602001015193505b50806116d081612448565b915050611012565b8251811015610e76577f00000000000000000000000000000000000000000000000000000000000000006001600160a01b0316635bdd4b7c84838151811061172257611722612490565b6020026020010151602001518960008151811061174157611741612490565b60200260200101517f00000000000000000000000000000000000000000000000000000000000000006001600160a01b031687868151811061178557611785612490565b6020026020010151602001516001600160a01b031663b7d19fc46040518163ffffffff1660e01b815260040160206040518083038186803b1580156117c957600080fd5b505afa1580156117dd573d6000803e3d6000fd5b505050506040513d601f19601f820116820180604052508101906118019190611f7a565b60405160e086901b6001600160e01b03191681526001600160a01b0394851660048201526024810193909352909216909114604482015260640160206040518083038186803b15801561185357600080fd5b505afa158015611867573d6000803e3d6000fd5b505050506040513d601f19601f8201168201806040525081019061188b9190612249565b9150811561189b57819550610e76565b806118a58161245f565b9150506116d8565b60008060006118bc8585611be9565b5090506000806118cd888888611cd3565b6001600160a01b0316630902f1ac6040518163ffffffff1660e01b815260040160606040518083038186803b15801561190557600080fd5b505afa158015611919573d6000803e3d6000fd5b505050506040513d601f19601f8201168201806040525081019061193d91906121f9565b506dffffffffffffffffffffffffffff1691506dffffffffffffffffffffffffffff169150826001600160a01b0316876001600160a01b031614611982578082611985565b81815b90999098509650505050505050565b6000808411611a105760405162461bcd60e51b815260206004820152602560248201527f4a6f654c6962726172793a20494e53554646494349454e545f494e5055545f4160448201527f4d4f554e5400000000000000000000000000000000000000000000000000000060648201526084015b60405180910390fd5b600083118015611a205750600082115b611a775760405162461bcd60e51b815260206004820152602260248201527f4a6f654c6962726172793a20494e53554646494349454e545f4c495155494449604482015261545960f01b6064820152608401611a07565b6000611a85856103e5611dc4565b90506000611a938285611dc4565b90506000611aad83611aa7886103e8611dc4565b90611e3a565b9050611ab981836123f0565b979650505050505050565b6000808411611b3b5760405162461bcd60e51b815260206004820152602660248201527f4a6f654c6962726172793a20494e53554646494349454e545f4f55545055545f60448201527f414d4f554e5400000000000000000000000000000000000000000000000000006064820152608401611a07565b600083118015611b4b5750600082115b611ba25760405162461bcd60e51b815260206004820152602260248201527f4a6f654c6962726172793a20494e53554646494349454e545f4c495155494449604482015261545960f01b6064820152608401611a07565b6000611bba6103e8611bb48688611dc4565b90611dc4565b90506000611bce6103e5611bb48689611e98565b9050611bdf6001611aa783856123f0565b9695505050505050565b600080826001600160a01b0316846001600160a01b03161415611c4e5760405162461bcd60e51b815260206004820152601f60248201527f4a6f654c6962726172793a204944454e544943414c5f414444524553534553006044820152606401611a07565b826001600160a01b0316846001600160a01b031610611c6e578284611c71565b83835b90925090506001600160a01b038216611ccc5760405162461bcd60e51b815260206004820152601860248201527f4a6f654c6962726172793a205a45524f5f4144445245535300000000000000006044820152606401611a07565b9250929050565b6000806000611ce28585611be9565b6040516bffffffffffffffffffffffff19606084811b8216602084015283901b1660348201529193509150869060480160405160208183030381529060405280519060200120604051602001611da29291907fff00000000000000000000000000000000000000000000000000000000000000815260609290921b6bffffffffffffffffffffffff1916600183015260158201527f6c67ac67d0dad54be7b066edd9b4154fb5a0ab7d01232259b9ff26ebc1739ba2603582015260550190565b60408051601f1981840301815291905280516020909101209695505050505050565b6000811580611de857508282611dda8183612412565b9250611de690836123f0565b145b611e345760405162461bcd60e51b815260206004820152601460248201527f64732d6d6174682d6d756c2d6f766572666c6f770000000000000000000000006044820152606401611a07565b92915050565b600082611e4783826123d8565b9150811015611e345760405162461bcd60e51b815260206004820152601460248201527f64732d6d6174682d6164642d6f766572666c6f770000000000000000000000006044820152606401611a07565b600082611ea58382612431565b9150811115611e345760405162461bcd60e51b815260206004820152601560248201527f64732d6d6174682d7375622d756e646572666c6f7700000000000000000000006044820152606401611a07565b80518015158114611f0657600080fd5b919050565b80516dffffffffffffffffffffffffffff81168114611f0657600080fd5b805161ffff81168114611f0657600080fd5b805164ffffffffff81168114611f0657600080fd5b805168ffffffffffffffffff81168114611f0657600080fd5b805160ff81168114611f0657600080fd5b600060208284031215611f8c57600080fd5b8151611f97816124bc565b9392505050565b60008060408385031215611fb157600080fd5b823567ffffffffffffffff811115611fc857600080fd5b8301601f81018513611fd957600080fd5b80356020611fee611fe9836123b4565b612383565b80838252828201915082850189848660051b880101111561200e57600080fd5b600095505b8486101561203a578035612026816124bc565b835260019590950194918301918301612013565b5098969091013596505050505050565b6000602080838503121561205d57600080fd5b825167ffffffffffffffff81111561207457600080fd5b8301601f8101851361208557600080fd5b8051612093611fe9826123b4565b80828252848201915084840188868560071b87010111156120b357600080fd5b60009450845b8481101561212357608080838c0312156120d1578687fd5b6120d9612336565b83518152888401516120ea816124bc565b818a015260406120fb858201611ef6565b90820152606061210c858201611ef6565b9082015285529387019391909101906001016120b9565b509098975050505050505050565b6000610140828403121561214457600080fd5b61214c61235f565b61215583611f69565b815261216360208401611f69565b602082015261217460408401611f29565b604082015261218560608401611f29565b606082015261219660808401611f69565b60808201526121a760a08401611f69565b60a08201526121b860c08401611f69565b60c08201526121c960e08401611f50565b60e08201526101006121dc818501611f50565b908201526101206121ee848201611f3b565b908201529392505050565b60008060006060848603121561220e57600080fd5b61221784611f0b565b925061222560208501611f0b565b9150604084015163ffffffff8116811461223e57600080fd5b809150509250925092565b60006020828403121561225b57600080fd5b5051919050565b600081518084526020808501945080840160005b8381101561229b5781516001600160a01b031687529582019590820190600101612276565b509495945050505050565b600081518084526020808501945080840160005b8381101561229b578151875295820195908201906001016122ba565b60a0815260006122e960a0830188612262565b82810360208401526122fb8188612262565b9050828103604084015261230f81876122a6565b9050828103606084015261232381866122a6565b9150508260808301529695505050505050565b6040516080810167ffffffffffffffff81118282101715612359576123596124a6565b60405290565b604051610140810167ffffffffffffffff81118282101715612359576123596124a6565b604051601f8201601f1916810167ffffffffffffffff811182821017156123ac576123ac6124a6565b604052919050565b600067ffffffffffffffff8211156123ce576123ce6124a6565b5060051b60200190565b600082198211156123eb576123eb61247a565b500190565b60008261240d57634e487b7160e01b600052601260045260246000fd5b500490565b600081600019048311821515161561242c5761242c61247a565b500290565b6000828210156124435761244361247a565b500390565b6000816124575761245761247a565b506000190190565b60006000198214156124735761247361247a565b5060010190565b634e487b7160e01b600052601160045260246000fd5b634e487b7160e01b600052603260045260246000fd5b634e487b7160e01b600052604160045260246000fd5b6001600160a01b03811681146124d157600080fd5b5056fea264697066735822122056d974586bb7dd48a93ba29d9593e0fb85434d0a5baf12adb78d7f5f2a3554cd64736f6c63430008070033",
    "linkReferences": {}
  },
  "methodIdentifiers": {
    "factoryV1()": "3957f453",
    "factoryV2()": "68e0d4e1",
    "findBestPathAmountIn(address[],uint256)": "420650a5",
    "findBestPathAmountOut(address[],uint256)": "8b3810ff",
    "routerV2()": "502f7446",
    "wavax()": "117be4c2"
  },
  "id": 38
}